:020000040000FA
:1003000072EF1FF0D9CFE5FFE1CFD9FF00C0E5FFC5
:10031000020EDBCF00F09EA8FED700C0ADFFE4CFF9
:1003200000F0E4CFD9FF12000000D9CFE5FFE1CF04
:10033000D9FF00C0E5FF01C0E5FF02C0E5FF03C033
:10034000E5FF04C0E5FF05C0E5FF06C0E5FF07C007
:10035000E5FF08C0E5FF09C0E5FF0AC0E5FF020EA2
:10036000DBCF00F0030EDBCF01F0040EDBCF02F099
:10037000050EDBCF03F0060EDBCF04F0070EDBCF5C
:1003800005F0080EDBCF06F03B0E035C08E19A0E89
:10039000025C05E1CA0E015C02E1000E005CD8A01F
:1003A00018EF04F00450090F076E000E0520086EC8
:1003B000000E0620096EE56AE56AE56A0A0EE56E3A
:1003C0000350E56E0250E56E0150E56E0050E56E9B
:1003D000D5EC1BF00A6E080EE126300E0A260AC084
:1003E000E5FF07C0E9FF08C0F3FF095036EC23F032
:1003F000E56AE56AE56A0A0EE56E0350E56E0250AD
:10040000E56E0150E56E0050E56E72EC1CF0006E7A
:10041000F3CF01F0F4CF02F0E9CF03F0080EE126AC
:100420000450080F076E000E0520086E000E06200F
:10043000096EE56AE56AE56A0A0EE56E0350E56E47
:100440000250E56E0150E56E0050E56ED5EC1BF0F4
:100450000A6E080EE126300E0A260AC0E5FF07C024
:10046000E9FF08C0F3FF095036EC23F0E56AE56ABE
:10047000E56A0A0EE56E0350E56E0250E56E015026
:10048000E56E0050E56E72EC1CF0006EF3CF01F0EB
:10049000F4CF02F0E9CF03F0080EE1260450070F75
:1004A000076E000E0520086E000E0620096EE56A34
:1004B000E56AE56A0A0EE56E0350E56E0250E56EE8
:1004C0000150E56E0050E56ED5EC1BF00A6E080E8B
:1004D000E126300E0A260AC0E5FF07C0E9FF08C082
:1004E000F3FF095036EC23F0E56AE56AE56A0A0E87
:1004F000E56E0350E56E0250E56E0150E56E00506A
:10050000E56E72EC1CF0006EF3CF01F0F4CF02F058
:10051000E9CF03F0080EE1260450060F076E000E27
:100520000520086E000E0620096EE56AE56AE56A98
:100530000A0EE56E0350E56E0250E56E0150E56E61
:100540000050E56ED5EC1BF00A6E080EE126300E69
:100550000A260AC0E5FF07C0E9FF08C0F3FF0950FB
:1005600036EC23F0E56AE56AE56A0A0EE56E0350AB
:10057000E56E0250E56E0150E56E0050E56E72ECDE
:100580001CF0006EF3CF01F0F4CF02F0E9CF03F0DE
:10059000080EE1260450050F076E000E0520086EB8
:1005A000000E0620096EE56AE56AE56A0A0EE56E48
:1005B0000350E56E0250E56E0150E56E0050E56EA9
:1005C000D5EC1BF00A6E080EE126300E0A260AC092
:1005D000E5FF07C0E9FF08C0F3FF095036EC23F040
:1005E000E56AE56AE56A0A0EE56E0350E56E0250BB
:1005F000E56E0150E56E0050E56E72EC1CF0006E89
:10060000F3CF01F0F4CF02F0E9CF03F0080EE126BA
:100610000450040F076E000E0520086E000E062021
:10062000096EE56AE56AE56A0A0EE56E0350E56E55
:100630000250E56E0150E56E0050E56ED5EC1BF002
:100640000A6E080EE126300E0A260AC0E5FF07C032
:10065000E9FF08C0F3FF095036EC23F0E56AE56ACC
:10066000E56A0A0EE56E0350E56E0250E56E015034
:10067000E56E0050E56E72EC1CF0006EF3CF01F0F9
:10068000F4CF02F0E9CF03F0080EE1260450030F87
:10069000076E000E0520086E000E0620096EE56A42
:1006A000E56AE56A0A0EE56E0350E56E0250E56EF6
:1006B0000150E56E0050E56ED5EC1BF00A6E080E99
:1006C000E126300E0A260AC0E5FF07C0E9FF08C090
:1006D000F3FF095036EC23F0E56AE56AE56A0A0E95
:1006E000E56E0350E56E0250E56E0150E56E005078
:1006F000E56E72EC1CF0006EF3CF01F0F4CF02F067
:10070000E9CF03F0080EE1260450020F076E000E39
:100710000520086E000E0620096EE56AE56AE56AA6
:100720000A0EE56E0350E56E0250E56E0150E56E6F
:100730000050E56ED5EC1BF00A6E080EE126300E77
:100740000A260AC0E5FF07C0E9FF08C0F3FF095009
:1007500036EC23F0E56AE56AE56A0A0EE56E0350B9
:10076000E56E0250E56E0150E56E0050E56E72ECEC
:100770001CF0006EF3CF01F0F4CF02F0E9CF03F0EC
:10078000080EE1260450010F076E000E0520086ECA
:10079000000E0620096EE56AE56AE56A0A0EE56E56
:1007A0000350E56E0250E56E0150E56E0050E56EB7
:1007B000D5EC1BF00A6E080EE126300E0A260AC0A0
:1007C000E5FF07C0E9FF08C0F3FF095036EC23F04E
:1007D000E56AE56AE56A0A0EE56E0350E56E0250C9
:1007E000E56E0150E56E0050E56E72EC1CF0006E97
:1007F000080EE1260050076E300E072607C0E5FF01
:1008000004C0E9FF05C0F3FF065036EC23F00450A6
:100810000A0F076E000E0520086E000E0620E56A1E
:1008200007C0E9FF08C0F3FF36EC23F039EF11F001
:10083000050E035C08E1F50E025C05E1E10E015CCA
:1008400002E1000E005CD8A040EF06F00450090F52
:10085000076E000E0520086E000E0620096EE56A80
:10086000E56AE56A0A0EE56E0350E56E0250E56E34
:100870000150E56E0050E56ED5EC1BF00A6E080ED7
:10088000E126300E0A260AC0E5FF07C0E9FF08C0CE
:10089000F3FF095036EC23F0E56AE56AE56A0A0ED3
:1008A000E56E0350E56E0250E56E0150E56E0050B6
:1008B000E56E72EC1CF0006EF3CF01F0F4CF02F0A5
:1008C000E9CF03F0080EE1260450080F076E000E72
:1008D0000520086E000E0620096EE56AE56AE56AE5
:1008E0000A0EE56E0350E56E0250E56E0150E56EAE
:1008F0000050E56ED5EC1BF00A6E080EE126300EB6
:100900000A260AC0E5FF07C0E9FF08C0F3FF095047
:1009100036EC23F0E56AE56AE56A0A0EE56E0350F7
:10092000E56E0250E56E0150E56E0050E56E72EC2A
:100930001CF0006EF3CF01F0F4CF02F0E9CF03F02A
:10094000080EE1260450070F076E000E0520086E02
:10095000000E0620096EE56AE56AE56A0A0EE56E94
:100960000350E56E0250E56E0150E56E0050E56EF5
:10097000D5EC1BF00A6E080EE126300E0A260AC0DE
:10098000E5FF07C0E9FF08C0F3FF095036EC23F08C
:10099000E56AE56AE56A0A0EE56E0350E56E025007
:1009A000E56E0150E56E0050E56E72EC1CF0006ED5
:1009B000F3CF01F0F4CF02F0E9CF03F0080EE12607
:1009C0000450060F076E000E0520086E000E06206C
:1009D000096EE56AE56AE56A0A0EE56E0350E56EA2
:1009E0000250E56E0150E56E0050E56ED5EC1BF04F
:1009F0000A6E080EE126300E0A260AC0E5FF07C07F
:100A0000E9FF08C0F3FF095036EC23F0E56AE56A18
:100A1000E56A0A0EE56E0350E56E0250E56E015080
:100A2000E56E0050E56E72EC1CF0006EF3CF01F045
:100A3000F4CF02F0E9CF03F0080EE1260450050FD1
:100A4000076E000E0520086E000E0620096EE56A8E
:100A5000E56AE56A0A0EE56E0350E56E0250E56E42
:100A60000150E56E0050E56ED5EC1BF00A6E080EE5
:100A7000E126300E0A260AC0E5FF07C0E9FF08C0DC
:100A8000F3FF095036EC23F0E56AE56AE56A0A0EE1
:100A9000E56E0350E56E0250E56E0150E56E0050C4
:100AA000E56E72EC1CF0006EF3CF01F0F4CF02F0B3
:100AB000E9CF03F0080EE1260450040F076E000E84
:100AC0000520086E000E0620096EE56AE56AE56AF3
:100AD0000A0EE56E0350E56E0250E56E0150E56EBC
:100AE0000050E56ED5EC1BF00A6E080EE126300EC4
:100AF0000A260AC0E5FF07C0E9FF08C0F3FF095056
:100B000036EC23F0E56AE56AE56A0A0EE56E035005
:100B1000E56E0250E56E0150E56E0050E56E72EC38
:100B20001CF0006EF3CF01F0F4CF02F0E9CF03F038
:100B3000080EE1260450030F076E000E0520086E14
:100B4000000E0620096EE56AE56AE56A0A0EE56EA2
:100B50000350E56E0250E56E0150E56E0050E56E03
:100B6000D5EC1BF00A6E080EE126300E0A260AC0EC
:100B7000E5FF07C0E9FF08C0F3FF095036EC23F09A
:100B8000E56AE56AE56A0A0EE56E0350E56E025015
:100B9000E56E0150E56E0050E56E72EC1CF0006EE3
:100BA000F3CF01F0F4CF02F0E9CF03F0080EE12615
:100BB0000450020F076E000E0520086E000E06207E
:100BC000096EE56AE56AE56A0A0EE56E0350E56EB0
:100BD0000250E56E0150E56E0050E56ED5EC1BF05D
:100BE0000A6E080EE126300E0A260AC0E5FF07C08D
:100BF000E9FF08C0F3FF095036EC23F0E56AE56A27
:100C0000E56A0A0EE56E0350E56E0250E56E01508E
:100C1000E56E0050E56E72EC1CF0006E080EE126E9
:100C20000450010F076E000E0520086E000E06200E
:100C3000096E00500A6E300E0A260AC0E5FF07C092
:100C4000E9FF08C0F3FF095036EC23F0200EE56EF3
:100C500004C0E9FF05C0F3FF065036EC23F0045052
:100C60000A0F076E000E0520086E000E0620E56ACA
:100C700007C0E9FF08C0F3FF36EC23F039EF11F0AD
:100C8000000E035C08E1980E025C05E1960E015C23
:100C900002E1800E005CD8A0EED10450090F076E6F
:100CA000000E0520086E000E0620096EE56AE56A52
:100CB000E56A0A0EE56E0350E56E0250E56E0150DE
:100CC000E56E0050E56ED5EC1BF00A6E080EE126CD
:100CD000300E0A260AC0E5FF07C0E9FF08C0F3FF8F
:100CE000095036EC23F0E56AE56AE56A0A0EE56E1E
:100CF0000350E56E0250E56E0150E56E0050E56E62
:100D000072EC1CF0006EF3CF01F0F4CF02F0E9CFEB
:100D100003F0080EE1260450080F076E000E0520B0
:100D2000086E000E0620096EE56AE56AE56A0A0E9D
:100D3000E56E0350E56E0250E56E0150E56E005021
:100D4000E56ED5EC1BF00A6E080EE126300E0A2681
:100D50000AC0E5FF07C0E9FF08C0F3FF095036EC01
:100D600023F0E56AE56AE56A0A0EE56E0350E56E72
:100D70000250E56E0150E56E0050E56E72EC1CF01D
:100D8000006EF3CF01F0F4CF02F0E9CF03F0080ECC
:100D9000E1260450070F076E000E0520086E000EB6
:100DA0000620096EE56AE56AE56A0A0EE56E0350FB
:100DB000E56E0250E56E0150E56E0050E56ED5EC33
:100DC0001BF00A6E080EE126300E0A260AC0E5FF67
:100DD00007C0E9FF08C0F3FF095036EC23F0E56ACD
:100DE000E56AE56A0A0EE56E0350E56E0250E56EAF
:100DF0000150E56E0050E56E72EC1CF0006EF3CF12
:100E000001F0F4CF02F0E9CF03F0080EE126045020
:100E1000060F076E000E0520086E000E0620096EF4
:100E2000E56AE56AE56A0A0EE56E0350E56E025072
:100E3000E56E0150E56E0050E56ED5EC1BF00A6ED4
:100E4000080EE126300E0A260AC0E5FF07C0E9FFBA
:100E500008C0F3FF095036EC23F0E56AE56AE56A5D
:100E60000A0EE56E0350E56E0250E56E0150E56E28
:100E70000050E56E72EC1CF0006EF3CF01F0F4CF81
:100E800002F0E9CF03F0080EE1260450050F076ECB
:100E9000000E0520086E000E0620096EE56AE56A60
:100EA000E56A0A0EE56E0350E56E0250E56E0150EC
:100EB000E56E0050E56ED5EC1BF00A6E080EE126DB
:100EC000300E0A260AC0E5FF07C0E9FF08C0F3FF9D
:100ED000095036EC23F0E56AE56AE56A0A0EE56E2C
:100EE0000350E56E0250E56E0150E56E0050E56E70
:100EF00072EC1CF0006EF3CF01F0F4CF02F0E9CFFA
:100F000003F0080EE1260450040F076E000E0520C2
:100F1000086E000E0620096EE56AE56AE56A0A0EAB
:100F2000E56E0350E56E0250E56E0150E56E00502F
:100F3000E56ED5EC1BF00A6E080EE126300E0A268F
:100F40000AC0E5FF07C0E9FF08C0F3FF095036EC0F
:100F500023F0E56AE56AE56A0A0EE56E0350E56E80
:100F60000250E56E0150E56E0050E56E72EC1CF02B
:100F7000006EF3CF01F0F4CF02F0E9CF03F0080EDA
:100F8000E1260450030F076E000E0520086E000EC8
:100F90000620096EE56AE56AE56A0A0EE56E035009
:100FA000E56E0250E56E0150E56E0050E56ED5EC41
:100FB0001BF00A6E080EE126300E0A260AC0E5FF75
:100FC00007C0E9FF08C0F3FF095036EC23F0E56ADB
:100FD000E56AE56A0A0EE56E0350E56E0250E56EBD
:100FE0000150E56E0050E56E72EC1CF0006E080ECC
:100FF000E1260450020F076E000E0520086E000E59
:101000000620096E00500A6E300E0A260AC0E5FF5F
:1010100007C0E9FF08C0F3FF095036EC23F0045085
:10102000010F076E000E0520086E000E0620096EE7
:10103000200EE56E07C0E9FF08C0F3FF095036EC4B
:1010400023F0200EE56E04C0E9FF05C0F3FF065053
:1010500036EC23F004500A0F076E000E0520086ED0
:10106000000E0620E56A07C0E9FF08C0F3FF36EC72
:1010700023F039EF11F0000E035C08E10F0E025C63
:1010800005E1420E015C02E1400E005CD8A0C2D135
:101090000450090F076E000E0520086E000E062092
:1010A000096EE56AE56AE56A0A0EE56E0350E56ECB
:1010B0000250E56E0150E56E0050E56ED5EC1BF078
:1010C0000A6E080EE126300E0A260AC0E5FF07C0A8
:1010D000E9FF08C0F3FF095036EC23F0E56AE56A42
:1010E000E56A0A0EE56E0350E56E0250E56E0150AA
:1010F000E56E0050E56E72EC1CF0006EF3CF01F06F
:10110000F4CF02F0E9CF03F0080EE1260450080FF7
:10111000076E000E0520086E000E0620096EE56AB7
:10112000E56AE56A0A0EE56E0350E56E0250E56E6B
:101130000150E56E0050E56ED5EC1BF00A6E080E0E
:10114000E126300E0A260AC0E5FF07C0E9FF08C005
:10115000F3FF095036EC23F0E56AE56AE56A0A0E0A
:10116000E56E0350E56E0250E56E0150E56E0050ED
:10117000E56E72EC1CF0006EF3CF01F0F4CF02F0DC
:10118000E9CF03F0080EE1260450070F076E000EAA
:101190000520086E000E0620096EE56AE56AE56A1C
:1011A0000A0EE56E0350E56E0250E56E0150E56EE5
:1011B0000050E56ED5EC1BF00A6E080EE126300EED
:1011C0000A260AC0E5FF07C0E9FF08C0F3FF09507F
:1011D00036EC23F0E56AE56AE56A0A0EE56E03502F
:1011E000E56E0250E56E0150E56E0050E56E72EC62
:1011F0001CF0006EF3CF01F0F4CF02F0E9CF03F062
:10120000080EE1260450060F076E000E0520086E3A
:10121000000E0620096EE56AE56AE56A0A0EE56ECB
:101220000350E56E0250E56E0150E56E0050E56E2C
:10123000D5EC1BF00A6E080EE126300E0A260AC015
:10124000E5FF07C0E9FF08C0F3FF095036EC23F0C3
:10125000E56AE56AE56A0A0EE56E0350E56E02503E
:10126000E56E0150E56E0050E56E72EC1CF0006E0C
:10127000F3CF01F0F4CF02F0E9CF03F0080EE1263E
:101280000450050F076E000E0520086E000E0620A4
:10129000096EE56AE56AE56A0A0EE56E0350E56ED9
:1012A0000250E56E0150E56E0050E56ED5EC1BF086
:1012B0000A6E080EE126300E0A260AC0E5FF07C0B6
:1012C000E9FF08C0F3FF095036EC23F0E56AE56A50
:1012D000E56A0A0EE56E0350E56E0250E56E0150B8
:1012E000E56E0050E56E72EC1CF0006EF3CF01F07D
:1012F000F4CF02F0E9CF03F0080EE1260450040F0A
:10130000076E000E0520086E000E0620096EE56AC5
:10131000E56AE56A0A0EE56E0350E56E0250E56E79
:101320000150E56E0050E56ED5EC1BF00A6E080E1C
:10133000E126300E0A260AC0E5FF07C0E9FF08C013
:10134000F3FF095036EC23F0E56AE56AE56A0A0E18
:10135000E56E0350E56E0250E56E0150E56E0050FB
:10136000E56E72EC1CF0006E080EE1260450030FCF
:10137000076E000E0520086E000E0620096E005054
:101380000A6E300E0A260AC0E5FF07C0E9FF08C052
:10139000F3FF095036EC23F00450020F076E000EE5
:1013A0000520086E000E0620096E200EE56E07C0AF
:1013B000E9FF08C0F3FF095036EC23F00450010F99
:1013C000076E000E0520086E000E0620096E200E26
:1013D000E56E07C0E9FF08C0F3FF095036EC23F0C3
:1013E000200EE56E04C0E9FF05C0F3FF065036ECA1
:1013F00023F004500A0F076E000E0520086E000E41
:101400000620E56A07C0E9FF08C0F3FF36EC23F0C9
:1014100039EF11F0000E035C08E1010E025C05E1FA
:10142000860E015C02E1A00E005CD8A096D10450AB
:10143000090F076E000E0520086E000E0620096ECB
:10144000E56AE56AE56A0A0EE56E0350E56E02504C
:10145000E56E0150E56E0050E56ED5EC1BF00A6EAE
:10146000080EE126300E0A260AC0E5FF07C0E9FF94
:1014700008C0F3FF095036EC23F0E56AE56AE56A37
:101480000A0EE56E0350E56E0250E56E0150E56E02
:101490000050E56E72EC1CF0006EF3CF01F0F4CF5B
:1014A00002F0E9CF03F0080EE1260450080F076EA2
:1014B000000E0520086E000E0620096EE56AE56A3A
:1014C000E56A0A0EE56E0350E56E0250E56E0150C6
:1014D000E56E0050E56ED5EC1BF00A6E080EE126B5
:1014E000300E0A260AC0E5FF07C0E9FF08C0F3FF77
:1014F000095036EC23F0E56AE56AE56A0A0EE56E06
:101500000350E56E0250E56E0150E56E0050E56E49
:1015100072EC1CF0006EF3CF01F0F4CF02F0E9CFD3
:1015200003F0080EE1260450070F076E000E052099
:10153000086E000E0620096EE56AE56AE56A0A0E85
:10154000E56E0350E56E0250E56E0150E56E005009
:10155000E56ED5EC1BF00A6E080EE126300E0A2669
:101560000AC0E5FF07C0E9FF08C0F3FF095036ECE9
:1015700023F0E56AE56AE56A0A0EE56E0350E56E5A
:101580000250E56E0150E56E0050E56E72EC1CF005
:10159000006EF3CF01F0F4CF02F0E9CF03F0080EB4
:1015A000E1260450060F076E000E0520086E000E9F
:1015B0000620096EE56AE56AE56A0A0EE56E0350E3
:1015C000E56E0250E56E0150E56E0050E56ED5EC1B
:1015D0001BF00A6E080EE126300E0A260AC0E5FF4F
:1015E00007C0E9FF08C0F3FF095036EC23F0E56AB5
:1015F000E56AE56A0A0EE56E0350E56E0250E56E97
:101600000150E56E0050E56E72EC1CF0006EF3CFF9
:1016100001F0F4CF02F0E9CF03F0080EE126045008
:10162000050F076E000E0520086E000E0620096EDD
:10163000E56AE56AE56A0A0EE56E0350E56E02505A
:10164000E56E0150E56E0050E56ED5EC1BF00A6EBC
:10165000080EE126300E0A260AC0E5FF07C0E9FFA2
:1016600008C0F3FF095036EC23F0E56AE56AE56A45
:101670000A0EE56E0350E56E0250E56E0150E56E10
:101680000050E56E72EC1CF0006E080EE12604506E
:10169000040F076E000E0520086E000E0620096E6E
:1016A00000500A6E300E0A260AC0E5FF07C0E9FFA7
:1016B00008C0F3FF095036EC23F00450030F076E07
:1016C000000E0520086E000E0620096E200EE56E45
:1016D00007C0E9FF08C0F3FF095036EC23F00450BF
:1016E000020F076E000E0520086E000E0620096E20
:1016F000200EE56E07C0E9FF08C0F3FF095036EC85
:1017000023F00450010F076E000E0520086E000E36
:101710000620096E200EE56E07C0E9FF08C0F3FF42
:10172000095036EC23F0200EE56E04C0E9FF05C039
:10173000F3FF065036EC23F004500A0F076E000E3C
:101740000520086E000E0620E56A07C0E9FF08C004
:10175000F3FF36EC23F039EF11F0000E035C08E1E3
:10176000000E025C05E1270E015C02E1100E005C38
:10177000D8A06AD10450090F076E000E0520086E2C
:10178000000E0620096EE56AE56AE56A0A0EE56E56
:101790000350E56E0250E56E0150E56E0050E56EB7
:1017A000D5EC1BF00A6E080EE126300E0A260AC0A0
:1017B000E5FF07C0E9FF08C0F3FF095036EC23F04E
:1017C000E56AE56AE56A0A0EE56E0350E56E0250C9
:1017D000E56E0150E56E0050E56E72EC1CF0006E97
:1017E000F3CF01F0F4CF02F0E9CF03F0080EE126C9
:1017F0000450080F076E000E0520086E000E06202C
:10180000096EE56AE56AE56A0A0EE56E0350E56E63
:101810000250E56E0150E56E0050E56ED5EC1BF010
:101820000A6E080EE126300E0A260AC0E5FF07C040
:10183000E9FF08C0F3FF095036EC23F0E56AE56ADA
:10184000E56A0A0EE56E0350E56E0250E56E015042
:10185000E56E0050E56E72EC1CF0006EF3CF01F007
:10186000F4CF02F0E9CF03F0080EE1260450070F91
:10187000076E000E0520086E000E0620096EE56A50
:10188000E56AE56A0A0EE56E0350E56E0250E56E04
:101890000150E56E0050E56ED5EC1BF00A6E080EA7
:1018A000E126300E0A260AC0E5FF07C0E9FF08C09E
:1018B000F3FF095036EC23F0E56AE56AE56A0A0EA3
:1018C000E56E0350E56E0250E56E0150E56E005086
:1018D000E56E72EC1CF0006EF3CF01F0F4CF02F075
:1018E000E9CF03F0080EE1260450060F076E000E44
:1018F0000520086E000E0620096EE56AE56AE56AB5
:101900000A0EE56E0350E56E0250E56E0150E56E7D
:101910000050E56ED5EC1BF00A6E080EE126300E85
:101920000A260AC0E5FF07C0E9FF08C0F3FF095017
:1019300036EC23F0E56AE56AE56A0A0EE56E0350C7
:10194000E56E0250E56E0150E56E0050E56E72ECFA
:101950001CF0006E080EE1260450050F076E000E05
:101960000520086E000E0620096E00500A6E300E2B
:101970000A260AC0E5FF07C0E9FF08C0F3FF0950C7
:1019800036EC23F00450040F076E000E0520086E9D
:10199000000E0620096E200EE56E07C0E9FF08C0A4
:1019A000F3FF095036EC23F00450030F076E000ECE
:1019B0000520086E000E0620096E200EE56E07C099
:1019C000E9FF08C0F3FF095036EC23F00450020F82
:1019D000076E000E0520086E000E0620096E200E10
:1019E000E56E07C0E9FF08C0F3FF095036EC23F0AD
:1019F0000450010F076E000E0520086E000E062031
:101A0000096E200EE56E07C0E9FF08C0F3FF09501C
:101A100036EC23F0200EE56E04C0E9FF05C0F3FFAD
:101A2000065036EC23F004500A0F076E000E052016
:101A3000086E000E0620E56A07C0E9FF08C0F3FF44
:101A400036EC23F039EF11F0000E035C08E1000ED4
:101A5000025C05E1030E015C02E1E80E005CD8A027
:101A60003ED10450090F076E000E0520086E000ECF
:101A70000620096EE56AE56AE56A0A0EE56E03501E
:101A8000E56E0250E56E0150E56E0050E56ED5EC56
:101A90001BF00A6E080EE126300E0A260AC0E5FF8A
:101AA00007C0E9FF08C0F3FF095036EC23F0E56AF0
:101AB000E56AE56A0A0EE56E0350E56E0250E56ED2
:101AC0000150E56E0050E56E72EC1CF0006EF3CF35
:101AD00001F0F4CF02F0E9CF03F0080EE126045044
:101AE000080F076E000E0520086E000E0620096E16
:101AF000E56AE56AE56A0A0EE56E0350E56E025096
:101B0000E56E0150E56E0050E56ED5EC1BF00A6EF7
:101B1000080EE126300E0A260AC0E5FF07C0E9FFDD
:101B200008C0F3FF095036EC23F0E56AE56AE56A80
:101B30000A0EE56E0350E56E0250E56E0150E56E4B
:101B40000050E56E72EC1CF0006EF3CF01F0F4CFA4
:101B500002F0E9CF03F0080EE1260450070F076EEC
:101B6000000E0520086E000E0620096EE56AE56A83
:101B7000E56A0A0EE56E0350E56E0250E56E01500F
:101B8000E56E0050E56ED5EC1BF00A6E080EE126FE
:101B9000300E0A260AC0E5FF07C0E9FF08C0F3FFC0
:101BA000095036EC23F0E56AE56AE56A0A0EE56E4F
:101BB0000350E56E0250E56E0150E56E0050E56E93
:101BC00072EC1CF0006E080EE1260450060F076E42
:101BD000000E0520086E000E0620096E00500A6EE9
:101BE000300E0A260AC0E5FF07C0E9FF08C0F3FF70
:101BF000095036EC23F00450050F076E000E052047
:101C0000086E000E0620096E200EE56E07C0E9FF83
:101C100008C0F3FF095036EC23F00450040F076EA0
:101C2000000E0520086E000E0620096E200EE56EDF
:101C300007C0E9FF08C0F3FF095036EC23F0045059
:101C4000030F076E000E0520086E000E0620096EB9
:101C5000200EE56E07C0E9FF08C0F3FF095036EC1F
:101C600023F00450020F076E000E0520086E000ED0
:101C70000620096E200EE56E07C0E9FF08C0F3FFDD
:101C8000095036EC23F00450010F076E000E0520BA
:101C9000086E000E0620096E200EE56E07C0E9FFF3
:101CA00008C0F3FF095036EC23F0200EE56E04C0A7
:101CB000E9FF05C0F3FF065036EC23F004500A0F8D
:101CC000076E000E0520086E000E0620E56A07C0AC
:101CD000E9FF08C0F3FF36EC23F039EF11F0000EF6
:101CE000035C08E1000E025C05E1000E015C02E10C
:101CF000640E005CD8A011D10450090F076E000ECD
:101D00000520086E000E0620096EE56AE56AE56AA0
:101D10000A0EE56E0350E56E0250E56E0150E56E69
:101D20000050E56ED5EC1BF00A6E080EE126300E71
:101D30000A260AC0E5FF07C0E9FF08C0F3FF095003
:101D400036EC23F0E56AE56AE56A0A0EE56E0350B3
:101D5000E56E0250E56E0150E56E0050E56E72ECE6
:101D60001CF0006EF3CF01F0F4CF02F0E9CF03F0E6
:101D7000080EE1260450080F076E000E0520086EBD
:101D8000000E0620096EE56AE56AE56A0A0EE56E50
:101D90000350E56E0250E56E0150E56E0050E56EB1
:101DA000D5EC1BF00A6E080EE126300E0A260AC09A
:101DB000E5FF07C0E9FF08C0F3FF095036EC23F048
:101DC000E56AE56AE56A0A0EE56E0350E56E0250C3
:101DD000E56E0150E56E0050E56E72EC1CF0006E91
:101DE000080EE1260450070F076E000E0520086E4E
:101DF000000E0620096E00500A6E300E0A260AC038
:101E0000E5FF07C0E9FF08C0F3FF095036EC23F0F7
:101E10000450060F076E000E0520086E000E062007
:101E2000096E200EE56E07C0E9FF08C0F3FF0950F8
:101E300036EC23F00450050F076E000E0520086EE7
:101E4000000E0620096E200EE56E07C0E9FF08C0EF
:101E5000F3FF095036EC23F00450040F076E000E18
:101E60000520086E000E0620096E200EE56E07C0E4
:101E7000E9FF08C0F3FF095036EC23F00450030FCC
:101E8000076E000E0520086E000E0620096E200E5B
:101E9000E56E07C0E9FF08C0F3FF095036EC23F0F8
:101EA0000450020F076E000E0520086E000E06207B
:101EB000096E200EE56E07C0E9FF08C0F3FF095068
:101EC00036EC23F00450010F076E000E0520086E5B
:101ED000000E0620096E200EE56E07C0E9FF08C05F
:101EE000F3FF095036EC23F0200EE56E04C0E9FF45
:101EF00005C0F3FF065036EC23F004500A0F076EBE
:101F0000000E0520086E000E0620E56A07C0E9FFF6
:101F100008C0F3FF36EC23F0ACD1000E035C08E1FF
:101F2000000E025C05E1000E015C02E10A0E005C9D
:101F3000D8A0E5D00450090F076E000E0520086EEA
:101F4000000E0620096EE56AE56AE56A0A0EE56E8E
:101F50000350E56E0250E56E0150E56E0050E56EEF
:101F6000D5EC1BF00A6E080EE126300E0A260AC0D8
:101F7000E5FF07C0E9FF08C0F3FF095036EC23F086
:101F8000E56AE56AE56A0A0EE56E0350E56E025001
:101F9000E56E0150E56E0050E56E72EC1CF0006ECF
:101FA000080EE1260450080F076E000E0520086E8B
:101FB000000E0620096E00500A6E300E0A260AC076
:101FC000E5FF07C0E9FF08C0F3FF095036EC23F036
:101FD0000450070F076E000E0520086E000E062045
:101FE000096E200EE56E07C0E9FF08C0F3FF095037
:101FF00036EC23F00450060F076E000E0520086E25
:10200000000E0620096E200EE56E07C0E9FF08C02D
:10201000F3FF095036EC23F00450050F076E000E55
:102020000520086E000E0620096E200EE56E07C022
:10203000E9FF08C0F3FF095036EC23F00450040F09
:10204000076E000E0520086E000E0620096E200E99
:10205000E56E07C0E9FF08C0F3FF095036EC23F036
:102060000450030F076E000E0520086E000E0620B8
:10207000096E200EE56E07C0E9FF08C0F3FF0950A6
:1020800036EC23F00450020F076E000E0520086E98
:10209000000E0620096E200EE56E07C0E9FF08C09D
:1020A000F3FF095036EC23F00450010F076E000EC9
:1020B0000520086E000E0620096E200EE56E07C092
:1020C000E9FF08C0F3FF095036EC23F0200EE56E5F
:1020D00004C0E9FF05C0F3FF065036EC23F00450BE
:1020E0000A0F076E000E0520086E000E0620E56A36
:1020F00007C0E9FF08C0F3FF36EC23F0BAD0045064
:10210000090F076E000E0520086E000E0620096EEE
:10211000300E002600C0E5FF07C0E9FF08C0F3FF4E
:10212000095036EC23F00450080F006E000E052015
:10213000016E000E0620026E200EE56E00C0E9FF63
:1021400001C0F3FF025036EC23F00450070F006E7D
:10215000000E0520016E000E0620026E200EE56EB8
:1021600000C0E9FF01C0F3FF025036EC23F0045039
:10217000060F006E000E0520016E000E0620026E96
:10218000200EE56E00C0E9FF01C0F3FF025036ECFF
:1021900023F00450050F006E000E0520016E000EA6
:1021A0000620026E200EE56E00C0E9FF01C0F3FFBD
:1021B000025036EC23F00450040F006E000E052090
:1021C000016E000E0620026E200EE56E00C0E9FFD3
:1021D00001C0F3FF025036EC23F00450030F006EF1
:1021E000000E0520016E000E0620026E200EE56E28
:1021F00000C0E9FF01C0F3FF025036EC23F00450A9
:10220000020F006E000E0520016E000E0620026E09
:10221000200EE56E00C0E9FF01C0F3FF025036EC6E
:1022200023F00450010F006E000E0520016E000E19
:102230000620026E200EE56E00C0E9FF01C0F3FF2C
:10224000025036EC23F0200EE56E04C0E9FF05C015
:10225000F3FF065036EC23F00A0E0426000E05228A
:102260000622E56A04C0E9FF05C0F3FF065036EC1C
:1022700023F0E4CF0AF0E4CF09F0E4CF08F0E4CF94
:1022800007F0E4CF06F0E4CF05F0E4CF04F0E4CFAC
:1022900003F0E4CF02F0E4CF01F0E4CF00F0E4CFAC
:1022A000D9FF1200D9CFE5FFE1CFD9FF00C0E5FF8C
:1022B00001C0E5FF02C0E5FF03C0E5FF04C0E5FF84
:1022C00005C0E5FF06C0E5FF07C0E5FF08C0E5FF64
:1022D000020EDBCF00F0030EDBCF01F0040EDBCFEC
:1022E00002F0050EDBCF03F0060EDBCF04F0270E65
:1022F000015C02E1100E005CD8A0D4D00250040FA3
:10230000056E000E0320066E000E0420076EE56ABF
:102310000A0EE56E0150E56E0050E56EBDEC1EF054
:10232000086E040EE126300E082608C0E5FF05C041
:10233000E9FF06C0F3FF075036EC23F0E56A0A0E0A
:10234000E56E0150E56E0050E56E1AEC1FF0006E70
:10235000F3CF01F0040EE1260250030F056E000ECC
:102360000320066E000E0420076EE56A0A0EE56E75
:102370000150E56E0050E56EBDEC1EF0086E040ED7
:10238000E126300E082608C0E5FF05C0E9FF06C0BB
:10239000F3FF075036EC23F0E56A0A0EE56E0150B4
:1023A000E56E0050E56E1AEC1FF0006EF3CF01F001
:1023B000040EE1260250020F056E000E0320066E89
:1023C000000E0420076EE56A0A0EE56E0150E56E08
:1023D0000050E56EBDEC1EF0086E040EE126300ED6
:1023E000082608C0E5FF05C0E9FF06C0F3FF075057
:1023F00036EC23F0E56A0A0EE56E0150E56E0050FA
:10240000E56E1AEC1FF0006EF3CF01F0040EE1262A
:102410000250010F056E000E0320066E000E042010
:10242000076EE56A0A0EE56E0150E56E0050E56E36
:10243000BDEC1EF0086E040EE126300E082608C022
:10244000E5FF05C0E9FF06C0F3FF075036EC23F0B7
:10245000E56A0A0EE56E0150E56E0050E56E1AEC75
:102460001FF0006E040EE1260050056E300E0526AA
:1024700005C0E5FF02C0E9FF03C0F3FF045036ECDE
:1024800023F00250050F056E000E0320066E000EAD
:102490000420E56A05C0E9FF06C0F3FF36EC23F02F
:1024A00098EF14F0030E015C02E1E80E005CD8A086
:1024B000B7D00250040F056E000E0320066E000E0A
:1024C0000420076EE56A0A0EE56E0150E56E0050C5
:1024D000E56EBDEC1EF0086E040EE126300E0826F7
:1024E00008C0E5FF05C0E9FF06C0F3FF075036EC62
:1024F00023F0E56A0A0EE56E0150E56E0050E56EC8
:102500001AEC1FF0006EF3CF01F0040EE12602502A
:10251000030F056E000E0320066E000E0420076EEA
:10252000E56A0A0EE56E0150E56E0050E56EBDEC01
:102530001EF0086E040EE126300E082608C0E5FFE6
:1025400005C0E9FF06C0F3FF075036EC23F0E56A4B
:102550000A0EE56E0150E56E0050E56E1AEC1FF0B4
:10256000006EF3CF01F0040EE1260250020F056E5B
:10257000000E0320066E000E0420076EE56A0A0EA8
:10258000E56E0150E56E0050E56EBDEC1EF0086E84
:10259000040EE126300E082608C0E5FF05C0E9FF5D
:1025A00006C0F3FF075036EC23F0E56A0A0EE56E2D
:1025B0000150E56E0050E56E1AEC1FF0006E040E3F
:1025C000E1260250010F056E000E0320066E000E7C
:1025D0000420076E0050086E300E082608C0E5FF84
:1025E00005C0E9FF06C0F3FF075036EC23F0200ECC
:1025F000E56E02C0E9FF03C0F3FF045036EC23F0A0
:102600000250050F056E000E0320066E000E04201A
:10261000E56A05C0E9FF06C0F3FF36EC23F088D178
:10262000000E015C02E1640E005CD8A09BD0025059
:10263000040F056E000E0320066E000E0420076EC8
:10264000E56A0A0EE56E0150E56E0050E56EBDECE0
:102650001EF0086E040EE126300E082608C0E5FFC5
:1026600005C0E9FF06C0F3FF075036EC23F0E56A2A
:102670000A0EE56E0150E56E0050E56E1AEC1FF093
:10268000006EF3CF01F0040EE1260250030F056E39
:10269000000E0320066E000E0420076EE56A0A0E87
:1026A000E56E0150E56E0050E56EBDEC1EF0086E63
:1026B000040EE126300E082608C0E5FF05C0E9FF3C
:1026C00006C0F3FF075036EC23F0E56A0A0EE56E0C
:1026D0000150E56E0050E56E1AEC1FF0006E040E1E
:1026E000E1260250020F056E000E0320066E000E5A
:1026F0000420076E0050086E300E082608C0E5FF63
:1027000005C0E9FF06C0F3FF075036EC23F0025086
:10271000010F056E000E0320066E000E0420076EEA
:10272000200EE56E05C0E9FF06C0F3FF075036EC4A
:1027300023F0200EE56E02C0E9FF03C0F3FF045052
:1027400036EC23F00250050F056E000E0320066ED6
:10275000000E0420E56A05C0E9FF06C0F3FF36EC71
:1027600023F0E6D0000E015C02E10A0E005CD8A066
:102770007FD00250040F056E000E0320066E000E7F
:102780000420076EE56A0A0EE56E0150E56E005002
:10279000E56EBDEC1EF0086E040EE126300E082634
:1027A00008C0E5FF05C0E9FF06C0F3FF075036EC9F
:1027B00023F0E56A0A0EE56E0150E56E0050E56E05
:1027C0001AEC1FF0006E040EE1260250030F056E96
:1027D000000E0320066E000E0420076E0050086EE7
:1027E000300E082608C0E5FF05C0E9FF06C0F3FF6C
:1027F000075036EC23F00250020F056E000E032046
:10280000066E000E0420076E200EE56E05C0E9FF7F
:1028100006C0F3FF075036EC23F00250010F056E9F
:10282000000E0320066E000E0420076E200EE56EDB
:1028300005C0E9FF06C0F3FF075036EC23F0200E79
:10284000E56E02C0E9FF03C0F3FF045036EC23F04D
:102850000250050F056E000E0320066E000E0420C8
:10286000E56A05C0E9FF06C0F3FF36EC23F060D04F
:102870000250040F056E000E0320066E000E0420A9
:10288000076E300E002600C0E5FF05C0E9FF06C058
:10289000F3FF075036EC23F00250030F006E000EDA
:1028A0000320016E000E0420056E200EE56E00C0B0
:1028B000E9FF01C0F3FF055036EC23F00250020F90
:1028C000006E000E0320016E000E0420056E200E27
:1028D000E56E00C0E9FF01C0F3FF055036EC23F0C0
:1028E0000250010F006E000E0320016E000E042046
:1028F000056E200EE56E00C0E9FF01C0F3FF055034
:1029000036EC23F0200EE56E02C0E9FF03C0F3FFB2
:10291000045036EC23F0050E0226000E032204229A
:10292000E56A02C0E9FF03C0F3FF045036EC23F070
:10293000E4CF08F0E4CF07F0E4CF06F0E4CF05F0F1
:10294000E4CF04F0E4CF03F0E4CF02F0E4CF01F0F1
:10295000E4CF00F0E4CFD9FF1200006A0F01386B1A
:102960000F01396B0F013A6B0F013B6B0F013C6B91
:10297000C26AC16AC06A796A786A776A94949288EE
:102980008B949F0EE56EBCEC22F0E652F6EC22F042
:102990000F01096B050E0F010A6F110E0F010B6F6E
:1029A0000D0E0F010C6F050E0F010D6F140E0F01B0
:1029B0000E6F0E0E0F010F6F020E0F01106F0F0141
:1029C000116F0E0EE56E140EE56E020EE56E050E2D
:1029D000E56E0D0EE56E020EE56EE56A050EE56E1E
:1029E000110EE56E5CEC1AF0090EE126016A8BB45B
:1029F000012A0150D880E866D890016A013601505A
:102A0000010BE844E844F46E8B50FB0BF4108B6E22
:102A1000800EE56E0F0EE56E0F0EE56E800EE56E14
:102A20000F0EE56E0E0EE56E800EE56E0F0EE56E76
:102A3000110EE56E800EE56E0F0EE56E0D0EE56E65
:102A4000800EE56E0F0EE56E0C0EE56E800EE56EE7
:102A50000F0EE56E100EE56E800EE56E0F0EE56E44
:102A6000090EE56E800EE56E0F0EE56E0A0EE56E40
:102A7000800EE56E0F0EE56E0B0EE56E5CEC16F04B
:102A80001B0EE12609CF01F00150001801E106D12B
:102A900001C000F0800EE56E0F0EE56E000EE56ED3
:102AA0000F010B51E56E08EC18F0040EE12601CF82
:102AB00001F00150200A06E1300EE56E82EC01F0D3
:102AC000E65205D00150E56E82EC01F0E6520F01AE
:102AD0000251E56E82EC01F0E6523A0EE56E82ECB0
:102AE00001F0E652800EE56E0F0EE56E000EE56E0B
:102AF0000F010A51E56E08EC18F0040EE12601CF33
:102B000001F00150200A06E1300EE56E82EC01F082
:102B1000E65205D00150E56E82EC01F0E6520F015D
:102B20000251E56E82EC01F0E6523A0EE56E82EC5F
:102B300001F0E652800EE56E0F0EE56E000EE56EBA
:102B40000F010951E56E08EC18F0040EE12601CFE3
:102B500001F00150200A06E1300EE56E82EC01F032
:102B6000E65205D00150E56E82EC01F0E6520F010D
:102B70000251E56E82EC01F0E652200EE56E82EC29
:102B800001F0E652800EE56E0F0EE56E000EE56E6A
:102B90000F010C51E56E08EC18F0040EE12601CF90
:102BA00001F00150200A06E1300EE56E82EC01F0E2
:102BB000E65205D00150E56E82EC01F0E6520F01BD
:102BC0000251E56E82EC01F0E6522F0EE56E82ECCA
:102BD00001F0E652800EE56E0F0EE56E000EE56E1A
:102BE0000F010D51E56E08EC18F0040EE12601CF3F
:102BF00001F00150200A06E1300EE56E82EC01F092
:102C0000E65205D00150E56E82EC01F0E6520F016C
:102C10000251E56E82EC01F0E6522F0EE56E82EC79
:102C200001F0E652800EE56E0F0EE56E000EE56EC9
:102C30000F010E51E56E08EC18F0040EE1260F01AD
:102C40000151E56E82EC01F0E6520F010251E56E92
:102C500082EC01F0E652800EE56E0F0EE56E000E7E
:102C6000E56E0F010F51E56E08EC18F0040EE12639
:102C70000F010151E56E82EC01F0E6520F010251A5
:102C8000E56E82EC01F0E6520D0EE56E82EC01F08D
:102C9000E6520A0EE56E82EC01F0E652F00E0FEC01
:102CA00020F0F00E0FEC20F0A00E0FEC20F0A00EA4
:102CB0000FEC20F09BD61200D9CFE5FFE1CFD9FF72
:102CC00000C0E5FF01C0E5FF02C0E5FF03C0E5FF6E
:102CD00004C0E5FF05C0E5FF06C0E5FF07C0E5FF4E
:102CE00008C0E5FF09C0E5FF0AC0E5FF0BC0E5FF2E
:102CF0000CC0E5FF0DC0E5FF0EC0E5FF0FC0E5FF0E
:102D000010C0E5FF11C0E5FF12C0E5FF13C0E5FFED
:102D100014C0E5FF15C0E5FF16C0E5FF17C0E5FFCD
:102D200018C0E5FF19C0E5FF1AC0E5FF1BC0E5FFAD
:102D3000020EDBCF00F0030EDBCF01F0040EDBCF81
:102D400002F0050EDBCF03F0060EDBCF04F0070E1A
:102D5000DBCF05F0080EDBCF06F0090EDBCF07F066
:102D60000A0EDBCF08F00B0EDBCF09F00C0EDBCF29
:102D70000AF00D0EDBCF0BF00E0EDBCF0CF00F0EBA
:102D8000DBCF0DF0100EDBCF0EF0110EDBCF0FF00E
:102D9000120EDBCF10F0130EDBCF11F0140EDBCFD1
:102DA00012F0150EDBCF13F0160EDBCF14F0170E5A
:102DB000DBCF15F0180EDBCF16F0190EDBCF17F0B6
:102DC0001A0EDBCF18F01B0EDBCF19F01C0EDBCF79
:102DD0001AF02AEC23F0A20EE56EA2EC22F0E652E5
:102DE000020EE56EA2EC22F0E6521EEC23F0A30EDA
:102DF000E56EA2EC22F0E652010EE56E21EC22F027
:102E0000E652E56E86EC22F01B6EE6521BC0E5FF33
:102E100006C0E9FF07C0F3FF085036EC23F0010EAF
:102E2000E56E21EC22F0E652E56E86EC22F0066EAD
:102E3000E65206C0E5FF03C0E9FF04C0F3FF0550FA
:102E400036EC23F0010EE56E21EC22F0036EE65223
:102E50003F0E03160350E56E86EC22F0036EE65239
:102E600003C0E5FF00C0E9FF01C0F3FF025036ECEC
:102E700023F0010EE56E21EC22F0006EE652000E0A
:102E8000E56A21EC22F0016EE65212EC23F0E00E2E
:102E90000114026E0238E840070BE56E86EC22F062
:102EA000036EE65203C0E5FF09C0E9FF0AC0F3FF65
:102EB0000B5036EC23F01F0E0114E56E86EC22F069
:102EC000016EE65201C0E5FF0FC0E9FF10C0F3FF3D
:102ED000115036EC23F0C00E0014016E0144E8449A
:102EE000030BE56E86EC22F0016EE65201C0E5FFB1
:102EF00012C0E9FF13C0F3FF145036EC23F03F0E6D
:102F00000014E56E86EC22F0006EE65200C0E5FF8C
:102F10000CC0E9FF0DC0F3FF0E5036EC23F01A5041
:102F2000E56E1950E56E1850E56E1750E56E1650B7
:102F3000E56E1550E56E8AEC1DF0060EE12612C016
:102F4000E9FF13C0F3FF1450E5EC22F0126E18C035
:102F5000E9FF19C0F3FF1A50E5EC22F0006E030EF2
:102F6000001412181AE0002A00C0E5FF18C0E9FF9B
:102F700019C0F3FF1A5036EC23F015C0E9FF16C054
:102F8000F3FF1750E5EC22F0156E0050E56E15507A
:102F9000E56E9FEC21F0E652E652E4CF1BF0E4CF61
:102FA0001AF0E4CF19F0E4CF18F0E4CF17F0E4CF33
:102FB00016F0E4CF15F0E4CF14F0E4CF13F0E4CF33
:102FC00012F0E4CF11F0E4CF10F0E4CF0FF0E4CF33
:102FD0000EF0E4CF0DF0E4CF0CF0E4CF0BF0E4CF33
:102FE0000AF0E4CF09F0E4CF08F0E4CF07F0E4CF33
:102FF00006F0E4CF05F0E4CF04F0E4CF03F0E4CF33
:1030000002F0E4CF01F0E4CF00F0E4CFD9FF1200EA
:10301000D9CFE5FFE1CFD9FF00C0E5FF01C0E5FF53
:1030200002C0E5FF03C0E5FF04C0E5FF05C0E5FF02
:1030300006C0E5FF07C0E5FF020EDBCF00F0030E80
:10304000DBCF01F0040EDBCF02F0050EDBCF03F087
:10305000640E005CD8A069D00150020F046E000E0F
:103060000220056E000E0320066E0A0EE56E00C0FB
:10307000E5FFCFEC20F0076EE450E450300E072659
:1030800007C0E5FF04C0E9FF05C0F3FF065036ECBA
:1030900023F00A0EE56E00C0E5FF5AEC20F0006E4A
:1030A000E450E4500150010F046E000E0220056E42
:1030B000000E0320066E0A0EE56E00C0E5FFCFECA1
:1030C00020F0076EE450E450300E072607C0E5FFFD
:1030D00004C0E9FF05C0F3FF065036EC23F00A0EEA
:1030E000E56E00C0E5FF5AEC20F0006EE450E450BD
:1030F0000050046E300E042604C0E5FF01C0E9FF55
:1031000002C0F3FF035036EC23F00150030F046EAE
:10311000000E0220056E000E0320E56A04C0E9FFE0
:1031200005C0F3FF36EC23F095D00A0E005CD8A062
:1031300055D00150020F046E000E0220056E000EE5
:103140000320066E0A0EE56E00C0E5FFCFEC20F00E
:10315000076EE450E450300E072607C0E5FF04C0B8
:10316000E9FF05C0F3FF065036EC23F00A0EE56ECA
:1031700000C0E5FF5AEC20F0006EE450E45001502E
:10318000010F046E000E0220056E000E0320066E75
:103190000050076E300E072607C0E5FF04C0E9FFA8
:1031A00005C0F3FF065036EC23F0200EE56E01C09B
:1031B000E9FF02C0F3FF035036EC23F00150030F88
:1031C000046E000E0220056E000E0320E56A04C0A6
:1031D000E9FF05C0F3FF36EC23F03CD00150020FAD
:1031E000046E000E0220056E000E0320066E300EE7
:1031F000002600C0E5FF04C0E9FF05C0F3FF06504C
:1032000036EC23F00150010F006E000E0220046E18
:10321000000E0320056E200EE56E00C0E9FF04C01D
:10322000F3FF055036EC23F0200EE56E01C0E9FFF8
:1032300002C0F3FF035036EC23F0030E0126000E0C
:1032400002220322E56A01C0E9FF02C0F3FF035036
:1032500036EC23F0E4CF07F0E4CF06F0E4CF05F03E
:10326000E4CF04F0E4CF03F0E4CF02F0E4CF01F0C8
:10327000E4CF00F0E4CFD9FF1200D9CFE5FFE1CFD2
:10328000D9FF00C0E5FF01C0E5FF02C0E5FF03C0B4
:10329000E5FF04C0E5FF05C0E5FF06C0E5FF07C088
:1032A000E5FF08C0E5FF09C0E5FF0AC0E5FF020E23
:1032B000DBCF00F0030EDBCF01F0040EDBCF02F01A
:1032C000050EDBCF03F0060EDBCF04F0070EDBCFDD
:1032D00005F0080EDBCF06F003380F0BE56E49EC66
:1032E00022F0076EE65207C0E5FF04C0E9FF05C003
:1032F000F3FF065036EC23F00450010F076E000E6A
:103300000520086E000E0620096E0350E56E49EC9C
:1033100022F00A6EE6520AC0E5FF07C0E9FF08C0C6
:10332000F3FF095036EC23F00450020F076E000E35
:103330000520086E000E0620096E02380F0B0A6E7B
:103340000338F00B0A260A50E56E49EC22F00A6EAB
:10335000E6520AC0E5FF07C0E9FF08C0F3FF0950C5
:1033600036EC23F00450030F076E000E0520086EA4
:10337000000E0620096E0250E56E49EC22F00A6E3E
:10338000E6520AC0E5FF07C0E9FF08C0F3FF095095
:1033900036EC23F00450040F076E000E0520086E73
:1033A000000E0620096E01380F0B0A6E0238F00B72
:1033B0000A260A50E56E49EC22F00A6EE6520AC06F
:1033C000E5FF07C0E9FF08C0F3FF095036EC23F022
:1033D0000450050F076E000E0520086E000E062033
:1033E000096E0150E56E49EC22F00A6EE6520AC001
:1033F000E5FF07C0E9FF08C0F3FF095036EC23F0F2
:103400000450060F076E000E0520086E000E062001
:10341000096E00380F0B0A6E0138F00B0A260A50AD
:10342000E56E49EC22F00A6EE6520AC0E5FF07C0DD
:10343000E9FF08C0F3FF095036EC23F00450070FF2
:10344000076E000E0520086E000E0620096E005063
:10345000E56E49EC22F0006EE65200C0E5FF07C0C1
:10346000E9FF08C0F3FF095036EC23F0080E0426EC
:10347000000E05220622E56A04C0E9FF05C0F3FF3D
:10348000065036EC23F0E4CF0AF0E4CF09F0E4CFA5
:1034900008F0E4CF07F0E4CF06F0E4CF05F0E4CF86
:1034A00004F0E4CF03F0E4CF02F0E4CF01F0E4CF86
:1034B00000F0E4CFD9FF1200D9CFE5FFE1CFD9FF6B
:1034C00000C0E5FF01C0E5FF02C0E5FF03C0E5FF66
:1034D00004C0E5FF05C0E5FF06C0E5FF07C0E5FF46
:1034E00008C0E5FF09C0E5FF020EDBCF00F0030EC8
:1034F000DBCF01F0040EDBCF02F0050EDBCF03F0D3
:10350000060EDBCF04F0070EDBCF05F0080EDBCF95
:1035100006F0090EDBCF07F00A0EDBCF08F00650ED
:10352000E56E71EC21F0066EE6520640E840C00BF5
:10353000096E0450E56E71EC21F0E6520912035059
:10354000E56E71EC21F0036EE6520338E844E00BBF
:10355000046E0550E56E71EC21F0E65204122AEC7F
:1035600023F0A20EE56EA2EC22F0E652000EE56A10
:10357000A2EC22F0E652800EE56EA2EC22F0E652BA
:1035800012EC23F02AEC23F0A20EE56EA2EC22F05E
:10359000E652010EE56EA2EC22F0E652000EE56A5C
:1035A00071EC21F0E652E56EA2EC22F0E6520250F8
:1035B000E56E71EC21F0E652E56EA2EC22F0E652E7
:1035C0000150E56E71EC21F0E652E56EA2EC22F0BE
:1035D000E6520050E56E71EC21F0E652E56EA2EC89
:1035E00022F0E6520950E56EA2EC22F0E6520450B9
:1035F000E56EA2EC22F0E65212EC23F02AEC23F066
:10360000A20EE56EA2EC22F0E652000EE56AA2ECF4
:1036100022F0E652000EE56AA2EC22F0E65212EC2D
:1036200023F00850E56E0750E56E9FEC21F0E6525E
:10363000E652E4CF09F0E4CF08F0E4CF07F0E4CF9E
:1036400006F0E4CF05F0E4CF04F0E4CF03F0E4CFDC
:1036500002F0E4CF01F0E4CF00F0E4CFD9FF120094
:10366000D9CFE5FFE1CFD9FF00C0E5FF01C0E5FFFD
:1036700002C0E5FF03C0E5FF04C0E5FF05C0E5FFAC
:1036800006C0E5FF07C0E5FF08C0E5FF020EDBCF7F
:1036900000F0030EDBCF01F0040EDBCF02F0050ECD
:1036A000DBCF03F0060EDBCF04F001380F0BE56E25
:1036B00049EC22F0056EE65205C0E5FF02C0E9FFC5
:1036C00003C0F3FF045036EC23F00250010F056EE7
:1036D000000E0320066E000E0420076E0150E56EFA
:1036E00049EC22F0086EE65208C0E5FF05C0E9FF8C
:1036F00006C0F3FF075036EC23F00250020F056EB0
:10370000000E0320066E000E0420076E00380F0B1B
:10371000086E0138F00B08260850E56E49EC22F0DF
:10372000086EE65208C0E5FF05C0E9FF06C0F3FFDA
:10373000075036EC23F00250030F056E000E0320F5
:10374000066E000E0420076E0050E56E49EC22F074
:10375000006EE65200C0E5FF05C0E9FF06C0F3FFBA
:10376000075036EC23F0040E0226000E032204223A
:10377000E56A02C0E9FF03C0F3FF045036EC23F012
:10378000E4CF08F0E4CF07F0E4CF06F0E4CF05F093
:10379000E4CF04F0E4CF03F0E4CF02F0E4CF01F093
:1037A000E4CF00F0E4CFD9FF1200D9CFE5FFE1CF9D
:1037B000D9FF00C0E5FF01C0E5FF02C0E5FF03C07F
:1037C000E5FF04C0E5FF05C0E5FF06C0E5FF07C053
:1037D000E5FF08C0E5FF09C0E5FF0AC0E5FF020EEE
:1037E000DBCF00F0030EDBCF01F0040EDBCF02F0E5
:1037F000050EDBCF03F0060EDBCF04F0070EDBCFA8
:1038000005F0080EDBCF06F0090EDBCF07F0086AE3
:10381000045005100610071005E1E968F468F36824
:10382000E86847D0096A0750800BE8440A6E0A50DE
:103830001BE1045004260536063607360750035CA4
:1038400008E10650025C05E10550015C02E104500C
:10385000005C06E2D890073206320532043204D00A
:10386000092A09C008F0DFD70750035C08E10650B9
:10387000025C05E10550015C02E10450005C08E3D4
:103880000450005E0550015A0650025A0750035A70
:10389000D890073206320532043208C009F0080613
:1038A0000950E2E103C0E9FF02C0F4FF01C0F3FFE9
:1038B0000050E4CF0AF0E4CF09F0E4CF08F0E4CF01
:1038C00007F0E4CF06F0E4CF05F0E4CF04F0E4CF56
:1038D00003F0E4CF02F0E4CF01F0E4CF00F0E4CF56
:1038E000D9FF1200D9CFE5FFE1CFD9FF00C0E5FF36
:1038F00001C0E5FF02C0E5FF03C0E5FF04C0E5FF2E
:1039000005C0E5FF06C0E5FF07C0E5FF08C0E5FF0D
:1039100009C0E5FF0AC0E5FF0BC0E5FF0CC0E5FFED
:103920000DC0E5FF020EDBCF00F0030EDBCF01F090
:10393000040EDBCF02F0050EDBCF03F0060EDBCF6B
:1039400004F0070EDBCF05F0080EDBCF06F0090E02
:10395000DBCF07F0086A096A0A6A0B6A200E0C6E50
:103960000350800BE8440D6E0050002601360236ED
:1039700003360850082609360A360B360D50D8A4EF
:10398000088007500B5C08E106500A5C05E1055011
:10399000095C02E10450085C09E30450085E05502C
:1039A000095A06500A5A07500B5A00800C040D6E33
:1039B0000DC00CF00D50D4E103C0E9FF02C0F4FFCC
:1039C00001C0F3FF0050E4CF0DF0E4CF0CF0E4CFE2
:1039D0000BF0E4CF0AF0E4CF09F0E4CF08F0E4CF35
:1039E00007F0E4CF06F0E4CF05F0E4CF04F0E4CF35
:1039F00003F0E4CF02F0E4CF01F0E4CF00F0E4CF35
:103A0000D9FF1200D9CFE5FFE1CFD9FF00C0E5FF14
:103A100001C0E5FF02C0E5FF03C0E5FF04C0E5FF0C
:103A200005C0E5FF06C0E5FF020EDBCF00F0030E88
:103A3000DBCF01F0040EDBCF02F0050EDBCF03F08D
:103A4000060EDBCF04F0070EDBCF05F0080EDBCF50
:103A500006F00050010BF46E0F010751FE0BF4103D
:103A6000076F0150010BE844F46E0751FD0BF41091
:103A7000076F0250010BE844E844F46E0751FB0B5A
:103A8000F410076F0350010BE838E840F46E07515B
:103A9000F70BF410076F0450010BE838F46E075170
:103AA000EF0BF410076F0550010BE838E844F46E93
:103AB0000751DF0BF410076F0650010BE840E84098
:103AC000F46E0751BF0BF410076F2AEC23F0A20E1F
:103AD000E56EA2EC22F0E6520E0EE56EA2EC22F0AC
:103AE000E6520F010751E56EA2EC22F0E65212EC0D
:103AF00023F0E4CF06F0E4CF05F0E4CF04F0E4CF08
:103B000003F0E4CF02F0E4CF01F0E4CF00F0E4CF23
:103B1000D9FF1200D9CFE5FFE1CFD9FF00C0E5FF03
:103B200001C0E5FF02C0E5FF03C0E5FF04C0E5FFFB
:103B300005C0E5FF06C0E5FF020EDBCF00F0030E77
:103B4000DBCF01F0040EDBCF02F0050EDBCF03F07C
:103B5000060EDBCF04F0070EDBCF05F02AEC23F0D6
:103B6000A20EE56EA2EC22F0E652100EE56EA2EC7B
:103B700022F0E6521EEC23F0A30EE56EA2EC22F03A
:103B8000E652010EE56E21EC22F0066EE65206C00A
:103B9000E5FF00C0E9FF01C0F3FF025036EC23F05F
:103BA000000EE56A21EC22F0006EE65200C0E5FF4F
:103BB00003C0E9FF04C0F3FF055036EC23F012EC1C
:103BC00023F0E4CF06F0E4CF05F0E4CF04F0E4CF37
:103BD00003F0E4CF02F0E4CF01F0E4CF00F0E4CF53
:103BE000D9FF1200D9CFE5FFE1CFD9FF00C0E5FF33
:103BF000020EDBCF00F0000EE56AF7EC21F0E65292
:103C00000F01056F005002E1059524D00F010591C9
:103C1000059305850F01066B0050010BE838F46E23
:103C20000651EF0BF410066F00407F0B010BE838D4
:103C3000E844F46E0651DF0BF410066F0040E840D4
:103C40003F0B010BE840E840F46E0651BF0BF41047
:103C5000066F068F2AEC23F0A20EE56EA2EC22F08E
:103C6000E652000EE56AA2EC22F0E6520F01055181
:103C7000E56EA2EC22F0E65212EC23F0005014E0C4
:103C80002AEC23F0A20EE56EA2EC22F0E652080E1A
:103C9000E56EA2EC22F0E6520F010651E56EA2ECB1
:103CA00022F0E65212EC23F0E4CF00F0E4CFD9FF8B
:103CB0001200D9CFE5FFE1CFD9FF00C0E5FF01C079
:103CC000E5FF02C0E5FF03C0E5FF04C0E5FF05C056
:103CD000E5FF06C0E5FF020EDBCF00F0030EDBCFF1
:103CE00001F0040EDBCF02F0050EDBCF03F000384D
:103CF0000F0BE56E49EC22F0046EE65204C0E5FFBE
:103D000001C0E9FF02C0F3FF035036EC23F001507D
:103D1000010F046E000E0220056E000E0320066ED9
:103D20000050E56E49EC22F0006EE65200C0E5FF5F
:103D300004C0E9FF05C0F3FF065036EC23F0020E85
:103D40000126000E02220322E56A01C0E9FF02C03B
:103D5000F3FF035036EC23F0E4CF06F0E4CF05F098
:103D6000E4CF04F0E4CF03F0E4CF02F0E4CF01F0BD
:103D7000E4CF00F0E4CFD9FF1200D9CFE5FFE1CFC7
:103D8000D9FF00C0E5FF01C0E5FF02C0E5FF03C0A9
:103D9000E5FF04C0E5FF05C0E5FF06C0E5FF020E34
:103DA000DBCF00F0030EDBCF01F0040EDBCF02F01F
:103DB000050EDBCF03F0046A056A0350800BE8446C
:103DC000066E065011E10250022603360350015CD4
:103DD00002E10250005C04E2D8900332023204D0C7
:103DE000052A05C004F0E9D70350015C02E1025046
:103DF000005C04E30250005E0350015AD890033285
:103E0000023204C005F004060550EEE101C0F3FFE4
:103E10000050E4CF06F0E4CF05F0E4CF04F0E4CFA7
:103E200003F0E4CF02F0E4CF01F0E4CF00F0E4CF00
:103E3000D9FF1200D9CFE5FFE1CFD9FF00C0E5FFE0
:103E400001C0E5FF02C0E5FF03C0E5FF04C0E5FFD8
:103E500005C0E5FF06C0E5FF07C0E5FF020EDBCFAA
:103E600000F0030EDBCF01F0040EDBCF02F0050EF5
:103E7000DBCF03F0046A056A100E066E0150800B5A
:103E8000E844076E0050002601360450042605362B
:103E90000750D8A404800350055C02E10250045C82
:103EA00005E30250045E0350055A00800604076EC5
:103EB00007C006F00750E2E101C0F3FF0050E4CF75
:103EC00007F0E4CF06F0E4CF05F0E4CF04F0E4CF50
:103ED00003F0E4CF02F0E4CF01F0E4CF00F0E4CF50
:103EE000D9FF120011EEFFF021EEFFF0F86AA68E66
:103EF000A69C940EF66E460EF76E000EF86E090044
:103F0000F5CF05F00900F5CF06F034D00900F5CF64
:103F100000F00900F5CF01F00900F5CF02F009002B
:103F20000900F5CFE9FF0900F5CFEAFF0900090014
:103F30000900F5CF03F00900F5CF04F009000900EE
:103F4000F6CF07F0F7CF08F0F8CF09F000C0F6FF82
:103F500001C0F7FF02C0F8FF03D00900F5CFEEFF64
:103F60000306FBE20406F9E207C0F6FF08C0F7FF0C
:103F700009C0F8FF0506CAE20606C8E2ADEC14F077
:103F8000FFD7D9CFE5FFE1CFD9FF00C0E5FF01C0E2
:103F9000E5FF02C0E5FF020EDBCF00F0030EDBCF32
:103FA00001F0040EDBCF02F02AEC23F0A20EE56E46
:103FB000A2EC22F0E652090EE56EA2EC22F0E652E7
:103FC000000EE56A71EC21F0E652E56EA2EC22F0FB
:103FD000E6520250E56E71EC21F0E652E56EA2EC7D
:103FE00022F0E6520150E56E71EC21F0E652E56EEA
:103FF000A2EC22F0E6520050E56E71EC21F0E652A0
:10400000E56EA2EC22F0E65212EC23F0E4CF02F0CF
:10401000E4CF01F0E4CF00F0E4CFD9FF1200E806CE
:10402000E56E090E28EC20F0630E4EEC20F0E45013
:104030000EE000D0E56E090E28EC20F0630E4EEC89
:1040400020F000D000D00000E450E82EF3D712009A
:10405000E806E56E630E4EEC20F0E4500BE000D075
:10406000E56E630E4EEC20F000D000D00000E4506E
:10407000E82EF6D71200E806E56E090E4EEC20F0A9
:10408000E4500BE000D0E56E090E4EEC20F000D0BD
:10409000E450000000D0E82EF6D71200E806000039
:1040A000E85007E000D000D000D000D00000E82E9B
:1040B000FAD71200D9CFE5FFE1CFD9FF00C0E5FF65
:1040C00001C0E5FF02C0E5FF03C0E5FF04C0E5FF56
:1040D000020EDBCF00F0030EDBCF01F0026A080E08
:1040E000036E800E0014046ED8900036D89002360D
:1040F0000450D8A402800150025C03E30150025E28
:1041000000800304046E04C003F00450EAE1005090
:10411000E4CF04F0E4CF03F0E4CF02F0E4CF01F009
:10412000E4CF00F0E4CFD9FF1200D9CFE5FFE1CF13
:10413000D9FF00C0E5FF01C0E5FF02C0E5FF03C0F5
:10414000E5FF04C0E5FF020EDBCF00F0030EDBCF7E
:1041500001F0040EDBCF02F000C0E9FF01C0F3FF65
:104160000250E5EC22F0036E002A02E3014A022A23
:1041700003C004F0035006E00450E56E82EC01F049
:10418000E652EAD7E4CF04F0E4CF03F0E4CF02F044
:10419000E4CF01F0E4CF00F0E4CFD9FF1200D9CF93
:1041A000E5FFE1CFD9FF00C0E5FF01C0E5FF02C098
:1041B000E5FF03C0E5FF020EDBCF00F0030EDBCF0F
:1041C00001F0026A036A01BE0CD0D890013601509A
:1041D000005C03E2D890013204D0032A03C002F04D
:1041E000F2D70150005C02E30150005ED89001322A
:1041F00002C003F002060350F4E10050E4CF03F0E4
:10420000E4CF02F0E4CF01F0E4CF00F0E4CFD9FF37
:104210001200D9CFE5FFE1CFD9FF00C0E5FF01C013
:10422000E5FF02C0E5FF03C0E5FF020EDBCF00F0B3
:10423000030EDBCF01F0026A036A0150035C02E166
:104240000050025C13E200000000000000000000CB
:10425000000000000000000000000000000000005E
:10426000000000000000024A032AE7D7E4CF03F071
:10427000E4CF02F0E4CF01F0E4CF00F0E4CFD9FFC7
:104280001200D9CFE5FFE1CFD9FF00C0E5FF01C0A3
:10429000E5FF02C0E5FF020EDBCF00F0030EDBCF2F
:1042A00001F0040EDBCF02F09EAA0BD0AECFE5FFEB
:1042B00000C0E9FF01C0F3FF025036EC23F09E9AE4
:1042C00002D0E86A05D0ABA202D0AB98AB88010E51
:1042D000E4CF02F0E4CF01F0E4CF00F0E4CFD9FF67
:1042E0001200D9CFE5FFE1CFD9FF00C0E5FF01C043
:1042F000E5FF02C0E5FF020EDBCF00F00A0EE56E1F
:1043000000C0E5FF5AEC20F0016EE450E4500138A3
:10431000F00B026E0A0EE56E00C0E5FFCFEC20F058
:10432000006EE450E450005002120250E4CF02F05C
:10433000E4CF01F0E4CF00F0E4CFD9FF1200D9CFF1
:10434000E5FFE1CFD9FF00C0E5FF01C0E5FF020EA8
:10435000DBCF00F0030EDBCF01F02AEC23F0A20E3E
:10436000E56EA2EC22F0E652100EE56EA2EC22F011
:10437000E6520050E56EA2EC22F0E6520150E56EE6
:10438000A2EC22F0E65212EC23F0E4CF01F0E4CFED
:1043900000F0E4CFD9FF1200D9CFE5FFE1CFD9FF7C
:1043A00000C0E5FF01C0E5FF02C0E5FF03C0E5FF77
:1043B000020EDBCF00F0030EDBCF01F0026A036ACE
:1043C0000150035C02E10050025C06E2A00E3BECEF
:1043D00020F0024A032AF4D7E4CF03F0E4CF02F03E
:1043E000E4CF01F0E4CF00F0E4CFD9FF1200D9CF41
:1043F000E5FFE1CFD9FF00C0E5FF020EDBCF00F003
:104400002AEC23F0A20EE56EA2EC22F0E652005058
:10441000E56EA2EC22F0E6521EEC23F0A30EE56E50
:10442000A2EC22F0E652000EE56A21EC22F0006ECA
:10443000E65212EC23F00050E4CF00F0E4CFD9FFB5
:104440001200D9CFE5FFE1CFD9FF00C0E5FF020E92
:10445000DBCF00F0C586C7A0FED70050D880E86645
:10446000D890006A00360050010BE838E844F46E3A
:10447000C550DF0BF410C56EC588006AC5B8002AA8
:104480000050010AFAE0C950E4CF00F0E4CFD9FFB0
:104490001200D9CFE5FFE1CFD9FF00C0E5FF01C091
:1044A000E5FF020EDBCF00F00F0E0016300E0026E7
:1044B0003A0E005C05E30050016E070E0124006E09
:1044C0000050E4CF01F0E4CF00F0E4CFD9FF1200B8
:1044D000000EE56AF7EC21F0E6520F01086F089133
:1044E00008932AEC23F0A20EE56EA2EC22F0E6522D
:1044F000000EE56AA2EC22F0E6520F010851E56ECB
:10450000A2EC22F0E65212EC23F01200D9CFE5FF24
:10451000E1CFD9FF00C0E5FF01C0E5FF020EDBCF10
:1045200000F000380F0B0A0DF3CF01F00F0E00164C
:10453000005001260150E4CF01F0E4CF00F0E4CFB9
:10454000D9FF1200D9CFE5FFE1CFD9FF00C0E5FFC9
:10455000020EDBCF00F09E9600C0C9FF9EA6FED7DC
:10456000C5BC02D0010E03D0C69AC68AE86AE4CF61
:1045700000F0E4CFD9FF1200D9CFE5FFE1CFD9FF9A
:1045800000C0E5FF020EDBCF00F094869488280E71
:10459000C66E200EC56E00C0C8FFC76AE4CF00F02B
:1045A000E4CFD9FF1200F2CFEAFFF29EA69EA69CAE
:1045B000A684E9CFA9FFF3CFAAFFE4CFA8FF41EC7F
:1045C00023F0A694EABEF28E1200E8AE04D0F3CF38
:1045D000EAFFEE501200E8BC55EF23F0E9CFF6FFFA
:1045E000F3CFF7FFF86E0900F5501200AC6AAB6A22
:1045F000B886AC84400EAF6E030EB06E9D9A9D9847
:10460000AC8AAB8EAB881200F2CFF6FFF29EA69E6C
:10461000A69CE9CFA9FFF3CFAAFFA680A850F6BEBB
:10462000F28E120000C0E5FFC584006AC5B4002AFE
:104630000050010AFAE0E4CF00F0120000C0E5FFEC
:10464000C582006AC5B2002A0050010AFAE0E4CF30
:1046500000F0120000C0E5FFC580006AC5B0002A66
:104660000050010AFAE0E4CF00F01200E8AE05D0F5
:10467000F3CFEAFFE4CFEEFF1200E8BC57EF23F0E0
:104680001200550EA76EAA0EA76EA682A6B2FED77E
:10469000A94AAA2A010028030000040F0000010013
:1046A0000000ACA2FED7AB9E120004EF23F0D3EFC4
:0246B00022F0F6
:00000001FF
