:020000040000FA
:04030000F9EF01F020
:08030800ECEF02F00000000020
:06031000000000000000E7
:0803180007EF03F001000C03E4
:100320000000000F0000090000000F01386B0F01F2
:10033000396B0F013A6B0F013B6B0F013C6BC26ACB
:10034000C16AC06A796A786A776A949492888B9451
:10035000D06AD08EF28CF28E20EC03F00F01016B8C
:10036000026B036B046BABEC02F00F01056FF3CF74
:1003700006FFF4CF07FFE9CF08FF0F0101510F017E
:10038000055D006E0F0102510F010659016E0F014C
:1003900003510F010759026E0F0104510F01085953
:1003A000036E000E035C08E1000E025C05E1030E23
:1003B000015C02E1E80E005CD6E305CF01FF06CF49
:1003C00002FF07CF03FF08CF04FF006A8BB4002AA7
:1003D0000050D880E866D890006A00360050010BC3
:1003E000E844E844F46E8B50FB0BF4108B6EBBD7E3
:1003F000120011EEFFF021EEFFF0F86AA68EA69C27
:100400001C0EF66E030EF76E000EF86E0900F5CFA7
:1004100005F00900F5CF06F034D00900F5CF00F063
:100420000900F5CF01F00900F5CF02F0090009003D
:10043000F5CFE9FF0900F5CFEAFF0900090009003F
:10044000F5CF03F00900F5CF04F009000900F6CF5D
:1004500007F0F7CF08F0F8CF09F000C0F6FF01C0B1
:10046000F7FF02C0F8FF03D00900F5CFEEFF030647
:10047000FBE20406F9E207C0F6FF08C0F7FF09C077
:10048000F8FF0506CAE20606C8E295EC01F0FFD7C0
:10049000D9CFE5FFE1CFD9FF00C0E5FF01C0E5FFFF
:1004A00002C0E5FF03C0E5FF020EDBCF00F0030E44
:1004B000DBCF01F0026A036A0150035C02E10050E5
:1004C000025C13E2000000000000000000000000D9
:1004D000000000000000000000000000000000001C
:1004E00000000000024A032AE7D7E4CF03F0E4CF7C
:1004F00002F0E4CF01F0E4CF00F0E4CFD9FF120026
:10050000D9CFE5FFE1CFD9FF00C0E5FF01C0E5FF8E
:1005100002C0E5FF03C0E5FF020EDBCF00F0030ED3
:10052000DBCF01F0026A036A0150035C02E1005074
:10053000025C06E2A00ECDEC02F0024A032AF4D7D8
:10054000E4CF03F0E4CF02F0E4CF01F0E4CF00F019
:10055000E4CFD9FF120000C0E5FF01C0E5FF02C0F3
:10056000E5FF03C0E5FFF29A09CF00F00ACF01F0E2
:100570000BCF02F00CCF03F0F28A03C0E9FF02C0F8
:10058000F4FF01C0F3FF0050E4CF03F0E4CF02F02A
:10059000E4CF01F0E4CF00F01200E806E56E090EAA
:1005A000E0EC02F0E4500BE000D0E56E090EE0EC68
:1005B00002F000D0E450000000D0E82EF6D7120080
:1005C000E8060000E85007E000D000D000D000D0DE
:1005D0000000E82EFAD71200F3CFE5FFF4CFE5FFD5
:1005E000E9CFE5FFEACFE5FFFACFE5FFFBCFE5FF77
:1005F00033EC03F0E4CFFBFFE4CFFAFFE4CFEAFFF4
:10060000E4CFE9FFE4CFF4FFE4CFF3FF1100F3CF31
:10061000E5FFF4CFE5FFE9CFE5FFEACFE5FFFACF4D
:10062000E5FFFBCFE5FFE4CFFBFFE4CFFAFFE4CF2C
:10063000EAFFE4CFE9FFE4CFF4FFE4CFF3FF1100DA
:10064000D550F80B0509D56E060E0F010D6FD58C30
:10065000D59AD596F290F294F28A0F01096B0A6B43
:100660000B6B0C6B1200F2A40BD00DCFD6FF0F0159
:10067000092B05E30A2B03E30B3F01D00C2BF2946B
:02068000120066
:00000001FF
