:020000040000FA
:1003000058EF07F0D9CFE5FFE1CFD9FF00C0E5FFF7
:10031000020EDBCF00F00050E56EDFEC0AF0E65293
:10032000E4CF00F0E4CFD9FF1200D9CFE5FFE1CF51
:10033000D9FF00C0E5FF020EDBCF00F09692969445
:100340009398939A939C939E8D920050D8A49AD0A0
:10035000280E7CEC06F0030EE56EA7EC07F0E652E3
:10036000500E69EC06F0030EE56EA7EC07F0E652BE
:10037000A00EA8EC06F0030EE56EA7EC07F0E6521F
:10038000380EA8EC06F0000000000000000000009D
:10039000000000000000000000000000000000005D
:1003A000000000000000000000000000000000004D
:1003B000000000000000000000000000000000003D
:1003C000000000000000000000000000000000002D
:1003D000000000000000000000000000000000001D
:1003E000000000000000020EE56EA7EC07F0E652E8
:1003F000380EA8EC06F0000000000000000000002D
:1004000000000000000000000000000000000000EC
:1004100000000000000000000000000000000000DC
:1004200000000000000000000000000000000000CC
:1004300000000000000000000000000000000000BC
:1004400000000000000000000000000000000000AC
:10045000000000000000280EE56ECBEC0AF0E6522A
:100460001C0EE56ECBEC0AF0E6520C0EE56ECBEC02
:100470000AF0E652060EE56ECBEC0AF0E65213ECFB
:100480000BF0F6D00050010A01E0F2D0030EE56E49
:10049000A7EC07F0E652400EA8EC06F0020EE56E5F
:1004A000A7EC07F0E6520C0EE56EA7EC07F0E6525B
:1004B000400EA8EC06F0020EE56EA7EC07F0E6523F
:1004C0000C0EE56EA7EC07F0E652380EA8EC06F02D
:1004D000000000000000000000000000000000001C
:1004E000000000000000000000000000000000000C
:1004F00000000000000000000000000000000000FC
:1005000000000000000000000000000000000000EB
:1005100000000000000000000000000000000000DB
:1005200000000000000000000000000000000000CB
:10053000000EE56EA7EC07F0E6520C0EE56EA7EC98
:1005400007F0E652380EA8EC06F0000000000000AC
:10055000000000000000000000000000000000009B
:10056000000000000000000000000000000000008B
:10057000000000000000000000000000000000007B
:10058000000000000000000000000000000000006B
:10059000000000000000000000000000000000005B
:1005A00000000000000000000000000EE56EA7EC57
:1005B00007F0E652010EE56EA7EC07F0E652A00E3A
:1005C00095EC06F0500E95EC06F0400EA8EC06F007
:1005D000000EE56EA7EC07F0E652060EE56EA7ECFE
:1005E00007F0E652380EA8EC06F00000000000000C
:1005F00000000000000000000000000000000000FB
:1006000000000000000000000000000000000000EA
:1006100000000000000000000000000000000000DA
:1006200000000000000000000000000000000000CA
:1006300000000000000000000000000000000000BA
:1006400000000000000000000000000EE56EA7ECB6
:1006500007F0E652010EE56EA7EC07F0E652A00E99
:1006600095EC06F0500E95EC06F0400EA8EC06F066
:10067000E4CF00F0E4CFD9FF1200D9CFE5FFE1CFFE
:10068000D9FF00C0E5FF01C0E5FF02C0E5FF03C0E0
:10069000E5FF04C0E5FF05C0E5FF06C0E5FF07C0B4
:1006A000E5FF08C0E5FF09C0E5FF0AC0E5FF0BC094
:1006B000E5FF0CC0E5FF0DC0E5FF0EC0E5FF0FC074
:1006C000E5FF020EDBCF00F0030EDBCF01F0040EDE
:1006D000DBCF02F0050EDBCF03F0060EDBCF04F01C
:1006E000070EDBCF05F0080EDBCF06F0200E076EFD
:1006F000086A06C009F00A6A0B6A0C6AE56AE56ACC
:10070000E56A0950E56E0350E56E0250E56E015052
:10071000E56E0050E56EC6EC04F00D6E080EE126A5
:10072000300E0D263A0E0D5C05E30D500E6E270EB1
:100730000E240D6EFF0E07260822000E07240E6EF3
:100740000F0E08200F6E0EC0E9FF0FC0EAFF0DC0AC
:10075000EFFF0C50E56E0B50E56E0A50E56E095048
:10076000E56E0350E56E0250E56E0150E56E0050F7
:10077000E56E63EC05F0006EF3CF01F0F4CF02F00C
:10078000E9CF03F0080EE12600500110021003101B
:10079000D8A4AFD707C000F008C001F004C002F031
:1007A00005C003F000C004F001C005F0004A012AB2
:1007B000000E04260F0E052204C0E9FF05C0EAFF63
:1007C000EFCF04F002C0E9FF03C0EAFF04C0EFFF6F
:1007D000024A032A000E015C02E1200E005CE2E303
:1007E00002C0E9FF03C0EAFF000EEF6AE4CF0FF09A
:1007F000E4CF0EF0E4CF0DF0E4CF0CF0E4CF0BF03B
:10080000E4CF0AF0E4CF09F0E4CF08F0E4CF07F03A
:10081000E4CF06F0E4CF05F0E4CF04F0E4CF03F03A
:10082000E4CF02F0E4CF01F0E4CF00F0E4CFD9FF51
:1008300012000F01386B0F01396B0F013A6B0F017A
:100840003B6B0F013C6BC26AC16AC06A796A786A05
:10085000776A949492888B9492800F0138810F016B
:100860002851E56E0F012751E56E0F012651E56E07
:1008700039EC08F0030EE126000EE56A95EC01F074
:10088000E652000EE56AE56A77EC0AF0E652E652B7
:10089000000EE56E0C0EE56EAC0EE56EEDEC08F0AC
:1008A000030EE126830EE56EB1EC0AF0E65255EC3C
:1008B0000BF030EC0BF0006E0050FBE139EC0BF06C
:1008C000006E016AE56A010EE56E77EC0AF0E65209
:1008D000E6520A0EE56E0F0EE56E200EE56E015033
:1008E000E56E0050E56EB3EC08F0050EE126000E53
:1008F000015C02E10A0E005C0AE2000EE56E0C0EDD
:10090000E56EBA0EE56E21EC09F0030EE126000E4D
:10091000015C02E10A0E005C10E3000E015C02E1E2
:10092000640E005C0AE2000EE56E0C0EE56EBE0E73
:10093000E56E21EC09F0030EE126000E015C02E1F8
:10094000640E005C10E3030E015C02E1E80E005C43
:100950000AE2000EE56E0C0EE56EC20EE56E21ECAD
:1009600009F0030EE126800EE56E0F0EE56E200EF7
:10097000E56E21EC09F0030EE126E56EE80EE56E6A
:1009800087EC09F0E652E65292D71200D9CFE5FF84
:10099000E1CFD9FF00C0E5FF01C0E5FF02C0E5FFE0
:1009A00003C0E5FF04C0E5FF05C0E5FF06C0E5FFA5
:1009B00007C0E5FF08C0E5FF09C0E5FF0AC0E5FF85
:1009C000020EDBCF00F0030EDBCF01F0040EDBCF15
:1009D00002F0050EDBCF03F0060EDBCF04F0070EAE
:1009E000DBCF05F0080EDBCF06F0090EDBCF07F0FA
:1009F000086A045005100610071005E1E968F4685C
:100A0000F368E86847D0096A0750800BE8440A6E2B
:100A10000A501BE1045004260536063607360750F7
:100A2000035C08E10650025C05E10550015C02E14F
:100A30000450005C06E2D8900732063205320432D8
:100A400004D0092A09C008F0DFD70750035C08E189
:100A50000650025C05E10550015C02E10450005CB7
:100A600008E30450005E0550015A0650025A075030
:100A7000035AD890073206320532043208C009F012
:100A800008060950E2E103C0E9FF02C0F4FF01C01B
:100A9000F3FF0050E4CF0AF0E4CF09F0E4CF08F010
:100AA000E4CF07F0E4CF06F0E4CF05F0E4CF04F0A4
:100AB000E4CF03F0E4CF02F0E4CF01F0E4CF00F0A4
:100AC000E4CFD9FF1200D9CFE5FFE1CFD9FF00C0B5
:100AD000E5FF01C0E5FF02C0E5FF03C0E5FF04C07C
:100AE000E5FF05C0E5FF06C0E5FF07C0E5FF08C05C
:100AF000E5FF09C0E5FF0AC0E5FF0BC0E5FF0CC03C
:100B0000E5FF0DC0E5FF020EDBCF00F0030EDBCFEB
:100B100001F0040EDBCF02F0050EDBCF03F0060E72
:100B2000DBCF04F0070EDBCF05F0080EDBCF06F0BD
:100B3000090EDBCF07F0086A096A0A6A0B6A200E01
:100B40000C6E0350800BE8440D6E005000260136F9
:100B5000023603360850082609360A360B360D5081
:100B6000D8A4088007500B5C08E106500A5C05E138
:100B70000550095C02E10450085C09E30450085E7A
:100B80000550095A06500A5A07500B5A00800C04A7
:100B90000D6E0DC00CF00D50D4E103C0E9FF02C092
:100BA000F4FF01C0F3FF0050E4CF0DF0E4CF0CF0F0
:100BB000E4CF0BF0E4CF0AF0E4CF09F0E4CF08F083
:100BC000E4CF07F0E4CF06F0E4CF05F0E4CF04F083
:100BD000E4CF03F0E4CF02F0E4CF01F0E4CF00F083
:100BE000E4CFD9FF1200D9CFE5FFE1CFD9FF00C094
:100BF000E5FF01C0E5FF02C0E5FF03C0E5FF04C05B
:100C0000E5FF05C0E5FF06C0E5FF020EDBCF00F003
:100C1000030EDBCF01F0040EDBCF02F0050EDBCFBD
:100C200003F0060EDBCF04F0070EDBCF05F0080E55
:100C3000DBCF06F0D88003AED89015E306500A0A41
:100C400012E104C0E9FF05C0EAFF2D0EEF6E044A71
:100C5000052A031E021E011E006C05E1012A03E1A4
:100C6000022AD8B4032A0650E56E0550E56E0450FA
:100C7000E56E0350E56E0250E56E0150E56E0050E2
:100C8000E56E3DEC03F0070EE126E4CF06F0E4CF7D
:100C900005F0E4CF04F0E4CF03F0E4CF02F0E4CFBA
:100CA00001F0E4CF00F0E4CFD9FF1200416E616C97
:100CB0006F67205241303A000000202020002020A1
:100CC00000002000416E616C6F67205241303A0095
:100CD0000000E806E56E630EA8EC06F0E4500BE0B9
:100CE00000D0E56E630EA8EC06F000D000D0000046
:100CF000E450E82EF6D71200E806E56E090E69EC1E
:100D000006F0630EA8EC06F0E4500EE000D0E56EAD
:100D1000090E69EC06F0630EA8EC06F000D000D0D6
:100D20000000E450E82EF3D71200E806E56E090E45
:100D3000A8EC06F0E4500BE000D0E56E090EA8EC3C
:100D400006F000D0E450000000D0E82EF6D71200E4
:100D5000E8060000E85007E000D000D000D000D046
:100D60000000E82EFAD71200D9CFE5FFE1CFD9FF76
:100D700000C0E5FF01C0E5FF02C0E5FF03C0E5FFDD
:100D800004C0E5FF020EDBCF00F0030EDBCF01F065
:100D9000040EDBCF02F00050E56EB4EC09F00F0159
:100DA0002A6FE65241EC0BF0006A0150005C07E24A
:100DB0000250E56E82EC01F0E652002AF6D7006A96
:100DC00001C002F0036A02501008026E000E0356C2
:100DD00000C004F0800FF36E0350800FF35C02E15B
:100DE0000250045C07E2200EE56E82EC01F0E65250
:100DF000002AE6D7E4CF04F0E4CF03F0E4CF02F01A
:100E0000E4CF01F0E4CF00F0E4CFD9FF1200D9CF56
:100E1000E5FFE1CFD9FF00C0E5FF01C0E5FF020E0D
:100E2000DBCF00F000380F0B016EE56EA7EC07F08A
:100E3000E6520050E56EA7EC07F0E652380EA8EC3B
:100E400006F00000000000000000000000000000AC
:100E50000000000000000000000000000000000092
:100E60000000000000000000000000000000000082
:100E70000000000000000000000000000000000072
:100E80000000000000000000000000000000000062
:100E90000000000000000000000000000000000052
:100EA0000000E4CF01F0E4CF00F0E4CFD9FF12005E
:100EB00011EEFFF021EEFFF0F86AA68EA69C920ECE
:100EC000F66E160EF76E000EF86E0900F5CF05F0FF
:100ED0000900F5CF06F034D00900F5CF00F0090085
:100EE000F5CF01F00900F5CF02F009000900F5CFB8
:100EF000E9FF0900F5CFEAFF090009000900F5CF75
:100F000003F00900F5CF04F009000900F6CF07F05F
:100F1000F7CF08F0F8CF09F000C0F6FF01C0F7FFE7
:100F200002C0F8FF03D00900F5CFEEFF0306FBE295
:100F30000406F9E207C0F6FF08C0F7FF09C0F8FF92
:100F40000506CAE20606C8E219EC04F0FFD7D9CFBD
:100F5000E5FFE1CFD9FF00C0E5FF020EDBCF00F0D7
:100F600000500F01296F006A29B1002A0050010BBF
:100F7000E838F46E8A50EF0BF4108A6E006A29B3D9
:100F8000002A0050010BE838E844F46E8A50DF0B69
:100F9000F4108A6E006A29B5002A0050010BE8405F
:100FA000E840F46E8A50BF0BF4108A6E006A29B7CD
:100FB000002A0050010BE840F46E8A507F0BF410B9
:100FC0008A6E8D8400000000000000000000000018
:100FD000000000008D94E4CF00F0E4CFD9FF1200B0
:100FE000D9CFE5FFE1CFD9FF00C0E5FF01C0E5FFA4
:100FF00002C0E5FF03C0E5FF04C0E5FF05C0E5FF53
:1010000006C0E5FF020EDBCF00F0030EDBCF01F0E0
:10101000040EDBCF02F0050EDBCF03F0060EDBCFB4
:1010200004F0E86A01BEFF0E056E066E0450E56E20
:101030000350E56E0250E56E0650E56E0550E56E14
:101040000150E56E0050E56EF3EC05F0070EE12669
:10105000E4CF06F0E4CF05F0E4CF04F0E4CF03F0F2
:10106000E4CF02F0E4CF01F0E4CF00F0E4CFD9FF09
:101070001200D9CFE5FFE1CFD9FF00C0E5FF01C0E5
:10108000E5FF02C0E5FF03C0E5FF020EDBCF00F085
:10109000030EDBCF01F0040EDBCF02F0C26AC16A9F
:1010A000C06A7C0E0114C26E02C0C1FF800E001423
:1010B000026E00380F0B036E070E03160350021268
:1010C0000044E844FC0B036E380E03140210C06E9B
:1010D00001AE03D09E9C9D8CF28CC280E4CF03F0C5
:1010E000E4CF02F0E4CF01F0E4CF00F0E4CFD9FF89
:1010F0001200D9CFE5FFE1CFD9FF00C0E5FF01C065
:10110000E5FF02C0E5FF03C0E5FF020EDBCF00F004
:10111000030EDBCF01F00000000000000000000023
:1011200000000000000000000000000000000000BF
:101130000000000000000050FF0F026EFF0E0120B3
:10114000036E02C000F003C001F002500310E3E19F
:10115000E4CF03F0E4CF02F0E4CF01F0E4CF00F0FD
:10116000E4CFD9FF1200D9CFE5FFE1CFD9FF00C00E
:10117000E5FF01C0E5FF02C0E5FF03C0E5FF04C0D5
:10118000E5FF020EDBCF00F0030EDBCF01F0040E13
:10119000DBCF02F0050EDBCF03F0060EDBCF04F051
:1011A0000450E56E0350E56E0250E56EE56AE56AAF
:1011B0000150E56E0050E56E3DEC03F0070EE126B0
:1011C000E4CF04F0E4CF03F0E4CF02F0E4CF01F089
:1011D000E4CF00F0E4CFD9FF1200D9CFE5FFE1CF93
:1011E000D9FF00C0E5FF01C0E5FF02C0E5FF03C075
:1011F000E5FF020EDBCF00F0030EDBCF01F0040EA3
:10120000DBCF02F000C0E9FF01C0F3FF0250F3ECB6
:101210000AF0036E03500AE00350E56EDFEC0AF0BB
:10122000E652002AEFE3014A022AECD7E4CF03F0AA
:10123000E4CF02F0E4CF01F0E4CF00F0E4CFD9FF37
:101240001200D9CFE5FFE1CFD9FF00C0E5FF01C013
:10125000E5FF02C0E5FF03C0E5FF020EDBCF00F0B3
:10126000030EDBCF01F0040EDBCF02F000C0E9FF7C
:1012700001C0F3FF0250F3EC0AF0036E03500AE0E2
:101280000350E56EDFEC0AF0E652002AEFE3014A74
:10129000022AECD7E4CF03F0E4CF02F0E4CF01F070
:1012A000E4CF00F0E4CFD9FF1200D9CFE5FFE1CFC2
:1012B000D9FF00C0E5FF01C0E5FF02C0E5FF03C0A4
:1012C000E5FF020EDBCF00F0030EDBCF01F0040ED2
:1012D000DBCF02F0080E036E025002E00C0E036E2C
:1012E000005002E0032A032A015001E0032A0350C0
:1012F000E56ECBEC0AF0E652E4CF03F0E4CF02F067
:10130000E4CF01F0E4CF00F0E4CFD9FF1200D9CF51
:10131000E5FFE1CFD9FF00C0E5FF01C0E5FF02C056
:10132000E5FF03C0E5FF020EDBCF00F0030EDBCFCD
:1013300001F0A00E95EC06F00050FF0F026EFF0EBC
:101340000120036E02C000F003C001F00250031040
:10135000F0E1E4CF03F0E4CF02F0E4CF01F0E4CF1A
:1013600000F0E4CFD9FF1200D9CFE5FFE1CFD9FFDC
:1013700000C0E5FF020EDBCF00F0005C13E200507E
:1013800002E1E86A10D00050010A02E1400E0BD0E1
:101390000050020A02E1100E06D00050030A02E1DA
:1013A000500E01D0E86AE4CF00F0E4CFD9FF12007C
:1013B000D9CFE5FFE1CFD9FF00C0E5FF020EDBCFBB
:1013C00000F00050E56EB4EC09F00F012A6FE65210
:1013D00041EC0BF0006A200EE56E82EC01F0E65263
:1013E000002A100E005CF7E341EC0BF0E4CF00F0B4
:1013F000E4CFD9FF1200D9CFE5FFE1CFD9FF00C07C
:10140000E5FF01C0E5FF020EDBCF00F000500BE06E
:10141000016A0050015C07E2140EE56ECBEC0AF0A5
:10142000E652012AF6D7E4CF01F0E4CF00F0E4CF92
:10143000D9FF1200D9CFE5FFE1CFD9FF00C0E5FF0A
:1014400001C0E5FF020EDBCF00F000500BE0016AA7
:101450000050015C07E2100EE56ECBEC0AF0E6529C
:10146000012AF6D7E4CF01F0E4CF00F0E4CFD9FFB2
:101470001200D9CFE5FFE1CFD9FF00C0E5FF01C0E1
:10148000E5FF020EDBCF00F000500BE0016A0050D8
:10149000015C07E21C0EE56ECBEC0AF0E652012A75
:1014A000F6D7E4CF01F0E4CF00F0E4CFD9FF12008B
:1014B000D9CFE5FFE1CFD9FF00C0E5FF01C0E5FFCF
:1014C000020EDBCF00F000500BE0016A0050015C1F
:1014D00007E2180EE56ECBEC0AF0E652012AF6D7C9
:1014E000E4CF01F0E4CF00F0E4CFD9FF1200D9CF70
:1014F000E5FFE1CFD9FF00C0E5FF01C0E5FF020E27
:10150000DBCF00F0030EDBCF01F00050E56EB4EC52
:1015100009F0E65201240F012A6F41EC0BF0E4CFF1
:1015200001F0E4CF00F0E4CFD9FF1200D9CFE5FFFE
:10153000E1CFD9FF00C0E5FF01C0E5FF020EDBCF20
:1015400000F0830EC214016E7C0E001600500110D4
:10155000C26EC282E4CF01F0E4CF00F0E4CFD9FF45
:101560001200D9CFE5FFE1CFD9FF00C0E5FF01C0F0
:10157000E5FF020EDBCF00F0830EC214016E7C0E7D
:10158000001600500110C26EE4CF01F0E4CF00F06D
:10159000E4CFD9FF1200D9CFE5FFE1CFD9FF00C0DA
:1015A000E5FF020EDBCF00F08D920050E56E07ECF8
:1015B00007F0E652E4CF00F0E4CFD9FF1200D9CF14
:1015C000E5FFE1CFD9FF00C0E5FF020EDBCF00F061
:1015D0008D820050E56E07EC07F0E652E4CF00F094
:1015E000E4CFD9FF1200E8AE04D0F3CFEAFFEE500B
:1015F0001200E8BC57EF0BF0E9CFF6FFF3CFF7FF8F
:10160000F86E0900F5501200020EE56ECBEC0AF000
:10161000E652A00E95EC06F0500E95EC06F0300E5A
:1016200095EC06F01200010EE56ECBEC0AF0E652E6
:10163000A00E95EC06F0500E95EC06F0300E95ECF1
:1016400006F01200F2CFF6FFF29EA69EA69CE9CF0E
:10165000A9FFF3CFAAFFA680A850F6BEF28E120013
:1016600000C0E5FF006AC2B2002A0050E4CF00F0DB
:10167000120000C0E5FFC3CF00F00050E4CF00F03F
:101680001200800E0F012A11E56ECBEC0AF0E65233
:1016900012000100A6160000250F00000400000043
:1016A000C2909D9C120000EF0370C282120022EFD4
:0216B0000BF03D
:00000001FF
