:020000040000FA
:10030000C0EF21F0D9CFE5FFE1CFD9FF00C0E5FF75
:10031000020EDBCF00F00050E56E90EC26F0E652C6
:10032000E4CF00F0E4CFD9FF1200D9CFE5FFE1CF51
:10033000D9FF00C0E5FF01C0E5FF02C0E5FF03C033
:10034000E5FF04C0E5FF05C0E5FF06C0E5FF07C007
:10035000E5FF08C0E5FF09C0E5FF0AC0E5FF020EA2
:10036000DBCF00F0030EDBCF01F0040EDBCF02F099
:10037000050EDBCF03F0060EDBCF04F0070EDBCF5C
:1003800005F0080EDBCF06F03B0E035C08E19A0E89
:10039000025C05E1CA0E015C02E1000E005CD8A01F
:1003A00018EF04F00450090F076E000E0520086EC8
:1003B000000E0620096EE56AE56AE56A0A0EE56E3A
:1003C0000350E56E0250E56E0150E56E0050E56E9B
:1003D0007FEC1DF00A6E080EE126300E0A260AC0D8
:1003E000E5FF07C0E9FF08C0F3FF095017EC27F04D
:1003F000E56AE56AE56A0A0EE56E0350E56E0250AD
:10040000E56E0150E56E0050E56E1CEC1EF0006ECE
:10041000F3CF01F0F4CF02F0E9CF03F0080EE126AC
:100420000450080F076E000E0520086E000E06200F
:10043000096EE56AE56AE56A0A0EE56E0350E56E47
:100440000250E56E0150E56E0050E56E7FEC1DF048
:100450000A6E080EE126300E0A260AC0E5FF07C024
:10046000E9FF08C0F3FF095017EC27F0E56AE56AD9
:10047000E56A0A0EE56E0350E56E0250E56E015026
:10048000E56E0050E56E1CEC1EF0006EF3CF01F03F
:10049000F4CF02F0E9CF03F0080EE1260450070F75
:1004A000076E000E0520086E000E0620096EE56A34
:1004B000E56AE56A0A0EE56E0350E56E0250E56EE8
:1004C0000150E56E0050E56E7FEC1DF00A6E080EDF
:1004D000E126300E0A260AC0E5FF07C0E9FF08C082
:1004E000F3FF095017EC27F0E56AE56AE56A0A0EA2
:1004F000E56E0350E56E0250E56E0150E56E00506A
:10050000E56E1CEC1EF0006EF3CF01F0F4CF02F0AC
:10051000E9CF03F0080EE1260450060F076E000E27
:100520000520086E000E0620096EE56AE56AE56A98
:100530000A0EE56E0350E56E0250E56E0150E56E61
:100540000050E56E7FEC1DF00A6E080EE126300EBD
:100550000A260AC0E5FF07C0E9FF08C0F3FF0950FB
:1005600017EC27F0E56AE56AE56A0A0EE56E0350C6
:10057000E56E0250E56E0150E56E0050E56E1CEC34
:100580001EF0006EF3CF01F0F4CF02F0E9CF03F0DC
:10059000080EE1260450050F076E000E0520086EB8
:1005A000000E0620096EE56AE56AE56A0A0EE56E48
:1005B0000350E56E0250E56E0150E56E0050E56EA9
:1005C0007FEC1DF00A6E080EE126300E0A260AC0E6
:1005D000E5FF07C0E9FF08C0F3FF095017EC27F05B
:1005E000E56AE56AE56A0A0EE56E0350E56E0250BB
:1005F000E56E0150E56E0050E56E1CEC1EF0006EDD
:10060000F3CF01F0F4CF02F0E9CF03F0080EE126BA
:100610000450040F076E000E0520086E000E062021
:10062000096EE56AE56AE56A0A0EE56E0350E56E55
:100630000250E56E0150E56E0050E56E7FEC1DF056
:100640000A6E080EE126300E0A260AC0E5FF07C032
:10065000E9FF08C0F3FF095017EC27F0E56AE56AE7
:10066000E56A0A0EE56E0350E56E0250E56E015034
:10067000E56E0050E56E1CEC1EF0006EF3CF01F04D
:10068000F4CF02F0E9CF03F0080EE1260450030F87
:10069000076E000E0520086E000E0620096EE56A42
:1006A000E56AE56A0A0EE56E0350E56E0250E56EF6
:1006B0000150E56E0050E56E7FEC1DF00A6E080EED
:1006C000E126300E0A260AC0E5FF07C0E9FF08C090
:1006D000F3FF095017EC27F0E56AE56AE56A0A0EB0
:1006E000E56E0350E56E0250E56E0150E56E005078
:1006F000E56E1CEC1EF0006EF3CF01F0F4CF02F0BB
:10070000E9CF03F0080EE1260450020F076E000E39
:100710000520086E000E0620096EE56AE56AE56AA6
:100720000A0EE56E0350E56E0250E56E0150E56E6F
:100730000050E56E7FEC1DF00A6E080EE126300ECB
:100740000A260AC0E5FF07C0E9FF08C0F3FF095009
:1007500017EC27F0E56AE56AE56A0A0EE56E0350D4
:10076000E56E0250E56E0150E56E0050E56E1CEC42
:100770001EF0006EF3CF01F0F4CF02F0E9CF03F0EA
:10078000080EE1260450010F076E000E0520086ECA
:10079000000E0620096EE56AE56AE56A0A0EE56E56
:1007A0000350E56E0250E56E0150E56E0050E56EB7
:1007B0007FEC1DF00A6E080EE126300E0A260AC0F4
:1007C000E5FF07C0E9FF08C0F3FF095017EC27F069
:1007D000E56AE56AE56A0A0EE56E0350E56E0250C9
:1007E000E56E0150E56E0050E56E1CEC1EF0006EEB
:1007F000080EE1260050076E300E072607C0E5FF01
:1008000004C0E9FF05C0F3FF065017EC27F00450C1
:100810000A0F076E000E0520086E000E0620E56A1E
:1008200007C0E9FF08C0F3FF17EC27F039EF11F01C
:10083000050E035C08E1F50E025C05E1E10E015CCA
:1008400002E1000E005CD8A040EF06F00450090F52
:10085000076E000E0520086E000E0620096EE56A80
:10086000E56AE56A0A0EE56E0350E56E0250E56E34
:100870000150E56E0050E56E7FEC1DF00A6E080E2B
:10088000E126300E0A260AC0E5FF07C0E9FF08C0CE
:10089000F3FF095017EC27F0E56AE56AE56A0A0EEE
:1008A000E56E0350E56E0250E56E0150E56E0050B6
:1008B000E56E1CEC1EF0006EF3CF01F0F4CF02F0F9
:1008C000E9CF03F0080EE1260450080F076E000E72
:1008D0000520086E000E0620096EE56AE56AE56AE5
:1008E0000A0EE56E0350E56E0250E56E0150E56EAE
:1008F0000050E56E7FEC1DF00A6E080EE126300E0A
:100900000A260AC0E5FF07C0E9FF08C0F3FF095047
:1009100017EC27F0E56AE56AE56A0A0EE56E035012
:10092000E56E0250E56E0150E56E0050E56E1CEC80
:100930001EF0006EF3CF01F0F4CF02F0E9CF03F028
:10094000080EE1260450070F076E000E0520086E02
:10095000000E0620096EE56AE56AE56A0A0EE56E94
:100960000350E56E0250E56E0150E56E0050E56EF5
:100970007FEC1DF00A6E080EE126300E0A260AC032
:10098000E5FF07C0E9FF08C0F3FF095017EC27F0A7
:10099000E56AE56AE56A0A0EE56E0350E56E025007
:1009A000E56E0150E56E0050E56E1CEC1EF0006E29
:1009B000F3CF01F0F4CF02F0E9CF03F0080EE12607
:1009C0000450060F076E000E0520086E000E06206C
:1009D000096EE56AE56AE56A0A0EE56E0350E56EA2
:1009E0000250E56E0150E56E0050E56E7FEC1DF0A3
:1009F0000A6E080EE126300E0A260AC0E5FF07C07F
:100A0000E9FF08C0F3FF095017EC27F0E56AE56A33
:100A1000E56A0A0EE56E0350E56E0250E56E015080
:100A2000E56E0050E56E1CEC1EF0006EF3CF01F099
:100A3000F4CF02F0E9CF03F0080EE1260450050FD1
:100A4000076E000E0520086E000E0620096EE56A8E
:100A5000E56AE56A0A0EE56E0350E56E0250E56E42
:100A60000150E56E0050E56E7FEC1DF00A6E080E39
:100A7000E126300E0A260AC0E5FF07C0E9FF08C0DC
:100A8000F3FF095017EC27F0E56AE56AE56A0A0EFC
:100A9000E56E0350E56E0250E56E0150E56E0050C4
:100AA000E56E1CEC1EF0006EF3CF01F0F4CF02F007
:100AB000E9CF03F0080EE1260450040F076E000E84
:100AC0000520086E000E0620096EE56AE56AE56AF3
:100AD0000A0EE56E0350E56E0250E56E0150E56EBC
:100AE0000050E56E7FEC1DF00A6E080EE126300E18
:100AF0000A260AC0E5FF07C0E9FF08C0F3FF095056
:100B000017EC27F0E56AE56AE56A0A0EE56E035020
:100B1000E56E0250E56E0150E56E0050E56E1CEC8E
:100B20001EF0006EF3CF01F0F4CF02F0E9CF03F036
:100B3000080EE1260450030F076E000E0520086E14
:100B4000000E0620096EE56AE56AE56A0A0EE56EA2
:100B50000350E56E0250E56E0150E56E0050E56E03
:100B60007FEC1DF00A6E080EE126300E0A260AC040
:100B7000E5FF07C0E9FF08C0F3FF095017EC27F0B5
:100B8000E56AE56AE56A0A0EE56E0350E56E025015
:100B9000E56E0150E56E0050E56E1CEC1EF0006E37
:100BA000F3CF01F0F4CF02F0E9CF03F0080EE12615
:100BB0000450020F076E000E0520086E000E06207E
:100BC000096EE56AE56AE56A0A0EE56E0350E56EB0
:100BD0000250E56E0150E56E0050E56E7FEC1DF0B1
:100BE0000A6E080EE126300E0A260AC0E5FF07C08D
:100BF000E9FF08C0F3FF095017EC27F0E56AE56A42
:100C0000E56A0A0EE56E0350E56E0250E56E01508E
:100C1000E56E0050E56E1CEC1EF0006E080EE1263D
:100C20000450010F076E000E0520086E000E06200E
:100C3000096E00500A6E300E0A260AC0E5FF07C092
:100C4000E9FF08C0F3FF095017EC27F0200EE56E0E
:100C500004C0E9FF05C0F3FF065017EC27F004506D
:100C60000A0F076E000E0520086E000E0620E56ACA
:100C700007C0E9FF08C0F3FF17EC27F039EF11F0C8
:100C8000000E035C08E1980E025C05E1960E015C23
:100C900002E1800E005CD8A0EED10450090F076E6F
:100CA000000E0520086E000E0620096EE56AE56A52
:100CB000E56A0A0EE56E0350E56E0250E56E0150DE
:100CC000E56E0050E56E7FEC1DF00A6E080EE12621
:100CD000300E0A260AC0E5FF07C0E9FF08C0F3FF8F
:100CE000095017EC27F0E56AE56AE56A0A0EE56E39
:100CF0000350E56E0250E56E0150E56E0050E56E62
:100D00001CEC1EF0006EF3CF01F0F4CF02F0E9CF3F
:100D100003F0080EE1260450080F076E000E0520B0
:100D2000086E000E0620096EE56AE56AE56A0A0E9D
:100D3000E56E0350E56E0250E56E0150E56E005021
:100D4000E56E7FEC1DF00A6E080EE126300E0A26D5
:100D50000AC0E5FF07C0E9FF08C0F3FF095017EC20
:100D600027F0E56AE56AE56A0A0EE56E0350E56E6E
:100D70000250E56E0150E56E0050E56E1CEC1EF071
:100D8000006EF3CF01F0F4CF02F0E9CF03F0080ECC
:100D9000E1260450070F076E000E0520086E000EB6
:100DA0000620096EE56AE56AE56A0A0EE56E0350FB
:100DB000E56E0250E56E0150E56E0050E56E7FEC89
:100DC0001DF00A6E080EE126300E0A260AC0E5FF65
:100DD00007C0E9FF08C0F3FF095017EC27F0E56AE8
:100DE000E56AE56A0A0EE56E0350E56E0250E56EAF
:100DF0000150E56E0050E56E1CEC1EF0006EF3CF66
:100E000001F0F4CF02F0E9CF03F0080EE126045020
:100E1000060F076E000E0520086E000E0620096EF4
:100E2000E56AE56AE56A0A0EE56E0350E56E025072
:100E3000E56E0150E56E0050E56E7FEC1DF00A6E28
:100E4000080EE126300E0A260AC0E5FF07C0E9FFBA
:100E500008C0F3FF095017EC27F0E56AE56AE56A78
:100E60000A0EE56E0350E56E0250E56E0150E56E28
:100E70000050E56E1CEC1EF0006EF3CF01F0F4CFD5
:100E800002F0E9CF03F0080EE1260450050F076ECB
:100E9000000E0520086E000E0620096EE56AE56A60
:100EA000E56A0A0EE56E0350E56E0250E56E0150EC
:100EB000E56E0050E56E7FEC1DF00A6E080EE1262F
:100EC000300E0A260AC0E5FF07C0E9FF08C0F3FF9D
:100ED000095017EC27F0E56AE56AE56A0A0EE56E47
:100EE0000350E56E0250E56E0150E56E0050E56E70
:100EF0001CEC1EF0006EF3CF01F0F4CF02F0E9CF4E
:100F000003F0080EE1260450040F076E000E0520C2
:100F1000086E000E0620096EE56AE56AE56A0A0EAB
:100F2000E56E0350E56E0250E56E0150E56E00502F
:100F3000E56E7FEC1DF00A6E080EE126300E0A26E3
:100F40000AC0E5FF07C0E9FF08C0F3FF095017EC2E
:100F500027F0E56AE56AE56A0A0EE56E0350E56E7C
:100F60000250E56E0150E56E0050E56E1CEC1EF07F
:100F7000006EF3CF01F0F4CF02F0E9CF03F0080EDA
:100F8000E1260450030F076E000E0520086E000EC8
:100F90000620096EE56AE56AE56A0A0EE56E035009
:100FA000E56E0250E56E0150E56E0050E56E7FEC97
:100FB0001DF00A6E080EE126300E0A260AC0E5FF73
:100FC00007C0E9FF08C0F3FF095017EC27F0E56AF6
:100FD000E56AE56A0A0EE56E0350E56E0250E56EBD
:100FE0000150E56E0050E56E1CEC1EF0006E080E20
:100FF000E1260450020F076E000E0520086E000E59
:101000000620096E00500A6E300E0A260AC0E5FF5F
:1010100007C0E9FF08C0F3FF095017EC27F00450A0
:10102000010F076E000E0520086E000E0620096EE7
:10103000200EE56E07C0E9FF08C0F3FF095017EC6A
:1010400027F0200EE56E04C0E9FF05C0F3FF06504F
:1010500017EC27F004500A0F076E000E0520086EEB
:10106000000E0620E56A07C0E9FF08C0F3FF17EC91
:1010700027F039EF11F0000E035C08E10F0E025C5F
:1010800005E1420E015C02E1400E005CD8A0C2D135
:101090000450090F076E000E0520086E000E062092
:1010A000096EE56AE56AE56A0A0EE56E0350E56ECB
:1010B0000250E56E0150E56E0050E56E7FEC1DF0CC
:1010C0000A6E080EE126300E0A260AC0E5FF07C0A8
:1010D000E9FF08C0F3FF095017EC27F0E56AE56A5D
:1010E000E56A0A0EE56E0350E56E0250E56E0150AA
:1010F000E56E0050E56E1CEC1EF0006EF3CF01F0C3
:10110000F4CF02F0E9CF03F0080EE1260450080FF7
:10111000076E000E0520086E000E0620096EE56AB7
:10112000E56AE56A0A0EE56E0350E56E0250E56E6B
:101130000150E56E0050E56E7FEC1DF00A6E080E62
:10114000E126300E0A260AC0E5FF07C0E9FF08C005
:10115000F3FF095017EC27F0E56AE56AE56A0A0E25
:10116000E56E0350E56E0250E56E0150E56E0050ED
:10117000E56E1CEC1EF0006EF3CF01F0F4CF02F030
:10118000E9CF03F0080EE1260450070F076E000EAA
:101190000520086E000E0620096EE56AE56AE56A1C
:1011A0000A0EE56E0350E56E0250E56E0150E56EE5
:1011B0000050E56E7FEC1DF00A6E080EE126300E41
:1011C0000A260AC0E5FF07C0E9FF08C0F3FF09507F
:1011D00017EC27F0E56AE56AE56A0A0EE56E03504A
:1011E000E56E0250E56E0150E56E0050E56E1CECB8
:1011F0001EF0006EF3CF01F0F4CF02F0E9CF03F060
:10120000080EE1260450060F076E000E0520086E3A
:10121000000E0620096EE56AE56AE56A0A0EE56ECB
:101220000350E56E0250E56E0150E56E0050E56E2C
:101230007FEC1DF00A6E080EE126300E0A260AC069
:10124000E5FF07C0E9FF08C0F3FF095017EC27F0DE
:10125000E56AE56AE56A0A0EE56E0350E56E02503E
:10126000E56E0150E56E0050E56E1CEC1EF0006E60
:10127000F3CF01F0F4CF02F0E9CF03F0080EE1263E
:101280000450050F076E000E0520086E000E0620A4
:10129000096EE56AE56AE56A0A0EE56E0350E56ED9
:1012A0000250E56E0150E56E0050E56E7FEC1DF0DA
:1012B0000A6E080EE126300E0A260AC0E5FF07C0B6
:1012C000E9FF08C0F3FF095017EC27F0E56AE56A6B
:1012D000E56A0A0EE56E0350E56E0250E56E0150B8
:1012E000E56E0050E56E1CEC1EF0006EF3CF01F0D1
:1012F000F4CF02F0E9CF03F0080EE1260450040F0A
:10130000076E000E0520086E000E0620096EE56AC5
:10131000E56AE56A0A0EE56E0350E56E0250E56E79
:101320000150E56E0050E56E7FEC1DF00A6E080E70
:10133000E126300E0A260AC0E5FF07C0E9FF08C013
:10134000F3FF095017EC27F0E56AE56AE56A0A0E33
:10135000E56E0350E56E0250E56E0150E56E0050FB
:10136000E56E1CEC1EF0006E080EE1260450030F23
:10137000076E000E0520086E000E0620096E005054
:101380000A6E300E0A260AC0E5FF07C0E9FF08C052
:10139000F3FF095017EC27F00450020F076E000E00
:1013A0000520086E000E0620096E200EE56E07C0AF
:1013B000E9FF08C0F3FF095017EC27F00450010FB4
:1013C000076E000E0520086E000E0620096E200E26
:1013D000E56E07C0E9FF08C0F3FF095017EC27F0DE
:1013E000200EE56E04C0E9FF05C0F3FF065017ECC0
:1013F00027F004500A0F076E000E0520086E000E3D
:101400000620E56A07C0E9FF08C0F3FF17EC27F0E4
:1014100039EF11F0000E035C08E1010E025C05E1FA
:10142000860E015C02E1A00E005CD8A096D10450AB
:10143000090F076E000E0520086E000E0620096ECB
:10144000E56AE56AE56A0A0EE56E0350E56E02504C
:10145000E56E0150E56E0050E56E7FEC1DF00A6E02
:10146000080EE126300E0A260AC0E5FF07C0E9FF94
:1014700008C0F3FF095017EC27F0E56AE56AE56A52
:101480000A0EE56E0350E56E0250E56E0150E56E02
:101490000050E56E1CEC1EF0006EF3CF01F0F4CFAF
:1014A00002F0E9CF03F0080EE1260450080F076EA2
:1014B000000E0520086E000E0620096EE56AE56A3A
:1014C000E56A0A0EE56E0350E56E0250E56E0150C6
:1014D000E56E0050E56E7FEC1DF00A6E080EE12609
:1014E000300E0A260AC0E5FF07C0E9FF08C0F3FF77
:1014F000095017EC27F0E56AE56AE56A0A0EE56E21
:101500000350E56E0250E56E0150E56E0050E56E49
:101510001CEC1EF0006EF3CF01F0F4CF02F0E9CF27
:1015200003F0080EE1260450070F076E000E052099
:10153000086E000E0620096EE56AE56AE56A0A0E85
:10154000E56E0350E56E0250E56E0150E56E005009
:10155000E56E7FEC1DF00A6E080EE126300E0A26BD
:101560000AC0E5FF07C0E9FF08C0F3FF095017EC08
:1015700027F0E56AE56AE56A0A0EE56E0350E56E56
:101580000250E56E0150E56E0050E56E1CEC1EF059
:10159000006EF3CF01F0F4CF02F0E9CF03F0080EB4
:1015A000E1260450060F076E000E0520086E000E9F
:1015B0000620096EE56AE56AE56A0A0EE56E0350E3
:1015C000E56E0250E56E0150E56E0050E56E7FEC71
:1015D0001DF00A6E080EE126300E0A260AC0E5FF4D
:1015E00007C0E9FF08C0F3FF095017EC27F0E56AD0
:1015F000E56AE56A0A0EE56E0350E56E0250E56E97
:101600000150E56E0050E56E1CEC1EF0006EF3CF4D
:1016100001F0F4CF02F0E9CF03F0080EE126045008
:10162000050F076E000E0520086E000E0620096EDD
:10163000E56AE56AE56A0A0EE56E0350E56E02505A
:10164000E56E0150E56E0050E56E7FEC1DF00A6E10
:10165000080EE126300E0A260AC0E5FF07C0E9FFA2
:1016600008C0F3FF095017EC27F0E56AE56AE56A60
:101670000A0EE56E0350E56E0250E56E0150E56E10
:101680000050E56E1CEC1EF0006E080EE1260450C2
:10169000040F076E000E0520086E000E0620096E6E
:1016A00000500A6E300E0A260AC0E5FF07C0E9FFA7
:1016B00008C0F3FF095017EC27F00450030F076E22
:1016C000000E0520086E000E0620096E200EE56E45
:1016D00007C0E9FF08C0F3FF095017EC27F00450DA
:1016E000020F076E000E0520086E000E0620096E20
:1016F000200EE56E07C0E9FF08C0F3FF095017ECA4
:1017000027F00450010F076E000E0520086E000E32
:101710000620096E200EE56E07C0E9FF08C0F3FF42
:10172000095017EC27F0200EE56E04C0E9FF05C054
:10173000F3FF065017EC27F004500A0F076E000E57
:101740000520086E000E0620E56A07C0E9FF08C004
:10175000F3FF17EC27F039EF11F0000E035C08E1FE
:10176000000E025C05E1270E015C02E1100E005C38
:10177000D8A06AD10450090F076E000E0520086E2C
:10178000000E0620096EE56AE56AE56A0A0EE56E56
:101790000350E56E0250E56E0150E56E0050E56EB7
:1017A0007FEC1DF00A6E080EE126300E0A260AC0F4
:1017B000E5FF07C0E9FF08C0F3FF095017EC27F069
:1017C000E56AE56AE56A0A0EE56E0350E56E0250C9
:1017D000E56E0150E56E0050E56E1CEC1EF0006EEB
:1017E000F3CF01F0F4CF02F0E9CF03F0080EE126C9
:1017F0000450080F076E000E0520086E000E06202C
:10180000096EE56AE56AE56A0A0EE56E0350E56E63
:101810000250E56E0150E56E0050E56E7FEC1DF064
:101820000A6E080EE126300E0A260AC0E5FF07C040
:10183000E9FF08C0F3FF095017EC27F0E56AE56AF5
:10184000E56A0A0EE56E0350E56E0250E56E015042
:10185000E56E0050E56E1CEC1EF0006EF3CF01F05B
:10186000F4CF02F0E9CF03F0080EE1260450070F91
:10187000076E000E0520086E000E0620096EE56A50
:10188000E56AE56A0A0EE56E0350E56E0250E56E04
:101890000150E56E0050E56E7FEC1DF00A6E080EFB
:1018A000E126300E0A260AC0E5FF07C0E9FF08C09E
:1018B000F3FF095017EC27F0E56AE56AE56A0A0EBE
:1018C000E56E0350E56E0250E56E0150E56E005086
:1018D000E56E1CEC1EF0006EF3CF01F0F4CF02F0C9
:1018E000E9CF03F0080EE1260450060F076E000E44
:1018F0000520086E000E0620096EE56AE56AE56AB5
:101900000A0EE56E0350E56E0250E56E0150E56E7D
:101910000050E56E7FEC1DF00A6E080EE126300ED9
:101920000A260AC0E5FF07C0E9FF08C0F3FF095017
:1019300017EC27F0E56AE56AE56A0A0EE56E0350E2
:10194000E56E0250E56E0150E56E0050E56E1CEC50
:101950001EF0006E080EE1260450050F076E000E03
:101960000520086E000E0620096E00500A6E300E2B
:101970000A260AC0E5FF07C0E9FF08C0F3FF0950C7
:1019800017EC27F00450040F076E000E0520086EB8
:10199000000E0620096E200EE56E07C0E9FF08C0A4
:1019A000F3FF095017EC27F00450030F076E000EE9
:1019B0000520086E000E0620096E200EE56E07C099
:1019C000E9FF08C0F3FF095017EC27F00450020F9D
:1019D000076E000E0520086E000E0620096E200E10
:1019E000E56E07C0E9FF08C0F3FF095017EC27F0C8
:1019F0000450010F076E000E0520086E000E062031
:101A0000096E200EE56E07C0E9FF08C0F3FF09501C
:101A100017EC27F0200EE56E04C0E9FF05C0F3FFC8
:101A2000065017EC27F004500A0F076E000E052031
:101A3000086E000E0620E56A07C0E9FF08C0F3FF44
:101A400017EC27F039EF11F0000E035C08E1000EEF
:101A5000025C05E1030E015C02E1E80E005CD8A027
:101A60003ED10450090F076E000E0520086E000ECF
:101A70000620096EE56AE56AE56A0A0EE56E03501E
:101A8000E56E0250E56E0150E56E0050E56E7FECAC
:101A90001DF00A6E080EE126300E0A260AC0E5FF88
:101AA00007C0E9FF08C0F3FF095017EC27F0E56A0B
:101AB000E56AE56A0A0EE56E0350E56E0250E56ED2
:101AC0000150E56E0050E56E1CEC1EF0006EF3CF89
:101AD00001F0F4CF02F0E9CF03F0080EE126045044
:101AE000080F076E000E0520086E000E0620096E16
:101AF000E56AE56AE56A0A0EE56E0350E56E025096
:101B0000E56E0150E56E0050E56E7FEC1DF00A6E4B
:101B1000080EE126300E0A260AC0E5FF07C0E9FFDD
:101B200008C0F3FF095017EC27F0E56AE56AE56A9B
:101B30000A0EE56E0350E56E0250E56E0150E56E4B
:101B40000050E56E1CEC1EF0006EF3CF01F0F4CFF8
:101B500002F0E9CF03F0080EE1260450070F076EEC
:101B6000000E0520086E000E0620096EE56AE56A83
:101B7000E56A0A0EE56E0350E56E0250E56E01500F
:101B8000E56E0050E56E7FEC1DF00A6E080EE12652
:101B9000300E0A260AC0E5FF07C0E9FF08C0F3FFC0
:101BA000095017EC27F0E56AE56AE56A0A0EE56E6A
:101BB0000350E56E0250E56E0150E56E0050E56E93
:101BC0001CEC1EF0006E080EE1260450060F076E96
:101BD000000E0520086E000E0620096E00500A6EE9
:101BE000300E0A260AC0E5FF07C0E9FF08C0F3FF70
:101BF000095017EC27F00450050F076E000E052062
:101C0000086E000E0620096E200EE56E07C0E9FF83
:101C100008C0F3FF095017EC27F00450040F076EBB
:101C2000000E0520086E000E0620096E200EE56EDF
:101C300007C0E9FF08C0F3FF095017EC27F0045074
:101C4000030F076E000E0520086E000E0620096EB9
:101C5000200EE56E07C0E9FF08C0F3FF095017EC3E
:101C600027F00450020F076E000E0520086E000ECC
:101C70000620096E200EE56E07C0E9FF08C0F3FFDD
:101C8000095017EC27F00450010F076E000E0520D5
:101C9000086E000E0620096E200EE56E07C0E9FFF3
:101CA00008C0F3FF095017EC27F0200EE56E04C0C2
:101CB000E9FF05C0F3FF065017EC27F004500A0FA8
:101CC000076E000E0520086E000E0620E56A07C0AC
:101CD000E9FF08C0F3FF17EC27F039EF11F0000E11
:101CE000035C08E1000E025C05E1000E015C02E10C
:101CF000640E005CD8A011D10450090F076E000ECD
:101D00000520086E000E0620096EE56AE56AE56AA0
:101D10000A0EE56E0350E56E0250E56E0150E56E69
:101D20000050E56E7FEC1DF00A6E080EE126300EC5
:101D30000A260AC0E5FF07C0E9FF08C0F3FF095003
:101D400017EC27F0E56AE56AE56A0A0EE56E0350CE
:101D5000E56E0250E56E0150E56E0050E56E1CEC3C
:101D60001EF0006EF3CF01F0F4CF02F0E9CF03F0E4
:101D7000080EE1260450080F076E000E0520086EBD
:101D8000000E0620096EE56AE56AE56A0A0EE56E50
:101D90000350E56E0250E56E0150E56E0050E56EB1
:101DA0007FEC1DF00A6E080EE126300E0A260AC0EE
:101DB000E5FF07C0E9FF08C0F3FF095017EC27F063
:101DC000E56AE56AE56A0A0EE56E0350E56E0250C3
:101DD000E56E0150E56E0050E56E1CEC1EF0006EE5
:101DE000080EE1260450070F076E000E0520086E4E
:101DF000000E0620096E00500A6E300E0A260AC038
:101E0000E5FF07C0E9FF08C0F3FF095017EC27F012
:101E10000450060F076E000E0520086E000E062007
:101E2000096E200EE56E07C0E9FF08C0F3FF0950F8
:101E300017EC27F00450050F076E000E0520086E02
:101E4000000E0620096E200EE56E07C0E9FF08C0EF
:101E5000F3FF095017EC27F00450040F076E000E33
:101E60000520086E000E0620096E200EE56E07C0E4
:101E7000E9FF08C0F3FF095017EC27F00450030FE7
:101E8000076E000E0520086E000E0620096E200E5B
:101E9000E56E07C0E9FF08C0F3FF095017EC27F013
:101EA0000450020F076E000E0520086E000E06207B
:101EB000096E200EE56E07C0E9FF08C0F3FF095068
:101EC00017EC27F00450010F076E000E0520086E76
:101ED000000E0620096E200EE56E07C0E9FF08C05F
:101EE000F3FF095017EC27F0200EE56E04C0E9FF60
:101EF00005C0F3FF065017EC27F004500A0F076ED9
:101F0000000E0520086E000E0620E56A07C0E9FFF6
:101F100008C0F3FF17EC27F0ACD1000E035C08E11A
:101F2000000E025C05E1000E015C02E10A0E005C9D
:101F3000D8A0E5D00450090F076E000E0520086EEA
:101F4000000E0620096EE56AE56AE56A0A0EE56E8E
:101F50000350E56E0250E56E0150E56E0050E56EEF
:101F60007FEC1DF00A6E080EE126300E0A260AC02C
:101F7000E5FF07C0E9FF08C0F3FF095017EC27F0A1
:101F8000E56AE56AE56A0A0EE56E0350E56E025001
:101F9000E56E0150E56E0050E56E1CEC1EF0006E23
:101FA000080EE1260450080F076E000E0520086E8B
:101FB000000E0620096E00500A6E300E0A260AC076
:101FC000E5FF07C0E9FF08C0F3FF095017EC27F051
:101FD0000450070F076E000E0520086E000E062045
:101FE000096E200EE56E07C0E9FF08C0F3FF095037
:101FF00017EC27F00450060F076E000E0520086E40
:10200000000E0620096E200EE56E07C0E9FF08C02D
:10201000F3FF095017EC27F00450050F076E000E70
:102020000520086E000E0620096E200EE56E07C022
:10203000E9FF08C0F3FF095017EC27F00450040F24
:10204000076E000E0520086E000E0620096E200E99
:10205000E56E07C0E9FF08C0F3FF095017EC27F051
:102060000450030F076E000E0520086E000E0620B8
:10207000096E200EE56E07C0E9FF08C0F3FF0950A6
:1020800017EC27F00450020F076E000E0520086EB3
:10209000000E0620096E200EE56E07C0E9FF08C09D
:1020A000F3FF095017EC27F00450010F076E000EE4
:1020B0000520086E000E0620096E200EE56E07C092
:1020C000E9FF08C0F3FF095017EC27F0200EE56E7A
:1020D00004C0E9FF05C0F3FF065017EC27F00450D9
:1020E0000A0F076E000E0520086E000E0620E56A36
:1020F00007C0E9FF08C0F3FF17EC27F0BAD004507F
:10210000090F076E000E0520086E000E0620096EEE
:10211000300E002600C0E5FF07C0E9FF08C0F3FF4E
:10212000095017EC27F00450080F006E000E052030
:10213000016E000E0620026E200EE56E00C0E9FF63
:1021400001C0F3FF025017EC27F00450070F006E98
:10215000000E0520016E000E0620026E200EE56EB8
:1021600000C0E9FF01C0F3FF025017EC27F0045054
:10217000060F006E000E0520016E000E0620026E96
:10218000200EE56E00C0E9FF01C0F3FF025017EC1E
:1021900027F00450050F006E000E0520016E000EA2
:1021A0000620026E200EE56E00C0E9FF01C0F3FFBD
:1021B000025017EC27F00450040F006E000E0520AB
:1021C000016E000E0620026E200EE56E00C0E9FFD3
:1021D00001C0F3FF025017EC27F00450030F006E0C
:1021E000000E0520016E000E0620026E200EE56E28
:1021F00000C0E9FF01C0F3FF025017EC27F00450C4
:10220000020F006E000E0520016E000E0620026E09
:10221000200EE56E00C0E9FF01C0F3FF025017EC8D
:1022200027F00450010F006E000E0520016E000E15
:102230000620026E200EE56E00C0E9FF01C0F3FF2C
:10224000025017EC27F0200EE56E04C0E9FF05C030
:10225000F3FF065017EC27F00A0E0426000E0522A5
:102260000622E56A04C0E9FF05C0F3FF065017EC3B
:1022700027F0E4CF0AF0E4CF09F0E4CF08F0E4CF90
:1022800007F0E4CF06F0E4CF05F0E4CF04F0E4CFAC
:1022900003F0E4CF02F0E4CF01F0E4CF00F0E4CFAC
:1022A000D9FF1200D9CFE5FFE1CFD9FF00C0E5FF8C
:1022B00001C0E5FF02C0E5FF03C0E5FF04C0E5FF84
:1022C00005C0E5FF06C0E5FF07C0E5FF08C0E5FF64
:1022D000020EDBCF00F0030EDBCF01F0040EDBCFEC
:1022E00002F0050EDBCF03F0060EDBCF04F0270E65
:1022F000015C02E1100E005CD8A0D4D00250040FA3
:10230000056E000E0320066E000E0420076EE56ABF
:102310000A0EE56E0150E56E0050E56E67EC20F0A8
:10232000086E040EE126300E082608C0E5FF05C041
:10233000E9FF06C0F3FF075017EC27F0E56A0A0E25
:10234000E56E0150E56E0050E56EC4EC20F0006EC5
:10235000F3CF01F0040EE1260250030F056E000ECC
:102360000320066E000E0420076EE56A0A0EE56E75
:102370000150E56E0050E56E67EC20F0086E040E2B
:10238000E126300E082608C0E5FF05C0E9FF06C0BB
:10239000F3FF075017EC27F0E56A0A0EE56E0150CF
:1023A000E56E0050E56EC4EC20F0006EF3CF01F056
:1023B000040EE1260250020F056E000E0320066E89
:1023C000000E0420076EE56A0A0EE56E0150E56E08
:1023D0000050E56E67EC20F0086E040EE126300E2A
:1023E000082608C0E5FF05C0E9FF06C0F3FF075057
:1023F00017EC27F0E56A0A0EE56E0150E56E005015
:10240000E56EC4EC20F0006EF3CF01F0040EE1267F
:102410000250010F056E000E0320066E000E042010
:10242000076EE56A0A0EE56E0150E56E0050E56E36
:1024300067EC20F0086E040EE126300E082608C076
:10244000E5FF05C0E9FF06C0F3FF075017EC27F0D2
:10245000E56A0A0EE56E0150E56E0050E56EC4ECCB
:1024600020F0006E040EE1260050056E300E0526A9
:1024700005C0E5FF02C0E9FF03C0F3FF045017ECFD
:1024800027F00250050F056E000E0320066E000EA9
:102490000420E56A05C0E9FF06C0F3FF17EC27F04A
:1024A00098EF14F0030E015C02E1E80E005CD8A086
:1024B000B7D00250040F056E000E0320066E000E0A
:1024C0000420076EE56A0A0EE56E0150E56E0050C5
:1024D000E56E67EC20F0086E040EE126300E08264B
:1024E00008C0E5FF05C0E9FF06C0F3FF075017EC81
:1024F00027F0E56A0A0EE56E0150E56E0050E56EC4
:10250000C4EC20F0006EF3CF01F0040EE12602507F
:10251000030F056E000E0320066E000E0420076EEA
:10252000E56A0A0EE56E0150E56E0050E56E67EC57
:1025300020F0086E040EE126300E082608C0E5FFE4
:1025400005C0E9FF06C0F3FF075017EC27F0E56A66
:102550000A0EE56E0150E56E0050E56EC4EC20F009
:10256000006EF3CF01F0040EE1260250020F056E5B
:10257000000E0320066E000E0420076EE56A0A0EA8
:10258000E56E0150E56E0050E56E67EC20F0086ED8
:10259000040EE126300E082608C0E5FF05C0E9FF5D
:1025A00006C0F3FF075017EC27F0E56A0A0EE56E48
:1025B0000150E56E0050E56EC4EC20F0006E040E94
:1025C000E1260250010F056E000E0320066E000E7C
:1025D0000420076E0050086E300E082608C0E5FF84
:1025E00005C0E9FF06C0F3FF075017EC27F0200EE7
:1025F000E56E02C0E9FF03C0F3FF045017EC27F0BB
:102600000250050F056E000E0320066E000E04201A
:10261000E56A05C0E9FF06C0F3FF17EC27F088D193
:10262000000E015C02E1640E005CD8A09BD0025059
:10263000040F056E000E0320066E000E0420076EC8
:10264000E56A0A0EE56E0150E56E0050E56E67EC36
:1026500020F0086E040EE126300E082608C0E5FFC3
:1026600005C0E9FF06C0F3FF075017EC27F0E56A45
:102670000A0EE56E0150E56E0050E56EC4EC20F0E8
:10268000006EF3CF01F0040EE1260250030F056E39
:10269000000E0320066E000E0420076EE56A0A0E87
:1026A000E56E0150E56E0050E56E67EC20F0086EB7
:1026B000040EE126300E082608C0E5FF05C0E9FF3C
:1026C00006C0F3FF075017EC27F0E56A0A0EE56E27
:1026D0000150E56E0050E56EC4EC20F0006E040E73
:1026E000E1260250020F056E000E0320066E000E5A
:1026F0000420076E0050086E300E082608C0E5FF63
:1027000005C0E9FF06C0F3FF075017EC27F00250A1
:10271000010F056E000E0320066E000E0420076EEA
:10272000200EE56E05C0E9FF06C0F3FF075017EC69
:1027300027F0200EE56E02C0E9FF03C0F3FF04504E
:1027400017EC27F00250050F056E000E0320066EF1
:10275000000E0420E56A05C0E9FF06C0F3FF17EC90
:1027600027F0E6D0000E015C02E10A0E005CD8A062
:102770007FD00250040F056E000E0320066E000E7F
:102780000420076EE56A0A0EE56E0150E56E005002
:10279000E56E67EC20F0086E040EE126300E082688
:1027A00008C0E5FF05C0E9FF06C0F3FF075017ECBE
:1027B00027F0E56A0A0EE56E0150E56E0050E56E01
:1027C000C4EC20F0006E040EE1260250030F056EEB
:1027D000000E0320066E000E0420076E0050086EE7
:1027E000300E082608C0E5FF05C0E9FF06C0F3FF6C
:1027F000075017EC27F00250020F056E000E032061
:10280000066E000E0420076E200EE56E05C0E9FF7F
:1028100006C0F3FF075017EC27F00250010F056EBA
:10282000000E0320066E000E0420076E200EE56EDB
:1028300005C0E9FF06C0F3FF075017EC27F0200E94
:10284000E56E02C0E9FF03C0F3FF045017EC27F068
:102850000250050F056E000E0320066E000E0420C8
:10286000E56A05C0E9FF06C0F3FF17EC27F060D06A
:102870000250040F056E000E0320066E000E0420A9
:10288000076E300E002600C0E5FF05C0E9FF06C058
:10289000F3FF075017EC27F00250030F006E000EF5
:1028A0000320016E000E0420056E200EE56E00C0B0
:1028B000E9FF01C0F3FF055017EC27F00250020FAB
:1028C000006E000E0320016E000E0420056E200E27
:1028D000E56E00C0E9FF01C0F3FF055017EC27F0DB
:1028E0000250010F006E000E0320016E000E042046
:1028F000056E200EE56E00C0E9FF01C0F3FF055034
:1029000017EC27F0200EE56E02C0E9FF03C0F3FFCD
:10291000045017EC27F0050E0226000E03220422B5
:10292000E56A02C0E9FF03C0F3FF045017EC27F08B
:10293000E4CF08F0E4CF07F0E4CF06F0E4CF05F0F1
:10294000E4CF04F0E4CF03F0E4CF02F0E4CF01F0F1
:10295000E4CF00F0E4CFD9FF1200006A0F01386B1A
:102960000F01396B0F013A6B0F013B6B0F013C6B91
:10297000C26AC16AC06A796A786A776A94949288EE
:102980008B949F0EE56E65EC26F0E652000EE56A2C
:102990000AEC18F0E6520F010B6B050E0F010C6FDD
:1029A000110E0F010D6F0D0E0F010E6F050E0F01B1
:1029B0000F6F140E0F01106F0E0E0F01116F020E2C
:1029C0000F01126F0F01136F0E0EE56E140EE56E00
:1029D000020EE56E050EE56E0D0EE56E020EE56E5D
:1029E000E56A050EE56E110EE56E06EC1CF0090EAB
:1029F000E126016A8BB4012A0150D880E866D8909C
:102A0000016A01360150010BE844E844F46E8B5032
:102A1000FB0BF4108B6E800EE56E0F0EE56E110E43
:102A2000E56E800EE56E0F0EE56E100EE56E800E03
:102A3000E56E0F0EE56E130EE56E800EE56E0F0E61
:102A4000E56E0F0EE56E800EE56E0F0EE56E0E0E56
:102A5000E56E800EE56E0F0EE56E120EE56E800ED1
:102A6000E56E0F0EE56E0B0EE56E800EE56E0F0E39
:102A7000E56E0C0EE56E800EE56E0F0EE56E0D0E2A
:102A8000E56E5EEC16F01B0EE1260BCF01F0015057
:102A9000001801E105D101C000F0000EE56AE56A09
:102AA000D3EC25F0E652E652800EE56E0F0EE56E91
:102AB000000EE56E0F010D51E56EB2EC19F0040E3B
:102AC000E12601CF01F00150200A06E1300EE56E4B
:102AD00090EC26F0E65205D00150E56E90EC26F021
:102AE000E6520F010251E56E90EC26F0E6523A0EE6
:102AF000E56E90EC26F0E652800EE56E0F0EE56E68
:102B0000000EE56E0F010C51E56EB2EC19F0040EEB
:102B1000E12601CF01F00150200A06E1300EE56EFA
:102B200090EC26F0E65205D00150E56E90EC26F0D0
:102B3000E6520F010251E56E90EC26F0E6523A0E95
:102B4000E56E90EC26F0E652800EE56E0F0EE56E17
:102B5000000EE56E0F010B51E56EB2EC19F0040E9C
:102B6000E12601CF01F00150200A06E1300EE56EAA
:102B700090EC26F0E65205D00150E56E90EC26F080
:102B8000E6520F010251E56E90EC26F0E652E56A3E
:102B9000010EE56ED3EC25F0E652E652800EE56EAE
:102BA0000F0EE56E000EE56E0F010E51E56EB2ECF4
:102BB00019F0040EE12601CF01F00150200A06E1D0
:102BC000300EE56E90EC26F0E65205D00150E56E31
:102BD00090EC26F0E6520F010251E56E90EC26F0E3
:102BE000E6522F0EE56E90EC26F0E652800EE56E72
:102BF0000F0EE56E000EE56E0F010F51E56EB2ECA3
:102C000019F0040EE12601CF01F00150200A06E17F
:102C1000300EE56E90EC26F0E65205D00150E56EE0
:102C200090EC26F0E6520F010251E56E90EC26F092
:102C3000E6522F0EE56E90EC26F0E652800EE56E21
:102C40000F0EE56E000EE56E0F011051E56EB2EC51
:102C500019F0040EE1260F010151E56E90EC26F00B
:102C6000E6520F010251E56E90EC26F0E652800E1E
:102C7000E56E0F0EE56E000EE56E0F011151E56E6B
:102C8000B2EC19F0040EE1260F010151E56E90EC53
:102C900026F0E6520F010251E56E90EC26F0E65266
:102CA000F00E70EC22F0F00E70EC22F0A00E70EC42
:102CB00022F0A00E70EC22F09CD61200D9CFE5FFD6
:102CC000E1CFD9FF00C0E5FF01C0E5FF02C0E5FF8D
:102CD00003C0E5FF04C0E5FF05C0E5FF06C0E5FF52
:102CE00007C0E5FF08C0E5FF09C0E5FF0AC0E5FF32
:102CF0000BC0E5FF0CC0E5FF0DC0E5FF0EC0E5FF12
:102D00000FC0E5FF10C0E5FF11C0E5FF12C0E5FFF1
:102D100013C0E5FF14C0E5FF15C0E5FF16C0E5FFD1
:102D200017C0E5FF18C0E5FF19C0E5FF1AC0E5FFB1
:102D30001BC0E5FF020EDBCF00F0030EDBCF01F07E
:102D4000040EDBCF02F0050EDBCF03F0060EDBCF67
:102D500004F0070EDBCF05F0080EDBCF06F0090EFE
:102D6000DBCF07F00A0EDBCF08F00B0EDBCF09F04C
:102D70000C0EDBCF0AF00D0EDBCF0BF00E0EDBCF0F
:102D80000CF00F0EDBCF0DF0100EDBCF0EF0110E9E
:102D9000DBCF0FF0120EDBCF10F0130EDBCF11F0F4
:102DA000140EDBCF12F0150EDBCF13F0160EDBCFB7
:102DB00014F0170EDBCF15F0180EDBCF16F0190E3E
:102DC000DBCF17F01A0EDBCF18F01B0EDBCF19F09C
:102DD0001C0EDBCF1AF00BEC27F0A20EE56E4BECCD
:102DE00026F0E652020EE56E4BEC26F0E652FFECC2
:102DF00026F0A30EE56E4BEC26F0E652010EE56ED2
:102E0000E8EC24F0E652E56E2FEC26F01B6EE6525D
:102E10001BC0E5FF06C0E9FF07C0F3FF085017EC31
:102E200027F0010EE56EE8EC24F0E652E56E2FEC9B
:102E300026F0066EE65206C0E5FF03C0E9FF04C0B7
:102E4000F3FF055017EC27F0010EE56EE8EC24F0D7
:102E5000036EE6523F0E03160350E56E2FEC26F08C
:102E6000036EE65203C0E5FF00C0E9FF01C0F3FFB7
:102E7000025017EC27F0010EE56EE8EC24F0006E2E
:102E8000E652000EE56AE8EC24F0016EE652F3EC3F
:102E900026F0E00E0114026E0238E840070BE56EE2
:102EA0002FEC26F0036EE65203C0E5FF09C0E9FFF0
:102EB0000AC0F3FF0B5017EC27F01F0E0114E56E4C
:102EC0002FEC26F0016EE65201C0E5FF0FC0E9FFCE
:102ED00010C0F3FF115017EC27F0C00E0014016E64
:102EE0000144E844030BE56E2FEC26F0016EE65238
:102EF00001C0E5FF12C0E9FF13C0F3FF145017EC47
:102F000027F03F0E0014E56E2FEC26F0006EE6521F
:102F100000C0E5FF0CC0E9FF0DC0F3FF0E5017EC39
:102F200027F01A50E56E1950E56E1850E56E1750EF
:102F3000E56E1650E56E1550E56E34EC1FF0060E8A
:102F4000E12612C0E9FF13C0F3FF1450B6EC26F0DF
:102F5000126E18C0E9FF19C0F3FF1A50B6EC26F044
:102F6000006E030E001412181AE0002A00C0E5FFDC
:102F700018C0E9FF19C0F3FF1A5017EC27F015C06D
:102F8000E9FF16C0F3FF1750B6EC26F0156E00509F
:102F9000E56E1550E56E66EC24F0E652E652E4CF9D
:102FA0001BF0E4CF1AF0E4CF19F0E4CF18F0E4CF2F
:102FB00017F0E4CF16F0E4CF15F0E4CF14F0E4CF2F
:102FC00013F0E4CF12F0E4CF11F0E4CF10F0E4CF2F
:102FD0000FF0E4CF0EF0E4CF0DF0E4CF0CF0E4CF2F
:102FE0000BF0E4CF0AF0E4CF09F0E4CF08F0E4CF2F
:102FF00007F0E4CF06F0E4CF05F0E4CF04F0E4CF2F
:1030000003F0E4CF02F0E4CF01F0E4CF00F0E4CF2E
:10301000D9FF1200D9CFE5FFE1CFD9FF00C0E5FF0E
:10302000020EDBCF00F0969296949398939A939C1D
:10303000939E8D920050D8A49AD0280E70EC22F066
:10304000030EE56EA8EC22F0E652500E5DEC22F085
:10305000030EE56EA8EC22F0E652A00E9CEC22F0E6
:10306000030EE56EA8EC22F0E652380E9CEC22F03E
:103070000000000000000000000000000000000050
:103080000000000000000000000000000000000040
:103090000000000000000000000000000000000030
:1030A0000000000000000000000000000000000020
:1030B0000000000000000000000000000000000010
:1030C0000000000000000000000000000000000000
:1030D000020EE56EA8EC22F0E652380E9CEC22F0CF
:1030E00000000000000000000000000000000000E0
:1030F00000000000000000000000000000000000D0
:1031000000000000000000000000000000000000BF
:1031100000000000000000000000000000000000AF
:10312000000000000000000000000000000000009F
:10313000000000000000000000000000000000008F
:10314000280EE56E7CEC26F0E6521C0EE56E7CEC5B
:1031500026F0E6520C0EE56E7CEC26F0E652060EEA
:10316000E56E7CEC26F0E652D6EC26F0F6D0005068
:10317000010A01E0F2D0030EE56EA8EC22F0E6525F
:10318000400E9CEC22F0020EE56EA8EC22F0E65216
:103190000C0EE56EA8EC22F0E652400E9CEC22F0FC
:1031A000020EE56EA8EC22F0E6520C0EE56EA8ECDD
:1031B00022F0E652380E9CEC22F0000000000000E5
:1031C00000000000000000000000000000000000FF
:1031D00000000000000000000000000000000000EF
:1031E00000000000000000000000000000000000DF
:1031F00000000000000000000000000000000000CF
:1032000000000000000000000000000000000000BE
:1032100000000000000000000000000EE56EA8ECB9
:1032200022F0E6520C0EE56EA8EC22F0E652380EC3
:103230009CEC22F0000000000000000000000000F4
:10324000000000000000000000000000000000007E
:10325000000000000000000000000000000000006E
:10326000000000000000000000000000000000005E
:10327000000000000000000000000000000000004E
:10328000000000000000000000000000000000003E
:1032900000000000000EE56EA8EC22F0E652010EE0
:1032A000E56EA8EC22F0E652A00E89EC22F0500E5A
:1032B00089EC22F0400E9CEC22F0000EE56EA8ECAA
:1032C00022F0E652060EE56EA8EC22F0E652380E29
:1032D0009CEC22F000000000000000000000000054
:1032E00000000000000000000000000000000000DE
:1032F00000000000000000000000000000000000CE
:1033000000000000000000000000000000000000BD
:1033100000000000000000000000000000000000AD
:10332000000000000000000000000000000000009D
:1033300000000000000EE56EA8EC22F0E652010E3F
:10334000E56EA8EC22F0E652A00E89EC22F0500EB9
:1033500089EC22F0400E9CEC22F0E4CF00F0E4CFA8
:10336000D9FF1200D9CFE5FFE1CFD9FF00C0E5FFBB
:1033700001C0E5FF02C0E5FF03C0E5FF04C0E5FFB3
:1033800005C0E5FF06C0E5FF07C0E5FF020EDBCF85
:1033900000F0030EDBCF01F0040EDBCF02F0050ED0
:1033A000DBCF03F0640E005CD8A069D00150020F9F
:1033B000046E000E0220056E000E0320066E0A0E3B
:1033C000E56E00C0E5FF2CEC23F0076EE450E450FE
:1033D000300E072607C0E5FF04C0E9FF05C0F3FF74
:1033E000065017EC27F00A0EE56E00C0E5FFF1EC81
:1033F00022F0006EE450E4500150010F046E000E04
:103400000220056E000E0320066E0A0EE56E00C057
:10341000E5FF2CEC23F0076EE450E450300E072655
:1034200007C0E5FF04C0E9FF05C0F3FF065017EC35
:1034300027F00A0EE56E00C0E5FFF1EC22F0006E09
:10344000E450E4500050046E300E042604C0E5FF42
:1034500001C0E9FF02C0F3FF035017EC27F0015051
:10346000030F046E000E0220056E000E0320E56AB5
:1034700004C0E9FF05C0F3FF17EC27F095D00A0E52
:10348000005CD8A055D00150020F046E000E02203F
:10349000056E000E0320066E0A0EE56E00C0E5FF05
:1034A0002CEC23F0076EE450E450300E072607C0E2
:1034B000E5FF04C0E9FF05C0F3FF065017EC27F055
:1034C0000A0EE56E00C0E5FFF1EC22F0006EE4505C
:1034D000E4500150010F046E000E0220056E000E34
:1034E0000320066E0050076E300E072607C0E5FF6A
:1034F00004C0E9FF05C0F3FF065017EC27F0200ECB
:10350000E56E01C0E9FF02C0F3FF035017EC27F09E
:103510000150030F046E000E0220056E000E032002
:10352000E56A04C0E9FF05C0F3FF17EC27F03CD0C3
:103530000150020F046E000E0220056E000E0320E3
:10354000066E300E002600C0E5FF04C0E9FF05C08E
:10355000F3FF065017EC27F00150010F006E000E2C
:103560000220046E000E0320056E200EE56E00C0E2
:10357000E9FF04C0F3FF055017EC27F0200EE56EBD
:1035800001C0E9FF02C0F3FF035017EC27F0030E60
:103590000126000E02220322E56A01C0E9FF02C0F3
:1035A000F3FF035017EC27F0E4CF07F0E4CF06F069
:1035B000E4CF05F0E4CF04F0E4CF03F0E4CF02F071
:1035C000E4CF01F0E4CF00F0E4CFD9FF1200D9CF6F
:1035D000E5FFE1CFD9FF00C0E5FF01C0E5FF02C074
:1035E000E5FF03C0E5FF04C0E5FF05C0E5FF06C039
:1035F000E5FF07C0E5FF08C0E5FF09C0E5FF0AC019
:10360000E5FF020EDBCF00F0030EDBCF01F0040E6E
:10361000DBCF02F0050EDBCF03F0060EDBCF04F0AC
:10362000070EDBCF05F0080EDBCF06F003380F0BDB
:10363000E56EF2EC25F0076EE65207C0E5FF04C028
:10364000E9FF05C0F3FF065017EC27F00450010F07
:10365000076E000E0520086E000E0620096E03504E
:10366000E56EF2EC25F00A6EE6520AC0E5FF07C0EF
:10367000E9FF08C0F3FF095017EC27F00450020FD0
:10368000076E000E0520086E000E0620096E023837
:103690000F0B0A6E0338F00B0A260A50E56EF2ECA7
:1036A00025F00A6EE6520AC0E5FF07C0E9FF08C030
:1036B000F3FF095017EC27F00450030F076E000EBC
:1036C0000520086E000E0620096E0250E56EF2EC31
:1036D00025F00A6EE6520AC0E5FF07C0E9FF08C000
:1036E000F3FF095017EC27F00450040F076E000E8B
:1036F0000520086E000E0620096E01380F0B0A6EB9
:103700000238F00B0A260A50E56EF2EC25F00A6E3C
:10371000E6520AC0E5FF07C0E9FF08C0F3FF095001
:1037200017EC27F00450050F076E000E0520086EF9
:10373000000E0620096E0150E56EF2EC25F00A6ECF
:10374000E6520AC0E5FF07C0E9FF08C0F3FF0950D1
:1037500017EC27F00450060F076E000E0520086EC8
:10376000000E0620096E00380F0B0A6E0138F00BB0
:103770000A260A50E56EF2EC25F00A6EE6520AC0FF
:10378000E5FF07C0E9FF08C0F3FF095017EC27F079
:103790000450070F076E000E0520086E000E06206D
:1037A000096E0050E56EF2EC25F0006EE65200C0A6
:1037B000E5FF07C0E9FF08C0F3FF095017EC27F049
:1037C000080E0426000E05220622E56A04C0E9FF61
:1037D00005C0F3FF065017EC27F0E4CF0AF0E4CF62
:1037E00009F0E4CF08F0E4CF07F0E4CF06F0E4CF2F
:1037F00005F0E4CF04F0E4CF03F0E4CF02F0E4CF2F
:1038000001F0E4CF00F0E4CFD9FF1200D9CFE5FFFB
:10381000E1CFD9FF00C0E5FF01C0E5FF02C0E5FF31
:1038200003C0E5FF04C0E5FF05C0E5FF06C0E5FFF6
:1038300007C0E5FF08C0E5FF09C0E5FF020EDBCFCA
:1038400000F0030EDBCF01F0040EDBCF02F0050E1B
:10385000DBCF03F0060EDBCF04F0070EDBCF05F065
:10386000080EDBCF06F0090EDBCF07F00A0EDBCF28
:1038700008F00650E56E38EC24F0066EE65206407D
:10388000E840C00B096E0450E56E38EC24F0E652B7
:1038900009120350E56E38EC24F0036EE65203384B
:1038A000E844E00B046E0550E56E38EC24F0E65277
:1038B00004120BEC27F0A20EE56E4BEC26F0E6525C
:1038C000000EE56A4BEC26F0E652800EE56E4BECFE
:1038D00026F0E652F3EC26F00BEC27F0A20EE56E94
:1038E0004BEC26F0E652010EE56E4BEC26F0E6526C
:1038F000000EE56A38EC24F0E652E56E4BEC26F05B
:10390000E6520250E56E38EC24F0E652E56E4BECE0
:1039100026F0E6520150E56E38EC24F0E652E56EF2
:103920004BEC26F0E6520050E56E38EC24F0E652FF
:10393000E56E4BEC26F0E6520950E56E4BEC26F0B6
:10394000E6520450E56E4BEC26F0E652F3EC26F01E
:103950000BEC27F0A20EE56E4BEC26F0E652000EC3
:10396000E56A4BEC26F0E652000EE56A4BEC26F0D9
:10397000E652F3EC26F00850E56E0750E56E66EC73
:1039800024F0E652E652E4CF09F0E4CF08F0E4CFA9
:1039900007F0E4CF06F0E4CF05F0E4CF04F0E4CF85
:1039A00003F0E4CF02F0E4CF01F0E4CF00F0E4CF85
:1039B000D9FF1200D9CFE5FFE1CFD9FF00C0E5FF65
:1039C00001C0E5FF02C0E5FF03C0E5FF04C0E5FF5D
:1039D00005C0E5FF06C0E5FF07C0E5FF08C0E5FF3D
:1039E000020EDBCF00F0030EDBCF01F0040EDBCFC5
:1039F00002F0050EDBCF03F0060EDBCF04F001383A
:103A00000F0BE56EF2EC25F0056EE65205C0E5FF02
:103A100002C0E9FF03C0F3FF045017EC27F0025087
:103A2000010F056E000E0320066E000E0420076EC7
:103A30000150E56EF2EC25F0086EE65208C0E5FF95
:103A400005C0E9FF06C0F3FF075017EC27F002504E
:103A5000020F056E000E0320066E000E0420076E96
:103A600000380F0B086E0138F00B08260850E56E81
:103A7000F2EC25F0086EE65208C0E5FF05C0E9FF4C
:103A800006C0F3FF075017EC27F00250030F056E36
:103A9000000E0320066E000E0420076E0050E56E37
:103AA000F2EC25F0006EE65200C0E5FF05C0E9FF2C
:103AB00006C0F3FF075017EC27F0040E0226000E95
:103AC00003220422E56A02C0E9FF03C0F3FF0450A9
:103AD00017EC27F0E4CF08F0E4CF07F0E4CF06F0CE
:103AE000E4CF05F0E4CF04F0E4CF03F0E4CF02F03C
:103AF000E4CF01F0E4CF00F0E4CFD9FF1200D9CF3A
:103B0000E5FFE1CFD9FF00C0E5FF01C0E5FF02C03E
:103B1000E5FF03C0E5FF04C0E5FF05C0E5FF06C003
:103B2000E5FF07C0E5FF08C0E5FF09C0E5FF0AC0E3
:103B3000E5FF020EDBCF00F0030EDBCF01F0040E39
:103B4000DBCF02F0050EDBCF03F0060EDBCF04F077
:103B5000070EDBCF05F0080EDBCF06F0090EDBCF3A
:103B600007F0086A045005100610071005E1E9681F
:103B7000F468F368E86847D0096A0750800BE844A6
:103B80000A6E0A501BE10450042605360636073635
:103B90000750035C08E10650025C05E10550015C3A
:103BA00002E10450005C06E2D8900732063205328A
:103BB000043204D0092A09C008F0DFD70750035C9B
:103BC00008E10650025C05E10550015C02E1045089
:103BD000005C08E30450005E0550015A0650025A8A
:103BE0000750035AD890073206320532043208C013
:103BF00009F008060950E2E103C0E9FF02C0F4FF42
:103C000001C0F3FF0050E4CF0AF0E4CF09F0E4CFA5
:103C100008F0E4CF07F0E4CF06F0E4CF05F0E4CFFE
:103C200004F0E4CF03F0E4CF02F0E4CF01F0E4CFFE
:103C300000F0E4CFD9FF1200D9CFE5FFE1CFD9FFE3
:103C400000C0E5FF01C0E5FF02C0E5FF03C0E5FFDE
:103C500004C0E5FF05C0E5FF06C0E5FF07C0E5FFBE
:103C600008C0E5FF09C0E5FF0AC0E5FF0BC0E5FF9E
:103C70000CC0E5FF0DC0E5FF020EDBCF00F0030E28
:103C8000DBCF01F0040EDBCF02F0050EDBCF03F03B
:103C9000060EDBCF04F0070EDBCF05F0080EDBCFFE
:103CA00006F0090EDBCF07F0086A096A0A6A0B6A98
:103CB000200E0C6E0350800BE8440D6E0050002661
:103CC0000136023603360850082609360A360B3606
:103CD0000D50D8A4088007500B5C08E106500A5C20
:103CE00005E10550095C02E10450085C09E3045059
:103CF000085E0550095A06500A5A07500B5A0080B0
:103D00000C040D6E0DC00CF00D50D4E103C0E9FFA2
:103D100002C0F4FF01C0F3FF0050E4CF0DF0E4CF88
:103D20000CF0E4CF0BF0E4CF0AF0E4CF09F0E4CFDD
:103D300008F0E4CF07F0E4CF06F0E4CF05F0E4CFDD
:103D400004F0E4CF03F0E4CF02F0E4CF01F0E4CFDD
:103D500000F0E4CFD9FF1200D9CFE5FFE1CFD9FFC2
:103D600000C0E5FF01C0E5FF02C0E5FF03C0E5FFBD
:103D700004C0E5FF05C0E5FF06C0E5FF020EDBCF8E
:103D800000F0030EDBCF01F0040EDBCF02F0050ED6
:103D9000DBCF03F0060EDBCF04F0070EDBCF05F020
:103DA000080EDBCF06F00050010BF46E0F01075137
:103DB000FE0BF410076F0150010BE844F46E07513D
:103DC000FD0BF410076F0250010BE844E844F46E59
:103DD0000751FB0BF410076F0350010BE838E84064
:103DE000F46E0751F70BF410076F0450010BE8381D
:103DF000F46E0751EF0BF410076F0550010BE83814
:103E0000E844F46E0751DF0BF410076F0650010B06
:103E1000E840E840F46E0751BF0BF410076F0BEC5D
:103E200027F0A20EE56E4BEC26F0E6520E0EE56E84
:103E30004BEC26F0E6520F010751E56E4BEC26F0F5
:103E4000E652F3EC26F0E4CF06F0E4CF05F0E4CF41
:103E500004F0E4CF03F0E4CF02F0E4CF01F0E4CFCC
:103E600000F0E4CFD9FF1200D9CFE5FFE1CFD9FFB1
:103E700000C0E5FF01C0E5FF02C0E5FF03C0E5FFAC
:103E800004C0E5FF05C0E5FF06C0E5FF020EDBCF7D
:103E900000F0030EDBCF01F0040EDBCF02F0050EC5
:103EA000DBCF03F0060EDBCF04F0070EDBCF05F00F
:103EB0000BEC27F0A20EE56E4BEC26F0E652100E4E
:103EC000E56E4BEC26F0E652FFEC26F0A30EE56E15
:103ED0004BEC26F0E652010EE56EE8EC24F0066E9F
:103EE000E65206C0E5FF00C0E9FF01C0F3FF025043
:103EF00017EC27F0000EE56AE8EC24F0006EE652BD
:103F000000C0E5FF03C0E9FF04C0F3FF055017EC54
:103F100027F0F3EC26F0E4CF06F0E4CF05F0E4CF91
:103F200004F0E4CF03F0E4CF02F0E4CF01F0E4CFFB
:103F300000F0E4CFD9FF1200D9CFE5FFE1CFD9FFE0
:103F400000C0E5FF020EDBCF00F0000EE56ABEEC1C
:103F500024F0E6520F01056F005002E1059524D0D0
:103F60000F010591059305850F01066B0050010BAC
:103F7000E838F46E0651EF0BF410066F00407F0B2B
:103F8000010BE838E844F46E0651DF0BF410066FBD
:103F90000040E8403F0B010BE840E840F46E06515A
:103FA000BF0BF410066F068F0BEC27F0A20EE56E28
:103FB0004BEC26F0E652000EE56A4BEC26F0E6529A
:103FC0000F010551E56E4BEC26F0E652F3EC26F0BE
:103FD000005014E00BEC27F0A20EE56E4BEC26F03F
:103FE000E652080EE56E4BEC26F0E6520F01065144
:103FF000E56E4BEC26F0E652F3EC26F0E4CF00F051
:10400000E4CFD9FF1200D9CFE5FFE1CFD9FF00C03F
:10401000E5FF01C0E5FF02C0E5FF03C0E5FF04C006
:10402000E5FF05C0E5FF06C0E5FF020EDBCF00F0AF
:10403000030EDBCF01F0040EDBCF02F0050EDBCF69
:1040400003F000380F0BE56EF2EC25F0046EE6523B
:1040500004C0E5FF01C0E9FF02C0F3FF035017EC05
:1040600027F00150010F046E000E0220056E000EB5
:104070000320066E0050E56EF2EC25F0006EE6526D
:1040800000C0E5FF04C0E9FF05C0F3FF065017ECD0
:1040900027F0020E0126000E02220322E56A01C06B
:1040A000E9FF02C0F3FF035017EC27F0E4CF06F05E
:1040B000E4CF05F0E4CF04F0E4CF03F0E4CF02F066
:1040C000E4CF01F0E4CF00F0E4CFD9FF1200D9CF64
:1040D000E5FFE1CFD9FF00C0E5FF01C0E5FF02C069
:1040E000E5FF03C0E5FF04C0E5FF05C0E5FF06C02E
:1040F000E5FF020EDBCF00F0030EDBCF01F0040E74
:10410000DBCF02F0050EDBCF03F0046A056A035033
:10411000800BE844066E065011E102500226033679
:104120000350015C02E10250005C04E2D8900332CB
:10413000023204D0052A05C004F0E9D70350015C1F
:1041400002E10250005C04E30250005E0350015A99
:10415000D8900332023204C005F004060550EEE1A7
:1041600001C0F3FF0050E4CF06F0E4CF05F0E4CF48
:1041700004F0E4CF03F0E4CF02F0E4CF01F0E4CFA9
:1041800000F0E4CFD9FF1200D9CFE5FFE1CFD9FF8E
:1041900000C0E5FF01C0E5FF02C0E5FF03C0E5FF89
:1041A00004C0E5FF05C0E5FF06C0E5FF07C0E5FF69
:1041B000020EDBCF00F0030EDBCF01F0040EDBCFED
:1041C00002F0050EDBCF03F0046A056A100E066EDE
:1041D0000150800BE844076E005000260136045061
:1041E000042605360750D8A404800350055C02E17C
:1041F0000250045C05E30250045E0350055A00803F
:104200000604076E07C006F00750E2E101C0F3FFA5
:104210000050E4CF07F0E4CF06F0E4CF05F0E4CFA0
:1042200004F0E4CF03F0E4CF02F0E4CF01F0E4CFF8
:1042300000F0E4CFD9FF1200D9CFE5FFE1CFD9FFDD
:1042400000C0E5FF01C0E5FF02C0E5FF03C0E5FFD8
:1042500004C0E5FF020EDBCF00F0030EDBCF01F060
:10426000040EDBCF02F00050E56E10EC25F00F01DC
:104270000A6FE6522BEC27F0006A0150005C07E25F
:104280000250E56E82EC01F0E652002AF6D7006A91
:1042900001C002F0036A02501008026E000E0356BD
:1042A00000C004F0800FF36E0350800FF35C02E156
:1042B0000250045C07E2200EE56E82EC01F0E6524B
:1042C000002AE6D7E4CF04F0E4CF03F0E4CF02F015
:1042D000E4CF01F0E4CF00F0E4CFD9FF1200D9CF52
:1042E000E5FFE1CFD9FF00C0E5FF01C0E5FF020E09
:1042F000DBCF00F000380F0B016EE56EA8EC22F06A
:10430000E6520050E56EA8EC22F0E652380E9CEC26
:1043100022F000000000000000000000000000008B
:10432000000000000000000000000000000000008D
:10433000000000000000000000000000000000007D
:10434000000000000000000000000000000000006D
:10435000000000000000000000000000000000005D
:10436000000000000000000000000000000000004D
:104370000000E4CF01F0E4CF00F0E4CFD9FF120059
:1043800011EEFFF021EEFFF0F86AA68EA69C660EF5
:10439000F66E4E0EF76E000EF86E0900F5CF05F0C2
:1043A0000900F5CF06F034D00900F5CF00F0090080
:1043B000F5CF01F00900F5CF02F009000900F5CFB3
:1043C000E9FF0900F5CFEAFF090009000900F5CF70
:1043D00003F00900F5CF04F009000900F6CF07F05B
:1043E000F7CF08F0F8CF09F000C0F6FF01C0F7FFE3
:1043F00002C0F8FF03D00900F5CFEEFF0306FBE291
:104400000406F9E207C0F6FF08C0F7FF09C0F8FF8D
:104410000506CAE20606C8E2ADEC14F0FFD7D9CF14
:10442000E5FFE1CFD9FF00C0E5FF01C0E5FF02C015
:10443000E5FF020EDBCF00F0030EDBCF01F0040E30
:10444000DBCF02F00BEC27F0A20EE56E4BEC26F072
:10445000E652090EE56E4BEC26F0E652000EE56AD8
:1044600038EC24F0E652E56E4BEC26F0E6520250B2
:10447000E56E38EC24F0E652E56E4BEC26F0E652A1
:104480000150E56E38EC24F0E652E56E4BEC26F078
:10449000E6520050E56E38EC24F0E652E56E4BEC47
:1044A00026F0E652F3EC26F0E4CF02F0E4CF01F080
:1044B000E4CF00F0E4CFD9FF1200E806E56E630E0A
:1044C0009CEC22F0E4500BE000D0E56E630E9CEC17
:1044D00022F000D000D00000E450E82EF6D7120001
:1044E000E806E56E090E5DEC22F0630E9CEC22F00E
:1044F000E4500EE000D0E56E090E5DEC22F0630E94
:104500009CEC22F000D000D00000E450E82EF3D75D
:104510001200E806E56E090E9CEC22F0E4500BE078
:1045200000D0E56E090E9CEC22F000D0E4500000B3
:1045300000D0E82EF6D71200E8060000E85007E0A9
:1045400000D000D000D000D00000E82EFAD7120032
:10455000D9CFE5FFE1CFD9FF00C0E5FF020EDBCFE9
:1045600000F000500F01096F006A09B1002A0050E5
:10457000010BE838F46E8A50EF0BF4108A6E006A73
:1045800009B3002A0050010BE838E844F46E8A5061
:10459000DF0BF4108A6E006A09B5002A0050010B87
:1045A000E840E840F46E8A50BF0BF4108A6E006A4F
:1045B00009B7002A0050010BE840F46E8A507F0BC7
:1045C000F4108A6E8D8400000000000000000000DE
:1045D0000000000000008D94E4CF00F0E4CFD9FF8C
:1045E0001200D9CFE5FFE1CFD9FF00C0E5FF01C040
:1045F000E5FF02C0E5FF03C0E5FF04C0E5FF020ED2
:10460000DBCF00F0030EDBCF01F0026A080E036E71
:10461000800E0014046ED8900036D89002360450F4
:10462000D8A402800150025C03E30150025E0080C6
:104630000304046E04C003F00450EAE10050E4CF28
:1046400004F0E4CF03F0E4CF02F0E4CF01F0E4CFD4
:1046500000F0E4CFD9FF1200D9CFE5FFE1CFD9FFB9
:1046600000C0E5FF01C0E5FF02C0E5FF03C0E5FFB4
:10467000020EDBCF00F0030EDBCF01F0026A036A0B
:1046800001BE0CD0D89001360150005C03E2D890F6
:10469000013204D0032A03C002F0F2D70150005CBB
:1046A00002E30150005ED890013202C003F002061E
:1046B0000350F4E10050E4CF03F0E4CF02F0E4CF84
:1046C00001F0E4CF00F0E4CFD9FF1200D9CFE5FF2D
:1046D000E1CFD9FF00C0E5FF01C0E5FF02C0E5FF63
:1046E00003C0E5FF020EDBCF00F0030EDBCF01F0CD
:1046F000026A036A0150035C02E10050025C13E2AB
:1047000000000000000000000000000000000000A9
:104710000000000000000000000000000000000099
:10472000024A032AE7D7E4CF03F0E4CF02F0E4CF54
:1047300001F0E4CF00F0E4CFD9FF1200D9CFE5FFBC
:10474000E1CFD9FF00C0E5FF01C0E5FF02C0E5FFF2
:1047500003C0E5FF020EDBCF00F0030EDBCF01F05C
:10476000040EDBCF02F000C0E9FF01C0F3FF0250EE
:10477000B6EC26F0036E03500AE00350E56E90ECB1
:1047800026F0E652002AEFE3014A022AECD7E4CFF2
:1047900003F0E4CF02F0E4CF01F0E4CF00F0E4CF87
:1047A000D9FF1200D9CFE5FFE1CFD9FF00C0E5FF67
:1047B00001C0E5FF02C0E5FF03C0E5FF020EDBCF4D
:1047C00000F0030EDBCF01F0040EDBCF02F000C0DF
:1047D000E9FF01C0F3FF0250B6EC26F0036E035070
:1047E0000AE00350E56E90EC26F0E652002AEFE373
:1047F000014A022AECD7E4CF03F0E4CF02F0E4CF81
:1048000001F0E4CF00F0E4CFD9FF1200D9CFE5FFEB
:10481000E1CFD9FF00C0E5FF01C0E5FF02C0E5FF21
:1048200003C0E5FF020EDBCF00F0030EDBCF01F08B
:10483000040EDBCF02F0080E036E025002E00C0EF5
:10484000036E005002E0032A032A015001E0032A0C
:104850000350E56E7CEC26F0E652E4CF03F0E4CFA3
:1048600002F0E4CF01F0E4CF00F0E4CFD9FF120072
:10487000D9CFE5FFE1CFD9FF00C0E5FF01C0E5FFDB
:1048800002C0E5FF020EDBCF00F00A0EE56E00C0AD
:10489000E5FFF1EC22F0016EE450E4500138F00B3A
:1048A000026E0A0EE56E00C0E5FF2CEC23F0006EF0
:1048B000E450E450005002120250E4CF02F0E4CF82
:1048C00001F0E4CF00F0E4CFD9FF1200D9CFE5FF2B
:1048D000E1CFD9FF00C0E5FF01C0E5FF020EDBCF4D
:1048E00000F0030EDBCF01F00BEC27F0A20EE56E1B
:1048F0004BEC26F0E652100EE56E4BEC26F0E6523D
:104900000050E56E4BEC26F0E6520150E56E4BECA4
:1049100026F0E652F3EC26F0E4CF01F0E4CF00F00D
:10492000E4CFD9FF1200D9CFE5FFE1CFD9FF00C016
:10493000E5FF01C0E5FF02C0E5FF03C0E5FF020E91
:10494000DBCF00F0030EDBCF01F0026A036A0150F7
:10495000035C02E10050025C06E2A00E89EC22F04A
:10496000024A032AF4D7E4CF03F0E4CF02F0E4CF05
:1049700001F0E4CF00F0E4CFD9FF1200D9CFE5FF7A
:10498000E1CFD9FF00C0E5FF020EDBCF00F00BEC5A
:1049900027F0A20EE56E4BEC26F0E6520050E56ED5
:1049A0004BEC26F0E652FFEC26F0A30EE56E4BEC46
:1049B00026F0E652000EE56AE8EC24F0006EE652BE
:1049C000F3EC26F00050E4CF00F0E4CFD9FF120062
:1049D000D9CFE5FFE1CFD9FF00C0E5FF020EDBCF65
:1049E00000F0C586C7A0FED70050D880E866D890F2
:1049F000006A00360050010BE838E844F46EC550F8
:104A0000DF0BF410C56EC588006AC5B8002A0050D7
:104A1000010AFAE0C950E4CF00F0E4CFD9FF120058
:104A2000D9CFE5FFE1CFD9FF00C0E5FF020EDBCF14
:104A300000F0005C13E2005002E1E86A10D0005080
:104A4000010A02E1400E0BD00050020A02E1100EF2
:104A500006D00050030A02E1500E01D0E86AE4CF0C
:104A600000F0E4CFD9FF1200D9CFE5FFE1CFD9FFA5
:104A700000C0E5FF020EDBCF00F00050E56E10EC49
:104A800025F00F010A6FE6522BEC27F0006A200E8A
:104A9000E56E82EC01F0E652002A100E005CF7E3AE
:104AA0002BEC27F0E4CF00F0E4CFD9FF1200D9CFF0
:104AB000E5FFE1CFD9FF00C0E5FF01C0E5FF020E31
:104AC000DBCF00F000500BE0016A0050015C07E210
:104AD000140EE56E7CEC26F0E652012AF6D7E4CF00
:104AE00001F0E4CF00F0E4CFD9FF1200D9CFE5FF09
:104AF000E1CFD9FF00C0E5FF01C0E5FF020EDBCF2B
:104B000000F000500BE0016A0050015C07E2100E5B
:104B1000E56E7CEC26F0E652012AF6D7E4CF01F0F0
:104B2000E4CF00F0E4CFD9FF1200D9CFE5FFE1CF09
:104B3000D9FF00C0E5FF01C0E5FF020EDBCF00F0AA
:104B400000500BE0016A0050015C07E21C0EE56EAC
:104B50007CEC26F0E652012AF6D7E4CF01F0E4CF50
:104B600000F0E4CFD9FF1200D9CFE5FFE1CFD9FFA4
:104B700000C0E5FF01C0E5FF020EDBCF00F00050F2
:104B80000BE0016A0050015C07E2180EE56E7CEC58
:104B900026F0E652012AF6D7E4CF01F0E4CF00F088
:104BA000E4CFD9FF1200D9CFE5FFE1CFD9FF00C094
:104BB000E5FF01C0E5FF020EDBCF00F0030EDBCF07
:104BC00001F00050E56E10EC25F0E65201240F01D3
:104BD0000A6F2BEC27F0E4CF01F0E4CF00F0E4CF34
:104BE000D9FF1200D9CFE5FFE1CFD9FF00C0E5FF23
:104BF00001C0E5FF020EDBCF00F00F0E0016300EF5
:104C000000263A0E005C05E30050016E070E0124F9
:104C1000006E0050E4CF01F0E4CF00F0E4CFD9FF04
:104C20001200000EE56ABEEC24F0E6520F01086F98
:104C3000089108930BEC27F0A20EE56E4BEC26F0E2
:104C4000E652000EE56A4BEC26F0E6520F010851E1
:104C5000E56E4BEC26F0E652F3EC26F01200D9CFCD
:104C6000E5FFE1CFD9FF00C0E5FF01C0E5FF020E7F
:104C7000DBCF00F000380F0B0A0DF3CF01F00F0E61
:104C80000016005001260150E4CF01F0E4CF00F0FF
:104C9000E4CFD9FF1200D9CFE5FFE1CFD9FF00C0A3
:104CA000E5FF020EDBCF00F09E9600C0C9FF9EA676
:104CB000FED7C5BC02D0010E03D0C69AC68AE86AE8
:104CC000E4CF00F0E4CFD9FF1200D9CFE5FFE1CF68
:104CD000D9FF00C0E5FF020EDBCF00F09486948878
:104CE000280EC66E200EC56E00C0C8FFC76AE4CF8E
:104CF00000F0E4CFD9FF1200D9CFE5FFE1CFD9FF13
:104D000000C0E5FF020EDBCF00F08D920050E56E93
:104D10006FEC21F0E652E4CF00F0E4CFD9FF1200AF
:104D2000D9CFE5FFE1CFD9FF00C0E5FF020EDBCF11
:104D300000F08D820050E56E6FEC21F0E652E4CF7A
:104D400000F0E4CFD9FF1200F2CFEAFFF29EA69E58
:104D5000A69CA684E9CFA9FFF3CFAAFFE4CFA8FFC2
:104D600022EC27F0A694EABEF28E1200E8AE04D040
:104D7000F3CFEAFFEE501200E8BC3AEF27F0E9CF9C
:104D8000F6FFF3CFF7FFF86E0900F5501200020EA0
:104D9000E56E7CEC26F0E652A00E89EC22F0500E77
:104DA00089EC22F0300E89EC22F01200010EE56E43
:104DB0007CEC26F0E652A00E89EC22F0500E89EC35
:104DC00022F0300E89EC22F01200F2CFF6FFF29EB4
:104DD000A69EA69CE9CFA9FFF3CFAAFFA680A85064
:104DE000F6BEF28E120000C0E5FFC584006AC5B4AD
:104DF000002A0050010AFAE0E4CF00F0120000C0DF
:104E0000E5FFC582006AC5B2002A0050010AFAE037
:104E1000E4CF00F0120000C0E5FFC580006AC5B015
:104E2000002A0050010AFAE0E4CF00F01200E8AED8
:104E300005D0F3CFEAFFE4CFEEFF1200E8BC3CEF71
:104E400027F01200550EA76EAA0EA76EA682A6B274
:104E5000FED7A94AAA2A800E0F010A11E56E7CEC42
:104E600026F0E652120001007C4E0000040F000004
:0E4E700001000000E5EF26F0A4EF26F00000A0
:00000001FF
