:020000040000FA
:10030000FAEF22F0D9CFE5FFE1CFD9FF00C0E5FF3A
:10031000020EDBCF00F00050E56E51EC28F0E65203
:10032000E4CF00F0E4CFD9FF1200D9CFE5FFE1CF51
:10033000D9FF00C0E5FF01C0E5FF02C0E5FF03C033
:10034000E5FF04C0E5FF05C0E5FF06C0E5FF07C007
:10035000E5FF08C0E5FF09C0E5FF0AC0E5FF020EA2
:10036000DBCF00F0030EDBCF01F0040EDBCF02F099
:10037000050EDBCF03F0060EDBCF04F0070EDBCF5C
:1003800005F0080EDBCF06F03B0E035C08E19A0E89
:10039000025C05E1CA0E015C02E1000E005CD8A01F
:1003A00018EF04F00450090F076E000E0520086EC8
:1003B000000E0620096EE56AE56AE56A0A0EE56E3A
:1003C0000350E56E0250E56E0150E56E0050E56E9B
:1003D00056EC1EF00A6E080EE126300E0A260AC000
:1003E000E5FF07C0E9FF08C0F3FF0950D8EC28F08B
:1003F000E56AE56AE56A0A0EE56E0350E56E0250AD
:10040000E56E0150E56E0050E56EF3EC1EF0006EF7
:10041000F3CF01F0F4CF02F0E9CF03F0080EE126AC
:100420000450080F076E000E0520086E000E06200F
:10043000096EE56AE56AE56A0A0EE56E0350E56E47
:100440000250E56E0150E56E0050E56E56EC1EF070
:100450000A6E080EE126300E0A260AC0E5FF07C024
:10046000E9FF08C0F3FF0950D8EC28F0E56AE56A17
:10047000E56A0A0EE56E0350E56E0250E56E015026
:10048000E56E0050E56EF3EC1EF0006EF3CF01F068
:10049000F4CF02F0E9CF03F0080EE1260450070F75
:1004A000076E000E0520086E000E0620096EE56A34
:1004B000E56AE56A0A0EE56E0350E56E0250E56EE8
:1004C0000150E56E0050E56E56EC1EF00A6E080E07
:1004D000E126300E0A260AC0E5FF07C0E9FF08C082
:1004E000F3FF0950D8EC28F0E56AE56AE56A0A0EE0
:1004F000E56E0350E56E0250E56E0150E56E00506A
:10050000E56EF3EC1EF0006EF3CF01F0F4CF02F0D5
:10051000E9CF03F0080EE1260450060F076E000E27
:100520000520086E000E0620096EE56AE56AE56A98
:100530000A0EE56E0350E56E0250E56E0150E56E61
:100540000050E56E56EC1EF00A6E080EE126300EE5
:100550000A260AC0E5FF07C0E9FF08C0F3FF0950FB
:10056000D8EC28F0E56AE56AE56A0A0EE56E035004
:10057000E56E0250E56E0150E56E0050E56EF3EC5D
:100580001EF0006EF3CF01F0F4CF02F0E9CF03F0DC
:10059000080EE1260450050F076E000E0520086EB8
:1005A000000E0620096EE56AE56AE56A0A0EE56E48
:1005B0000350E56E0250E56E0150E56E0050E56EA9
:1005C00056EC1EF00A6E080EE126300E0A260AC00E
:1005D000E5FF07C0E9FF08C0F3FF0950D8EC28F099
:1005E000E56AE56AE56A0A0EE56E0350E56E0250BB
:1005F000E56E0150E56E0050E56EF3EC1EF0006E06
:10060000F3CF01F0F4CF02F0E9CF03F0080EE126BA
:100610000450040F076E000E0520086E000E062021
:10062000096EE56AE56AE56A0A0EE56E0350E56E55
:100630000250E56E0150E56E0050E56E56EC1EF07E
:100640000A6E080EE126300E0A260AC0E5FF07C032
:10065000E9FF08C0F3FF0950D8EC28F0E56AE56A25
:10066000E56A0A0EE56E0350E56E0250E56E015034
:10067000E56E0050E56EF3EC1EF0006EF3CF01F076
:10068000F4CF02F0E9CF03F0080EE1260450030F87
:10069000076E000E0520086E000E0620096EE56A42
:1006A000E56AE56A0A0EE56E0350E56E0250E56EF6
:1006B0000150E56E0050E56E56EC1EF00A6E080E15
:1006C000E126300E0A260AC0E5FF07C0E9FF08C090
:1006D000F3FF0950D8EC28F0E56AE56AE56A0A0EEE
:1006E000E56E0350E56E0250E56E0150E56E005078
:1006F000E56EF3EC1EF0006EF3CF01F0F4CF02F0E4
:10070000E9CF03F0080EE1260450020F076E000E39
:100710000520086E000E0620096EE56AE56AE56AA6
:100720000A0EE56E0350E56E0250E56E0150E56E6F
:100730000050E56E56EC1EF00A6E080EE126300EF3
:100740000A260AC0E5FF07C0E9FF08C0F3FF095009
:10075000D8EC28F0E56AE56AE56A0A0EE56E035012
:10076000E56E0250E56E0150E56E0050E56EF3EC6B
:100770001EF0006EF3CF01F0F4CF02F0E9CF03F0EA
:10078000080EE1260450010F076E000E0520086ECA
:10079000000E0620096EE56AE56AE56A0A0EE56E56
:1007A0000350E56E0250E56E0150E56E0050E56EB7
:1007B00056EC1EF00A6E080EE126300E0A260AC01C
:1007C000E5FF07C0E9FF08C0F3FF0950D8EC28F0A7
:1007D000E56AE56AE56A0A0EE56E0350E56E0250C9
:1007E000E56E0150E56E0050E56EF3EC1EF0006E14
:1007F000080EE1260050076E300E072607C0E5FF01
:1008000004C0E9FF05C0F3FF0650D8EC28F00450FF
:100810000A0F076E000E0520086E000E0620E56A1E
:1008200007C0E9FF08C0F3FFD8EC28F039EF11F05A
:10083000050E035C08E1F50E025C05E1E10E015CCA
:1008400002E1000E005CD8A040EF06F00450090F52
:10085000076E000E0520086E000E0620096EE56A80
:10086000E56AE56A0A0EE56E0350E56E0250E56E34
:100870000150E56E0050E56E56EC1EF00A6E080E53
:10088000E126300E0A260AC0E5FF07C0E9FF08C0CE
:10089000F3FF0950D8EC28F0E56AE56AE56A0A0E2C
:1008A000E56E0350E56E0250E56E0150E56E0050B6
:1008B000E56EF3EC1EF0006EF3CF01F0F4CF02F022
:1008C000E9CF03F0080EE1260450080F076E000E72
:1008D0000520086E000E0620096EE56AE56AE56AE5
:1008E0000A0EE56E0350E56E0250E56E0150E56EAE
:1008F0000050E56E56EC1EF00A6E080EE126300E32
:100900000A260AC0E5FF07C0E9FF08C0F3FF095047
:10091000D8EC28F0E56AE56AE56A0A0EE56E035050
:10092000E56E0250E56E0150E56E0050E56EF3ECA9
:100930001EF0006EF3CF01F0F4CF02F0E9CF03F028
:10094000080EE1260450070F076E000E0520086E02
:10095000000E0620096EE56AE56AE56A0A0EE56E94
:100960000350E56E0250E56E0150E56E0050E56EF5
:1009700056EC1EF00A6E080EE126300E0A260AC05A
:10098000E5FF07C0E9FF08C0F3FF0950D8EC28F0E5
:10099000E56AE56AE56A0A0EE56E0350E56E025007
:1009A000E56E0150E56E0050E56EF3EC1EF0006E52
:1009B000F3CF01F0F4CF02F0E9CF03F0080EE12607
:1009C0000450060F076E000E0520086E000E06206C
:1009D000096EE56AE56AE56A0A0EE56E0350E56EA2
:1009E0000250E56E0150E56E0050E56E56EC1EF0CB
:1009F0000A6E080EE126300E0A260AC0E5FF07C07F
:100A0000E9FF08C0F3FF0950D8EC28F0E56AE56A71
:100A1000E56A0A0EE56E0350E56E0250E56E015080
:100A2000E56E0050E56EF3EC1EF0006EF3CF01F0C2
:100A3000F4CF02F0E9CF03F0080EE1260450050FD1
:100A4000076E000E0520086E000E0620096EE56A8E
:100A5000E56AE56A0A0EE56E0350E56E0250E56E42
:100A60000150E56E0050E56E56EC1EF00A6E080E61
:100A7000E126300E0A260AC0E5FF07C0E9FF08C0DC
:100A8000F3FF0950D8EC28F0E56AE56AE56A0A0E3A
:100A9000E56E0350E56E0250E56E0150E56E0050C4
:100AA000E56EF3EC1EF0006EF3CF01F0F4CF02F030
:100AB000E9CF03F0080EE1260450040F076E000E84
:100AC0000520086E000E0620096EE56AE56AE56AF3
:100AD0000A0EE56E0350E56E0250E56E0150E56EBC
:100AE0000050E56E56EC1EF00A6E080EE126300E40
:100AF0000A260AC0E5FF07C0E9FF08C0F3FF095056
:100B0000D8EC28F0E56AE56AE56A0A0EE56E03505E
:100B1000E56E0250E56E0150E56E0050E56EF3ECB7
:100B20001EF0006EF3CF01F0F4CF02F0E9CF03F036
:100B3000080EE1260450030F076E000E0520086E14
:100B4000000E0620096EE56AE56AE56A0A0EE56EA2
:100B50000350E56E0250E56E0150E56E0050E56E03
:100B600056EC1EF00A6E080EE126300E0A260AC068
:100B7000E5FF07C0E9FF08C0F3FF0950D8EC28F0F3
:100B8000E56AE56AE56A0A0EE56E0350E56E025015
:100B9000E56E0150E56E0050E56EF3EC1EF0006E60
:100BA000F3CF01F0F4CF02F0E9CF03F0080EE12615
:100BB0000450020F076E000E0520086E000E06207E
:100BC000096EE56AE56AE56A0A0EE56E0350E56EB0
:100BD0000250E56E0150E56E0050E56E56EC1EF0D9
:100BE0000A6E080EE126300E0A260AC0E5FF07C08D
:100BF000E9FF08C0F3FF0950D8EC28F0E56AE56A80
:100C0000E56A0A0EE56E0350E56E0250E56E01508E
:100C1000E56E0050E56EF3EC1EF0006E080EE12666
:100C20000450010F076E000E0520086E000E06200E
:100C3000096E00500A6E300E0A260AC0E5FF07C092
:100C4000E9FF08C0F3FF0950D8EC28F0200EE56E4C
:100C500004C0E9FF05C0F3FF0650D8EC28F00450AB
:100C60000A0F076E000E0520086E000E0620E56ACA
:100C700007C0E9FF08C0F3FFD8EC28F039EF11F006
:100C8000000E035C08E1980E025C05E1960E015C23
:100C900002E1800E005CD8A0EED10450090F076E6F
:100CA000000E0520086E000E0620096EE56AE56A52
:100CB000E56A0A0EE56E0350E56E0250E56E0150DE
:100CC000E56E0050E56E56EC1EF00A6E080EE12649
:100CD000300E0A260AC0E5FF07C0E9FF08C0F3FF8F
:100CE0000950D8EC28F0E56AE56AE56A0A0EE56E77
:100CF0000350E56E0250E56E0150E56E0050E56E62
:100D0000F3EC1EF0006EF3CF01F0F4CF02F0E9CF68
:100D100003F0080EE1260450080F076E000E0520B0
:100D2000086E000E0620096EE56AE56AE56A0A0E9D
:100D3000E56E0350E56E0250E56E0150E56E005021
:100D4000E56E56EC1EF00A6E080EE126300E0A26FD
:100D50000AC0E5FF07C0E9FF08C0F3FF0950D8EC5F
:100D600028F0E56AE56AE56A0A0EE56E0350E56E6D
:100D70000250E56E0150E56E0050E56EF3EC1EF09A
:100D8000006EF3CF01F0F4CF02F0E9CF03F0080ECC
:100D9000E1260450070F076E000E0520086E000EB6
:100DA0000620096EE56AE56AE56A0A0EE56E0350FB
:100DB000E56E0250E56E0150E56E0050E56E56ECB2
:100DC0001EF00A6E080EE126300E0A260AC0E5FF64
:100DD00007C0E9FF08C0F3FF0950D8EC28F0E56A26
:100DE000E56AE56A0A0EE56E0350E56E0250E56EAF
:100DF0000150E56E0050E56EF3EC1EF0006EF3CF8F
:100E000001F0F4CF02F0E9CF03F0080EE126045020
:100E1000060F076E000E0520086E000E0620096EF4
:100E2000E56AE56AE56A0A0EE56E0350E56E025072
:100E3000E56E0150E56E0050E56E56EC1EF00A6E50
:100E4000080EE126300E0A260AC0E5FF07C0E9FFBA
:100E500008C0F3FF0950D8EC28F0E56AE56AE56AB6
:100E60000A0EE56E0350E56E0250E56E0150E56E28
:100E70000050E56EF3EC1EF0006EF3CF01F0F4CFFE
:100E800002F0E9CF03F0080EE1260450050F076ECB
:100E9000000E0520086E000E0620096EE56AE56A60
:100EA000E56A0A0EE56E0350E56E0250E56E0150EC
:100EB000E56E0050E56E56EC1EF00A6E080EE12657
:100EC000300E0A260AC0E5FF07C0E9FF08C0F3FF9D
:100ED0000950D8EC28F0E56AE56AE56A0A0EE56E85
:100EE0000350E56E0250E56E0150E56E0050E56E70
:100EF000F3EC1EF0006EF3CF01F0F4CF02F0E9CF77
:100F000003F0080EE1260450040F076E000E0520C2
:100F1000086E000E0620096EE56AE56AE56A0A0EAB
:100F2000E56E0350E56E0250E56E0150E56E00502F
:100F3000E56E56EC1EF00A6E080EE126300E0A260B
:100F40000AC0E5FF07C0E9FF08C0F3FF0950D8EC6D
:100F500028F0E56AE56AE56A0A0EE56E0350E56E7B
:100F60000250E56E0150E56E0050E56EF3EC1EF0A8
:100F7000006EF3CF01F0F4CF02F0E9CF03F0080EDA
:100F8000E1260450030F076E000E0520086E000EC8
:100F90000620096EE56AE56AE56A0A0EE56E035009
:100FA000E56E0250E56E0150E56E0050E56E56ECC0
:100FB0001EF00A6E080EE126300E0A260AC0E5FF72
:100FC00007C0E9FF08C0F3FF0950D8EC28F0E56A34
:100FD000E56AE56A0A0EE56E0350E56E0250E56EBD
:100FE0000150E56E0050E56EF3EC1EF0006E080E49
:100FF000E1260450020F076E000E0520086E000E59
:101000000620096E00500A6E300E0A260AC0E5FF5F
:1010100007C0E9FF08C0F3FF0950D8EC28F00450DE
:10102000010F076E000E0520086E000E0620096EE7
:10103000200EE56E07C0E9FF08C0F3FF0950D8ECA9
:1010400028F0200EE56E04C0E9FF05C0F3FF06504E
:10105000D8EC28F004500A0F076E000E0520086E29
:10106000000E0620E56A07C0E9FF08C0F3FFD8ECD0
:1010700028F039EF11F0000E035C08E10F0E025C5E
:1010800005E1420E015C02E1400E005CD8A0C2D135
:101090000450090F076E000E0520086E000E062092
:1010A000096EE56AE56AE56A0A0EE56E0350E56ECB
:1010B0000250E56E0150E56E0050E56E56EC1EF0F4
:1010C0000A6E080EE126300E0A260AC0E5FF07C0A8
:1010D000E9FF08C0F3FF0950D8EC28F0E56AE56A9B
:1010E000E56A0A0EE56E0350E56E0250E56E0150AA
:1010F000E56E0050E56EF3EC1EF0006EF3CF01F0EC
:10110000F4CF02F0E9CF03F0080EE1260450080FF7
:10111000076E000E0520086E000E0620096EE56AB7
:10112000E56AE56A0A0EE56E0350E56E0250E56E6B
:101130000150E56E0050E56E56EC1EF00A6E080E8A
:10114000E126300E0A260AC0E5FF07C0E9FF08C005
:10115000F3FF0950D8EC28F0E56AE56AE56A0A0E63
:10116000E56E0350E56E0250E56E0150E56E0050ED
:10117000E56EF3EC1EF0006EF3CF01F0F4CF02F059
:10118000E9CF03F0080EE1260450070F076E000EAA
:101190000520086E000E0620096EE56AE56AE56A1C
:1011A0000A0EE56E0350E56E0250E56E0150E56EE5
:1011B0000050E56E56EC1EF00A6E080EE126300E69
:1011C0000A260AC0E5FF07C0E9FF08C0F3FF09507F
:1011D000D8EC28F0E56AE56AE56A0A0EE56E035088
:1011E000E56E0250E56E0150E56E0050E56EF3ECE1
:1011F0001EF0006EF3CF01F0F4CF02F0E9CF03F060
:10120000080EE1260450060F076E000E0520086E3A
:10121000000E0620096EE56AE56AE56A0A0EE56ECB
:101220000350E56E0250E56E0150E56E0050E56E2C
:1012300056EC1EF00A6E080EE126300E0A260AC091
:10124000E5FF07C0E9FF08C0F3FF0950D8EC28F01C
:10125000E56AE56AE56A0A0EE56E0350E56E02503E
:10126000E56E0150E56E0050E56EF3EC1EF0006E89
:10127000F3CF01F0F4CF02F0E9CF03F0080EE1263E
:101280000450050F076E000E0520086E000E0620A4
:10129000096EE56AE56AE56A0A0EE56E0350E56ED9
:1012A0000250E56E0150E56E0050E56E56EC1EF002
:1012B0000A6E080EE126300E0A260AC0E5FF07C0B6
:1012C000E9FF08C0F3FF0950D8EC28F0E56AE56AA9
:1012D000E56A0A0EE56E0350E56E0250E56E0150B8
:1012E000E56E0050E56EF3EC1EF0006EF3CF01F0FA
:1012F000F4CF02F0E9CF03F0080EE1260450040F0A
:10130000076E000E0520086E000E0620096EE56AC5
:10131000E56AE56A0A0EE56E0350E56E0250E56E79
:101320000150E56E0050E56E56EC1EF00A6E080E98
:10133000E126300E0A260AC0E5FF07C0E9FF08C013
:10134000F3FF0950D8EC28F0E56AE56AE56A0A0E71
:10135000E56E0350E56E0250E56E0150E56E0050FB
:10136000E56EF3EC1EF0006E080EE1260450030F4C
:10137000076E000E0520086E000E0620096E005054
:101380000A6E300E0A260AC0E5FF07C0E9FF08C052
:10139000F3FF0950D8EC28F00450020F076E000E3E
:1013A0000520086E000E0620096E200EE56E07C0AF
:1013B000E9FF08C0F3FF0950D8EC28F00450010FF2
:1013C000076E000E0520086E000E0620096E200E26
:1013D000E56E07C0E9FF08C0F3FF0950D8EC28F01C
:1013E000200EE56E04C0E9FF05C0F3FF0650D8ECFF
:1013F00028F004500A0F076E000E0520086E000E3C
:101400000620E56A07C0E9FF08C0F3FFD8EC28F022
:1014100039EF11F0000E035C08E1010E025C05E1FA
:10142000860E015C02E1A00E005CD8A096D10450AB
:10143000090F076E000E0520086E000E0620096ECB
:10144000E56AE56AE56A0A0EE56E0350E56E02504C
:10145000E56E0150E56E0050E56E56EC1EF00A6E2A
:10146000080EE126300E0A260AC0E5FF07C0E9FF94
:1014700008C0F3FF0950D8EC28F0E56AE56AE56A90
:101480000A0EE56E0350E56E0250E56E0150E56E02
:101490000050E56EF3EC1EF0006EF3CF01F0F4CFD8
:1014A00002F0E9CF03F0080EE1260450080F076EA2
:1014B000000E0520086E000E0620096EE56AE56A3A
:1014C000E56A0A0EE56E0350E56E0250E56E0150C6
:1014D000E56E0050E56E56EC1EF00A6E080EE12631
:1014E000300E0A260AC0E5FF07C0E9FF08C0F3FF77
:1014F0000950D8EC28F0E56AE56AE56A0A0EE56E5F
:101500000350E56E0250E56E0150E56E0050E56E49
:10151000F3EC1EF0006EF3CF01F0F4CF02F0E9CF50
:1015200003F0080EE1260450070F076E000E052099
:10153000086E000E0620096EE56AE56AE56A0A0E85
:10154000E56E0350E56E0250E56E0150E56E005009
:10155000E56E56EC1EF00A6E080EE126300E0A26E5
:101560000AC0E5FF07C0E9FF08C0F3FF0950D8EC47
:1015700028F0E56AE56AE56A0A0EE56E0350E56E55
:101580000250E56E0150E56E0050E56EF3EC1EF082
:10159000006EF3CF01F0F4CF02F0E9CF03F0080EB4
:1015A000E1260450060F076E000E0520086E000E9F
:1015B0000620096EE56AE56AE56A0A0EE56E0350E3
:1015C000E56E0250E56E0150E56E0050E56E56EC9A
:1015D0001EF00A6E080EE126300E0A260AC0E5FF4C
:1015E00007C0E9FF08C0F3FF0950D8EC28F0E56A0E
:1015F000E56AE56A0A0EE56E0350E56E0250E56E97
:101600000150E56E0050E56EF3EC1EF0006EF3CF76
:1016100001F0F4CF02F0E9CF03F0080EE126045008
:10162000050F076E000E0520086E000E0620096EDD
:10163000E56AE56AE56A0A0EE56E0350E56E02505A
:10164000E56E0150E56E0050E56E56EC1EF00A6E38
:10165000080EE126300E0A260AC0E5FF07C0E9FFA2
:1016600008C0F3FF0950D8EC28F0E56AE56AE56A9E
:101670000A0EE56E0350E56E0250E56E0150E56E10
:101680000050E56EF3EC1EF0006E080EE1260450EB
:10169000040F076E000E0520086E000E0620096E6E
:1016A00000500A6E300E0A260AC0E5FF07C0E9FFA7
:1016B00008C0F3FF0950D8EC28F00450030F076E60
:1016C000000E0520086E000E0620096E200EE56E45
:1016D00007C0E9FF08C0F3FF0950D8EC28F0045018
:1016E000020F076E000E0520086E000E0620096E20
:1016F000200EE56E07C0E9FF08C0F3FF0950D8ECE3
:1017000028F00450010F076E000E0520086E000E31
:101710000620096E200EE56E07C0E9FF08C0F3FF42
:101720000950D8EC28F0200EE56E04C0E9FF05C092
:10173000F3FF0650D8EC28F004500A0F076E000E95
:101740000520086E000E0620E56A07C0E9FF08C004
:10175000F3FFD8EC28F039EF11F0000E035C08E13C
:10176000000E025C05E1270E015C02E1100E005C38
:10177000D8A06AD10450090F076E000E0520086E2C
:10178000000E0620096EE56AE56AE56A0A0EE56E56
:101790000350E56E0250E56E0150E56E0050E56EB7
:1017A00056EC1EF00A6E080EE126300E0A260AC01C
:1017B000E5FF07C0E9FF08C0F3FF0950D8EC28F0A7
:1017C000E56AE56AE56A0A0EE56E0350E56E0250C9
:1017D000E56E0150E56E0050E56EF3EC1EF0006E14
:1017E000F3CF01F0F4CF02F0E9CF03F0080EE126C9
:1017F0000450080F076E000E0520086E000E06202C
:10180000096EE56AE56AE56A0A0EE56E0350E56E63
:101810000250E56E0150E56E0050E56E56EC1EF08C
:101820000A6E080EE126300E0A260AC0E5FF07C040
:10183000E9FF08C0F3FF0950D8EC28F0E56AE56A33
:10184000E56A0A0EE56E0350E56E0250E56E015042
:10185000E56E0050E56EF3EC1EF0006EF3CF01F084
:10186000F4CF02F0E9CF03F0080EE1260450070F91
:10187000076E000E0520086E000E0620096EE56A50
:10188000E56AE56A0A0EE56E0350E56E0250E56E04
:101890000150E56E0050E56E56EC1EF00A6E080E23
:1018A000E126300E0A260AC0E5FF07C0E9FF08C09E
:1018B000F3FF0950D8EC28F0E56AE56AE56A0A0EFC
:1018C000E56E0350E56E0250E56E0150E56E005086
:1018D000E56EF3EC1EF0006EF3CF01F0F4CF02F0F2
:1018E000E9CF03F0080EE1260450060F076E000E44
:1018F0000520086E000E0620096EE56AE56AE56AB5
:101900000A0EE56E0350E56E0250E56E0150E56E7D
:101910000050E56E56EC1EF00A6E080EE126300E01
:101920000A260AC0E5FF07C0E9FF08C0F3FF095017
:10193000D8EC28F0E56AE56AE56A0A0EE56E035020
:10194000E56E0250E56E0150E56E0050E56EF3EC79
:101950001EF0006E080EE1260450050F076E000E03
:101960000520086E000E0620096E00500A6E300E2B
:101970000A260AC0E5FF07C0E9FF08C0F3FF0950C7
:10198000D8EC28F00450040F076E000E0520086EF6
:10199000000E0620096E200EE56E07C0E9FF08C0A4
:1019A000F3FF0950D8EC28F00450030F076E000E27
:1019B0000520086E000E0620096E200EE56E07C099
:1019C000E9FF08C0F3FF0950D8EC28F00450020FDB
:1019D000076E000E0520086E000E0620096E200E10
:1019E000E56E07C0E9FF08C0F3FF0950D8EC28F006
:1019F0000450010F076E000E0520086E000E062031
:101A0000096E200EE56E07C0E9FF08C0F3FF09501C
:101A1000D8EC28F0200EE56E04C0E9FF05C0F3FF06
:101A20000650D8EC28F004500A0F076E000E05206F
:101A3000086E000E0620E56A07C0E9FF08C0F3FF44
:101A4000D8EC28F039EF11F0000E035C08E1000E2D
:101A5000025C05E1030E015C02E1E80E005CD8A027
:101A60003ED10450090F076E000E0520086E000ECF
:101A70000620096EE56AE56AE56A0A0EE56E03501E
:101A8000E56E0250E56E0150E56E0050E56E56ECD5
:101A90001EF00A6E080EE126300E0A260AC0E5FF87
:101AA00007C0E9FF08C0F3FF0950D8EC28F0E56A49
:101AB000E56AE56A0A0EE56E0350E56E0250E56ED2
:101AC0000150E56E0050E56EF3EC1EF0006EF3CFB2
:101AD00001F0F4CF02F0E9CF03F0080EE126045044
:101AE000080F076E000E0520086E000E0620096E16
:101AF000E56AE56AE56A0A0EE56E0350E56E025096
:101B0000E56E0150E56E0050E56E56EC1EF00A6E73
:101B1000080EE126300E0A260AC0E5FF07C0E9FFDD
:101B200008C0F3FF0950D8EC28F0E56AE56AE56AD9
:101B30000A0EE56E0350E56E0250E56E0150E56E4B
:101B40000050E56EF3EC1EF0006EF3CF01F0F4CF21
:101B500002F0E9CF03F0080EE1260450070F076EEC
:101B6000000E0520086E000E0620096EE56AE56A83
:101B7000E56A0A0EE56E0350E56E0250E56E01500F
:101B8000E56E0050E56E56EC1EF00A6E080EE1267A
:101B9000300E0A260AC0E5FF07C0E9FF08C0F3FFC0
:101BA0000950D8EC28F0E56AE56AE56A0A0EE56EA8
:101BB0000350E56E0250E56E0150E56E0050E56E93
:101BC000F3EC1EF0006E080EE1260450060F076EBF
:101BD000000E0520086E000E0620096E00500A6EE9
:101BE000300E0A260AC0E5FF07C0E9FF08C0F3FF70
:101BF0000950D8EC28F00450050F076E000E0520A0
:101C0000086E000E0620096E200EE56E07C0E9FF83
:101C100008C0F3FF0950D8EC28F00450040F076EF9
:101C2000000E0520086E000E0620096E200EE56EDF
:101C300007C0E9FF08C0F3FF0950D8EC28F00450B2
:101C4000030F076E000E0520086E000E0620096EB9
:101C5000200EE56E07C0E9FF08C0F3FF0950D8EC7D
:101C600028F00450020F076E000E0520086E000ECB
:101C70000620096E200EE56E07C0E9FF08C0F3FFDD
:101C80000950D8EC28F00450010F076E000E052013
:101C9000086E000E0620096E200EE56E07C0E9FFF3
:101CA00008C0F3FF0950D8EC28F0200EE56E04C000
:101CB000E9FF05C0F3FF0650D8EC28F004500A0FE6
:101CC000076E000E0520086E000E0620E56A07C0AC
:101CD000E9FF08C0F3FFD8EC28F039EF11F0000E4F
:101CE000035C08E1000E025C05E1000E015C02E10C
:101CF000640E005CD8A011D10450090F076E000ECD
:101D00000520086E000E0620096EE56AE56AE56AA0
:101D10000A0EE56E0350E56E0250E56E0150E56E69
:101D20000050E56E56EC1EF00A6E080EE126300EED
:101D30000A260AC0E5FF07C0E9FF08C0F3FF095003
:101D4000D8EC28F0E56AE56AE56A0A0EE56E03500C
:101D5000E56E0250E56E0150E56E0050E56EF3EC65
:101D60001EF0006EF3CF01F0F4CF02F0E9CF03F0E4
:101D7000080EE1260450080F076E000E0520086EBD
:101D8000000E0620096EE56AE56AE56A0A0EE56E50
:101D90000350E56E0250E56E0150E56E0050E56EB1
:101DA00056EC1EF00A6E080EE126300E0A260AC016
:101DB000E5FF07C0E9FF08C0F3FF0950D8EC28F0A1
:101DC000E56AE56AE56A0A0EE56E0350E56E0250C3
:101DD000E56E0150E56E0050E56EF3EC1EF0006E0E
:101DE000080EE1260450070F076E000E0520086E4E
:101DF000000E0620096E00500A6E300E0A260AC038
:101E0000E5FF07C0E9FF08C0F3FF0950D8EC28F050
:101E10000450060F076E000E0520086E000E062007
:101E2000096E200EE56E07C0E9FF08C0F3FF0950F8
:101E3000D8EC28F00450050F076E000E0520086E40
:101E4000000E0620096E200EE56E07C0E9FF08C0EF
:101E5000F3FF0950D8EC28F00450040F076E000E71
:101E60000520086E000E0620096E200EE56E07C0E4
:101E7000E9FF08C0F3FF0950D8EC28F00450030F25
:101E8000076E000E0520086E000E0620096E200E5B
:101E9000E56E07C0E9FF08C0F3FF0950D8EC28F051
:101EA0000450020F076E000E0520086E000E06207B
:101EB000096E200EE56E07C0E9FF08C0F3FF095068
:101EC000D8EC28F00450010F076E000E0520086EB4
:101ED000000E0620096E200EE56E07C0E9FF08C05F
:101EE000F3FF0950D8EC28F0200EE56E04C0E9FF9E
:101EF00005C0F3FF0650D8EC28F004500A0F076E17
:101F0000000E0520086E000E0620E56A07C0E9FFF6
:101F100008C0F3FFD8EC28F0ACD1000E035C08E158
:101F2000000E025C05E1000E015C02E10A0E005C9D
:101F3000D8A0E5D00450090F076E000E0520086EEA
:101F4000000E0620096EE56AE56AE56A0A0EE56E8E
:101F50000350E56E0250E56E0150E56E0050E56EEF
:101F600056EC1EF00A6E080EE126300E0A260AC054
:101F7000E5FF07C0E9FF08C0F3FF0950D8EC28F0DF
:101F8000E56AE56AE56A0A0EE56E0350E56E025001
:101F9000E56E0150E56E0050E56EF3EC1EF0006E4C
:101FA000080EE1260450080F076E000E0520086E8B
:101FB000000E0620096E00500A6E300E0A260AC076
:101FC000E5FF07C0E9FF08C0F3FF0950D8EC28F08F
:101FD0000450070F076E000E0520086E000E062045
:101FE000096E200EE56E07C0E9FF08C0F3FF095037
:101FF000D8EC28F00450060F076E000E0520086E7E
:10200000000E0620096E200EE56E07C0E9FF08C02D
:10201000F3FF0950D8EC28F00450050F076E000EAE
:102020000520086E000E0620096E200EE56E07C022
:10203000E9FF08C0F3FF0950D8EC28F00450040F62
:10204000076E000E0520086E000E0620096E200E99
:10205000E56E07C0E9FF08C0F3FF0950D8EC28F08F
:102060000450030F076E000E0520086E000E0620B8
:10207000096E200EE56E07C0E9FF08C0F3FF0950A6
:10208000D8EC28F00450020F076E000E0520086EF1
:10209000000E0620096E200EE56E07C0E9FF08C09D
:1020A000F3FF0950D8EC28F00450010F076E000E22
:1020B0000520086E000E0620096E200EE56E07C092
:1020C000E9FF08C0F3FF0950D8EC28F0200EE56EB8
:1020D00004C0E9FF05C0F3FF0650D8EC28F0045017
:1020E0000A0F076E000E0520086E000E0620E56A36
:1020F00007C0E9FF08C0F3FFD8EC28F0BAD00450BD
:10210000090F076E000E0520086E000E0620096EEE
:10211000300E002600C0E5FF07C0E9FF08C0F3FF4E
:102120000950D8EC28F00450080F006E000E05206E
:10213000016E000E0620026E200EE56E00C0E9FF63
:1021400001C0F3FF0250D8EC28F00450070F006ED6
:10215000000E0520016E000E0620026E200EE56EB8
:1021600000C0E9FF01C0F3FF0250D8EC28F0045092
:10217000060F006E000E0520016E000E0620026E96
:10218000200EE56E00C0E9FF01C0F3FF0250D8EC5D
:1021900028F00450050F006E000E0520016E000EA1
:1021A0000620026E200EE56E00C0E9FF01C0F3FFBD
:1021B0000250D8EC28F00450040F006E000E0520E9
:1021C000016E000E0620026E200EE56E00C0E9FFD3
:1021D00001C0F3FF0250D8EC28F00450030F006E4A
:1021E000000E0520016E000E0620026E200EE56E28
:1021F00000C0E9FF01C0F3FF0250D8EC28F0045002
:10220000020F006E000E0520016E000E0620026E09
:10221000200EE56E00C0E9FF01C0F3FF0250D8ECCC
:1022200028F00450010F006E000E0520016E000E14
:102230000620026E200EE56E00C0E9FF01C0F3FF2C
:102240000250D8EC28F0200EE56E04C0E9FF05C06E
:10225000F3FF0650D8EC28F00A0E0426000E0522E3
:102260000622E56A04C0E9FF05C0F3FF0650D8EC7A
:1022700028F0E4CF0AF0E4CF09F0E4CF08F0E4CF8F
:1022800007F0E4CF06F0E4CF05F0E4CF04F0E4CFAC
:1022900003F0E4CF02F0E4CF01F0E4CF00F0E4CFAC
:1022A000D9FF1200D9CFE5FFE1CFD9FF00C0E5FF8C
:1022B00001C0E5FF02C0E5FF03C0E5FF04C0E5FF84
:1022C00005C0E5FF06C0E5FF07C0E5FF08C0E5FF64
:1022D000020EDBCF00F0030EDBCF01F0040EDBCFEC
:1022E00002F0050EDBCF03F0060EDBCF04F0270E65
:1022F000015C02E1100E005CD8A0D4D00250040FA3
:10230000056E000E0320066E000E0420076EE56ABF
:102310000A0EE56E0150E56E0050E56EA1EC21F06D
:10232000086E040EE126300E082608C0E5FF05C041
:10233000E9FF06C0F3FF0750D8EC28F0E56A0A0E63
:10234000E56E0150E56E0050E56EFEEC21F0006E8A
:10235000F3CF01F0040EE1260250030F056E000ECC
:102360000320066E000E0420076EE56A0A0EE56E75
:102370000150E56E0050E56EA1EC21F0086E040EF0
:10238000E126300E082608C0E5FF05C0E9FF06C0BB
:10239000F3FF0750D8EC28F0E56A0A0EE56E01500D
:1023A000E56E0050E56EFEEC21F0006EF3CF01F01B
:1023B000040EE1260250020F056E000E0320066E89
:1023C000000E0420076EE56A0A0EE56E0150E56E08
:1023D0000050E56EA1EC21F0086E040EE126300EEF
:1023E000082608C0E5FF05C0E9FF06C0F3FF075057
:1023F000D8EC28F0E56A0A0EE56E0150E56E005053
:10240000E56EFEEC21F0006EF3CF01F0040EE12644
:102410000250010F056E000E0320066E000E042010
:10242000076EE56A0A0EE56E0150E56E0050E56E36
:10243000A1EC21F0086E040EE126300E082608C03B
:10244000E5FF05C0E9FF06C0F3FF0750D8EC28F010
:10245000E56A0A0EE56E0150E56E0050E56EFEEC91
:1024600021F0006E040EE1260050056E300E0526A8
:1024700005C0E5FF02C0E9FF03C0F3FF0450D8EC3C
:1024800028F00250050F056E000E0320066E000EA8
:102490000420E56A05C0E9FF06C0F3FFD8EC28F088
:1024A00098EF14F0030E015C02E1E80E005CD8A086
:1024B000B7D00250040F056E000E0320066E000E0A
:1024C0000420076EE56A0A0EE56E0150E56E0050C5
:1024D000E56EA1EC21F0086E040EE126300E082610
:1024E00008C0E5FF05C0E9FF06C0F3FF0750D8ECC0
:1024F00028F0E56A0A0EE56E0150E56E0050E56EC3
:10250000FEEC21F0006EF3CF01F0040EE126025044
:10251000030F056E000E0320066E000E0420076EEA
:10252000E56A0A0EE56E0150E56E0050E56EA1EC1D
:1025300021F0086E040EE126300E082608C0E5FFE3
:1025400005C0E9FF06C0F3FF0750D8EC28F0E56AA4
:102550000A0EE56E0150E56E0050E56EFEEC21F0CE
:10256000006EF3CF01F0040EE1260250020F056E5B
:10257000000E0320066E000E0420076EE56A0A0EA8
:10258000E56E0150E56E0050E56EA1EC21F0086E9D
:10259000040EE126300E082608C0E5FF05C0E9FF5D
:1025A00006C0F3FF0750D8EC28F0E56A0A0EE56E86
:1025B0000150E56E0050E56EFEEC21F0006E040E59
:1025C000E1260250010F056E000E0320066E000E7C
:1025D0000420076E0050086E300E082608C0E5FF84
:1025E00005C0E9FF06C0F3FF0750D8EC28F0200E25
:1025F000E56E02C0E9FF03C0F3FF0450D8EC28F0F9
:102600000250050F056E000E0320066E000E04201A
:10261000E56A05C0E9FF06C0F3FFD8EC28F088D1D1
:10262000000E015C02E1640E005CD8A09BD0025059
:10263000040F056E000E0320066E000E0420076EC8
:10264000E56A0A0EE56E0150E56E0050E56EA1ECFC
:1026500021F0086E040EE126300E082608C0E5FFC2
:1026600005C0E9FF06C0F3FF0750D8EC28F0E56A83
:102670000A0EE56E0150E56E0050E56EFEEC21F0AD
:10268000006EF3CF01F0040EE1260250030F056E39
:10269000000E0320066E000E0420076EE56A0A0E87
:1026A000E56E0150E56E0050E56EA1EC21F0086E7C
:1026B000040EE126300E082608C0E5FF05C0E9FF3C
:1026C00006C0F3FF0750D8EC28F0E56A0A0EE56E65
:1026D0000150E56E0050E56EFEEC21F0006E040E38
:1026E000E1260250020F056E000E0320066E000E5A
:1026F0000420076E0050086E300E082608C0E5FF63
:1027000005C0E9FF06C0F3FF0750D8EC28F00250DF
:10271000010F056E000E0320066E000E0420076EEA
:10272000200EE56E05C0E9FF06C0F3FF0750D8ECA8
:1027300028F0200EE56E02C0E9FF03C0F3FF04504D
:10274000D8EC28F00250050F056E000E0320066E2F
:10275000000E0420E56A05C0E9FF06C0F3FFD8ECCF
:1027600028F0E6D0000E015C02E10A0E005CD8A061
:102770007FD00250040F056E000E0320066E000E7F
:102780000420076EE56A0A0EE56E0150E56E005002
:10279000E56EA1EC21F0086E040EE126300E08264D
:1027A00008C0E5FF05C0E9FF06C0F3FF0750D8ECFD
:1027B00028F0E56A0A0EE56E0150E56E0050E56E00
:1027C000FEEC21F0006E040EE1260250030F056EB0
:1027D000000E0320066E000E0420076E0050086EE7
:1027E000300E082608C0E5FF05C0E9FF06C0F3FF6C
:1027F0000750D8EC28F00250020F056E000E03209F
:10280000066E000E0420076E200EE56E05C0E9FF7F
:1028100006C0F3FF0750D8EC28F00250010F056EF8
:10282000000E0320066E000E0420076E200EE56EDB
:1028300005C0E9FF06C0F3FF0750D8EC28F0200ED2
:10284000E56E02C0E9FF03C0F3FF0450D8EC28F0A6
:102850000250050F056E000E0320066E000E0420C8
:10286000E56A05C0E9FF06C0F3FFD8EC28F060D0A8
:102870000250040F056E000E0320066E000E0420A9
:10288000076E300E002600C0E5FF05C0E9FF06C058
:10289000F3FF0750D8EC28F00250030F006E000E33
:1028A0000320016E000E0420056E200EE56E00C0B0
:1028B000E9FF01C0F3FF0550D8EC28F00250020FE9
:1028C000006E000E0320016E000E0420056E200E27
:1028D000E56E00C0E9FF01C0F3FF0550D8EC28F019
:1028E0000250010F006E000E0320016E000E042046
:1028F000056E200EE56E00C0E9FF01C0F3FF055034
:10290000D8EC28F0200EE56E02C0E9FF03C0F3FF0B
:102910000450D8EC28F0050E0226000E03220422F3
:10292000E56A02C0E9FF03C0F3FF0450D8EC28F0C9
:10293000E4CF08F0E4CF07F0E4CF06F0E4CF05F0F1
:10294000E4CF04F0E4CF03F0E4CF02F0E4CF01F0F1
:10295000E4CF00F0E4CFD9FF1200006A0F01386B1A
:102960000F01396B0F013A6B0F013B6B0F013C6B91
:10297000C26AC16AC06A796A786A776A94949288EE
:102980008B949F0EE56E26EC28F0E652000EE56A69
:1029900005EC18F0E6520F012B6B050E0F012C6FA2
:1029A000110E0F012D6F0D0E0F012E6F050E0F0171
:1029B0002F6F140E0F01306F0E0E0F01316F020ECC
:1029C0000F01326F0F01336F0E0EE56E140EE56EC0
:1029D000020EE56E050EE56E0D0EE56E020EE56E5D
:1029E000E56A050EE56E110EE56EDDEC1CF0090ED4
:1029F000E126016A8BB4012A0150D880E866D8909C
:102A0000016A01360150010BE844E844F46E8B5032
:102A1000FB0BF4108B6E800EE56E0F0EE56E310E23
:102A2000E56E800EE56E0F0EE56E300EE56E800EE3
:102A3000E56E0F0EE56E330EE56E800EE56E0F0E41
:102A4000E56E2F0EE56E800EE56E0F0EE56E2E0E16
:102A5000E56E800EE56E0F0EE56E320EE56E800EB1
:102A6000E56E0F0EE56E2B0EE56E800EE56E0F0E19
:102A7000E56E2C0EE56E800EE56E0F0EE56E2D0EEA
:102A8000E56E59EC16F01B0EE1262BCF01F001503C
:102A9000001801E100D101C000F0000EE56AE56A0E
:102AA00094EC27F0E652E6522DCF01F00A0EE56EC7
:102AB0000F0EE56E200EE56EE56A0150E56EE9EC5D
:102AC00024F0050EE1260A0E0F012D5D05E2300E01
:102AD000E56E51EC28F0E652800EE56E0F0EE56EC5
:102AE000200EE56E91EC25F0030EE1263A0EE56E20
:102AF00051EC28F0E6522CCF01F00A0EE56E0F0ED5
:102B0000E56E200EE56EE56A0150E56EE9EC24F015
:102B1000050EE1260A0E0F012C5D05E2300EE56E72
:102B200051EC28F0E652800EE56E0F0EE56E200E99
:102B3000E56E91EC25F0030EE1263A0EE56E51ECC0
:102B400028F0E6522BCF01F00A0EE56E0F0EE56E6F
:102B5000200EE56EE56A0150E56EE9EC24F0050E05
:102B6000E1260A0E0F012B5D05E2300EE56E51ECF9
:102B700028F0E652800EE56E0F0EE56E200EE56E33
:102B800091EC25F0030EE126E56A010EE56E94EC6A
:102B900027F0E652E6522ECF01F00A0EE56E0F0E38
:102BA000E56E200EE56EE56A0150E56EE9EC24F075
:102BB000050EE1260A0E0F012E5D05E2300EE56ED0
:102BC00051EC28F0E652800EE56E0F0EE56E200EF9
:102BD000E56E91EC25F0030EE1262F0EE56E51EC2B
:102BE00028F0E6522FCF01F00A0EE56E0F0EE56ECB
:102BF000200EE56EE56A0150E56EE9EC24F0050E65
:102C0000E1260A0E0F012F5D05E2300EE56E51EC54
:102C100028F0E652800EE56E0F0EE56E200EE56E92
:102C200091EC25F0030EE1262F0EE56E51EC28F015
:102C3000E65230CF01F00A0EE56E0F0EE56E200E63
:102C4000E56EE56A0150E56EE9EC24F0050EE1263B
:102C5000800EE56E0F0EE56E200EE56E91EC25F010
:102C6000030EE12631CF01F00A0EE56E0F0EE56E80
:102C7000200EE56EE56A0150E56EE9EC24F0050EE4
:102C8000E126800EE56E0F0EE56E200EE56E91ECEE
:102C900025F0030EE126F00EAAEC23F0F00EAAECCC
:102CA00023F0A00EAAEC23F0A00EAAEC23F0A1D6EC
:102CB0001200D9CFE5FFE1CFD9FF00C0E5FF01C089
:102CC000E5FF02C0E5FF03C0E5FF04C0E5FF05C066
:102CD000E5FF06C0E5FF07C0E5FF08C0E5FF09C046
:102CE000E5FF0AC0E5FF0BC0E5FF0CC0E5FF0DC026
:102CF000E5FF0EC0E5FF0FC0E5FF10C0E5FF11C006
:102D0000E5FF12C0E5FF13C0E5FF14C0E5FF15C0E5
:102D1000E5FF16C0E5FF17C0E5FF18C0E5FF19C0C5
:102D2000E5FF1AC0E5FF1BC0E5FF020EDBCF00F098
:102D3000030EDBCF01F0040EDBCF02F0050EDBCF7C
:102D400003F0060EDBCF04F0070EDBCF05F0080E14
:102D5000DBCF06F0090EDBCF07F00A0EDBCF08F061
:102D60000B0EDBCF09F00C0EDBCF0AF00D0EDBCF24
:102D70000BF00E0EDBCF0CF00F0EDBCF0DF0100EB4
:102D8000DBCF0EF0110EDBCF0FF0120EDBCF10F009
:102D9000130EDBCF11F0140EDBCF12F0150EDBCFCC
:102DA00013F0160EDBCF14F0170EDBCF15F0180E54
:102DB000DBCF16F0190EDBCF17F01A0EDBCF18F0B1
:102DC0001B0EDBCF19F01C0EDBCF1AF0CCEC28F079
:102DD000A20EE56E0CEC28F0E652020EE56E0CEC4D
:102DE00028F0E652C0EC28F0A30EE56E0CEC28F0BB
:102DF000E652010EE56EA9EC26F0E652E56EF0EC27
:102E000027F01B6EE6521BC0E5FF06C0E9FF07C0B6
:102E1000F3FF0850D8EC28F0010EE56EA9EC26F07F
:102E2000E652E56EF0EC27F0066EE65206C0E5FFCE
:102E300003C0E9FF04C0F3FF0550D8EC28F0010EF1
:102E4000E56EA9EC26F0036EE6523F0E0316035022
:102E5000E56EF0EC27F0036EE65203C0E5FF00C01C
:102E6000E9FF01C0F3FF0250D8EC28F0010EE56E37
:102E7000A9EC26F0006EE652000EE56AA9EC26F0F9
:102E8000016EE652B4EC28F0E00E0114026E023836
:102E9000E840070BE56EF0EC27F0036EE65203C046
:102EA000E5FF09C0E9FF0AC0F3FF0B50D8EC28F09A
:102EB0001F0E0114E56EF0EC27F0016EE65201C022
:102EC000E5FF0FC0E9FF10C0F3FF1150D8EC28F068
:102ED000C00E0014016E0144E844030BE56EF0ECF3
:102EE00027F0016EE65201C0E5FF12C0E9FF13C0F2
:102EF000F3FF1450D8EC28F03F0E0014E56EF0EC10
:102F000027F0006EE65200C0E5FF0CC0E9FF0DC0DF
:102F1000F3FF0E50D8EC28F01A50E56E1950E56E0C
:102F20001850E56E1750E56E1650E56E1550E56EBB
:102F30000BEC20F0060EE12612C0E9FF13C0F3FFF0
:102F4000145077EC28F0126E18C0E9FF19C0F3FF97
:102F50001A5077EC28F0006E030E001412181AE0D5
:102F6000002A00C0E5FF18C0E9FF19C0F3FF1A509E
:102F7000D8EC28F015C0E9FF16C0F3FF175077EC26
:102F800028F0156E0050E56E1550E56E25EC26F024
:102F9000E652E652E4CF1BF0E4CF1AF0E4CF19F08A
:102FA000E4CF18F0E4CF17F0E4CF16F0E4CF15F03B
:102FB000E4CF14F0E4CF13F0E4CF12F0E4CF11F03B
:102FC000E4CF10F0E4CF0FF0E4CF0EF0E4CF0DF03B
:102FD000E4CF0CF0E4CF0BF0E4CF0AF0E4CF09F03B
:102FE000E4CF08F0E4CF07F0E4CF06F0E4CF05F03B
:102FF000E4CF04F0E4CF03F0E4CF02F0E4CF01F03B
:10300000E4CF00F0E4CFD9FF1200D9CFE5FFE1CF44
:10301000D9FF00C0E5FF020EDBCF00F09692969438
:103020009398939A939C939E8D920050D8A49AD093
:10303000280EAAEC23F0030EE56EE2EC23F0E65234
:10304000500E97EC23F0030EE56EE2EC23F0E6520F
:10305000A00ED6EC23F0030EE56EE2EC23F0E65270
:10306000380ED6EC23F00000000000000000000045
:103070000000000000000000000000000000000050
:103080000000000000000000000000000000000040
:103090000000000000000000000000000000000030
:1030A0000000000000000000000000000000000020
:1030B0000000000000000000000000000000000010
:1030C000000000000000020EE56EE2EC23F0E65284
:1030D000380ED6EC23F000000000000000000000D5
:1030E00000000000000000000000000000000000E0
:1030F00000000000000000000000000000000000D0
:1031000000000000000000000000000000000000BF
:1031100000000000000000000000000000000000AF
:10312000000000000000000000000000000000009F
:10313000000000000000280EE56E3DEC28F0E6528D
:103140001C0EE56E3DEC28F0E6520C0EE56E3DECF3
:1031500028F0E652060EE56E3DEC28F0E65297ECBC
:1031600028F0F6D00050010A01E0F2D0030EE56E1F
:10317000E2EC23F0E652400ED6EC23F0020EE56EB0
:10318000E2EC23F0E6520C0EE56EE2EC23F0E652A0
:10319000400ED6EC23F0020EE56EE2EC23F0E65290
:1031A0000C0EE56EE2EC23F0E652380ED6EC23F07E
:1031B000000000000000000000000000000000000F
:1031C00000000000000000000000000000000000FF
:1031D00000000000000000000000000000000000EF
:1031E00000000000000000000000000000000000DF
:1031F00000000000000000000000000000000000CF
:1032000000000000000000000000000000000000BE
:10321000000EE56EE2EC23F0E6520C0EE56EE2ECF9
:1032200023F0E652380ED6EC23F000000000000038
:10323000000000000000000000000000000000008E
:10324000000000000000000000000000000000007E
:10325000000000000000000000000000000000006E
:10326000000000000000000000000000000000005E
:10327000000000000000000000000000000000004E
:1032800000000000000000000000000EE56EE2EC0F
:1032900023F0E652010EE56EE2EC23F0E652A00EBA
:1032A000C3EC23F0500EC3EC23F0400ED6EC23F019
:1032B000000EE56EE2EC23F0E652060EE56EE2EC5F
:1032C00023F0E652380ED6EC23F000000000000098
:1032D00000000000000000000000000000000000EE
:1032E00000000000000000000000000000000000DE
:1032F00000000000000000000000000000000000CE
:1033000000000000000000000000000000000000BD
:1033100000000000000000000000000000000000AD
:1033200000000000000000000000000EE56EE2EC6E
:1033300023F0E652010EE56EE2EC23F0E652A00E19
:10334000C3EC23F0500EC3EC23F0400ED6EC23F078
:10335000E4CF00F0E4CFD9FF1200D9CFE5FFE1CFF1
:10336000D9FF00C0E5FF01C0E5FF02C0E5FF03C0D3
:10337000E5FF04C0E5FF05C0E5FF06C0E5FF07C0A7
:10338000E5FF020EDBCF00F0030EDBCF01F0040EF1
:10339000DBCF02F0050EDBCF03F0640E005CD8A09B
:1033A00069D00150020F046E000E0220056E000E5F
:1033B0000320066E0A0EE56E00C0E5FF23EC25F043
:1033C000076EE450E450300E072607C0E5FF04C046
:1033D000E9FF05C0F3FF0650D8EC28F00A0EE56EB1
:1033E00000C0E5FF74EC24F0006EE450E45001509E
:1033F000010F046E000E0220056E000E0320066E03
:103400000A0EE56E00C0E5FF23EC25F0076EE450E0
:10341000E450300E072607C0E5FF04C0E9FF05C0F1
:10342000F3FF0650D8EC28F00A0EE56E00C0E5FF69
:1034300074EC24F0006EE450E4500050046E300E42
:10344000042604C0E5FF01C0E9FF02C0F3FF0350FA
:10345000D8EC28F00150030F046E000E0220056E18
:10346000000E0320E56A04C0E9FF05C0F3FFD8ECB5
:1034700028F095D00A0E005CD8A055D00150020F5C
:10348000046E000E0220056E000E0320066E0A0E6A
:10349000E56E00C0E5FF23EC25F0076EE450E45034
:1034A000300E072607C0E5FF04C0E9FF05C0F3FFA3
:1034B0000650D8EC28F00A0EE56E00C0E5FF74EC6B
:1034C00024F0006EE450E4500150010F046E000E31
:1034D0000220056E000E0320066E0050076E300EAF
:1034E000072607C0E5FF04C0E9FF05C0F3FF06504B
:1034F000D8EC28F0200EE56E01C0E9FF02C0F3FF12
:103500000350D8EC28F00150030F046E000E022087
:10351000056E000E0320E56A04C0E9FF05C0F3FF55
:10352000D8EC28F03CD00150020F046E000E0220AF
:10353000056E000E0320066E300E002600C0E5FF6B
:1035400004C0E9FF05C0F3FF0650D8EC28F0015095
:10355000010F006E000E0220046E000E0320056EA7
:10356000200EE56E00C0E9FF04C0F3FF0550D8EC63
:1035700028F0200EE56E01C0E9FF02C0F3FF035002
:10358000D8EC28F0030E0126000E02220322E56A81
:1035900001C0E9FF02C0F3FF0350D8EC28F0E4CFEC
:1035A00007F0E4CF06F0E4CF05F0E4CF04F0E4CF79
:1035B00003F0E4CF02F0E4CF01F0E4CF00F0E4CF79
:1035C000D9FF1200D9CFE5FFE1CFD9FF00C0E5FF59
:1035D00001C0E5FF02C0E5FF03C0E5FF04C0E5FF51
:1035E00005C0E5FF06C0E5FF07C0E5FF08C0E5FF31
:1035F00009C0E5FF0AC0E5FF020EDBCF00F0030EB5
:10360000DBCF01F0040EDBCF02F0050EDBCF03F0C1
:10361000060EDBCF04F0070EDBCF05F0080EDBCF84
:1036200006F003380F0BE56EB3EC27F0076EE65299
:1036300007C0E5FF04C0E9FF05C0F3FF0650D8EC62
:1036400028F00450010F076E000E0520086E000ED2
:103650000620096E0350E56EB3EC27F00A6EE652C1
:103660000AC0E5FF07C0E9FF08C0F3FF0950D8EC26
:1036700028F00450020F076E000E0520086E000EA1
:103680000620096E02380F0B0A6E0338F00B0A266B
:103690000A50E56EB3EC27F00A6EE6520AC0E5FF69
:1036A00007C0E9FF08C0F3FF0950D8EC28F0045028
:1036B000030F076E000E0520086E000E0620096E2F
:1036C0000250E56EB3EC27F00A6EE6520AC0E5FF41
:1036D00007C0E9FF08C0F3FF0950D8EC28F00450F8
:1036E000040F076E000E0520086E000E0620096EFE
:1036F00001380F0B0A6E0238F00B0A260A50E56EED
:10370000B3EC27F00A6EE6520AC0E5FF07C0E9FFF6
:1037100008C0F3FF0950D8EC28F00450050F076EDD
:10372000000E0520086E000E0620096E0150E56EA1
:10373000B3EC27F00A6EE6520AC0E5FF07C0E9FFC6
:1037400008C0F3FF0950D8EC28F00450060F076EAC
:10375000000E0520086E000E0620096E00380F0BC3
:103760000A6E0138F00B0A260A50E56EB3EC27F01A
:103770000A6EE6520AC0E5FF07C0E9FF08C0F3FF82
:103780000950D8EC28F00450070F076E000E0520F2
:10379000086E000E0620096E0050E56EB3EC27F0AF
:1037A000006EE65200C0E5FF07C0E9FF08C0F3FF66
:1037B0000950D8EC28F0080E0426000E0522062237
:1037C000E56A04C0E9FF05C0F3FF0650D8EC28F015
:1037D000E4CF0AF0E4CF09F0E4CF08F0E4CF07F03B
:1037E000E4CF06F0E4CF05F0E4CF04F0E4CF03F03B
:1037F000E4CF02F0E4CF01F0E4CF00F0E4CFD9FF52
:103800001200D9CFE5FFE1CFD9FF00C0E5FF01C02D
:10381000E5FF02C0E5FF03C0E5FF04C0E5FF05C00A
:10382000E5FF06C0E5FF07C0E5FF08C0E5FF09C0EA
:10383000E5FF0AC0E5FF0BC0E5FF0CC0E5FF0DC0CA
:10384000E5FF0EC0E5FF0FC0E5FF020EDBCF00F085
:10385000030EDBCF01F0040EDBCF02F0050EDBCF51
:1038600003F0060EDBCF04F0070EDBCF05F0080EE9
:10387000DBCF06F0200E076E086A06C009F00A6A60
:103880000B6A0C6AE56AE56AE56A0950E56E035061
:10389000E56E0250E56E0150E56E0050E56E56ECA7
:1038A0001EF00D6E080EE126300E0D263A0E0D5C50
:1038B00005E30D500E6E270E0E240D6EFF0E07262B
:1038C0000822000E07240E6E0F0E08200F6E0EC089
:1038D000E9FF0FC0EAFF0DC0EFFF0C50E56E0B5083
:1038E000E56E0A50E56E0950E56E0350E56E025034
:1038F000E56E0150E56E0050E56EF3EC1EF0006ED3
:10390000F3CF01F0F4CF02F0E9CF03F0080EE12687
:103910000050011002100310D8A4AFD707C000F068
:1039200008C001F004C002F005C003F000C004F0BC
:1039300001C005F0004A012A000E04260F0E0522E0
:1039400004C0E9FF05C0EAFFEFCF04F002C0E9FFC1
:1039500003C0EAFF04C0EFFF024A032A000E015C25
:1039600002E1200E005CE2E302C0E9FF03C0EAFFCF
:10397000000EEF6AE4CF0FF0E4CF0EF0E4CF0DF0CD
:10398000E4CF0CF0E4CF0BF0E4CF0AF0E4CF09F081
:10399000E4CF08F0E4CF07F0E4CF06F0E4CF05F081
:1039A000E4CF04F0E4CF03F0E4CF02F0E4CF01F081
:1039B000E4CF00F0E4CFD9FF1200D9CFE5FFE1CF8B
:1039C000D9FF00C0E5FF01C0E5FF02C0E5FF03C06D
:1039D000E5FF04C0E5FF05C0E5FF06C0E5FF07C041
:1039E000E5FF08C0E5FF09C0E5FF020EDBCF00F0F0
:1039F000030EDBCF01F0040EDBCF02F0050EDBCFB0
:103A000003F0060EDBCF04F0070EDBCF05F0080E47
:103A1000DBCF06F0090EDBCF07F00A0EDBCF08F094
:103A20000650E56EF7EC25F0066EE6520640E840DB
:103A3000C00B096E0450E56EF7EC25F0E652091252
:103A40000350E56EF7EC25F0036EE6520338E844C8
:103A5000E00B046E0550E56EF7EC25F0E65204121B
:103A6000CCEC28F0A20EE56E0CEC28F0E652000E2D
:103A7000E56A0CEC28F0E652800EE56E0CEC28F0BE
:103A8000E652B4EC28F0CCEC28F0A20EE56E0CEC7B
:103A900028F0E652010EE56E0CEC28F0E652000E1E
:103AA000E56AF7EC25F0E652E56E0CEC28F0E652FC
:103AB0000250E56EF7EC25F0E652E56E0CEC28F0CE
:103AC000E6520150E56EF7EC25F0E652E56E0CEC9F
:103AD00028F0E6520050E56EF7EC25F0E652E56E70
:103AE0000CEC28F0E6520950E56E0CEC28F0E6529A
:103AF0000450E56E0CEC28F0E652B4EC28F0CCEC67
:103B000028F0A20EE56E0CEC28F0E652000EE56AF5
:103B10000CEC28F0E652000EE56A0CEC28F0E652B8
:103B2000B4EC28F00850E56E0750E56E25EC26F061
:103B3000E652E652E4CF09F0E4CF08F0E4CF07F014
:103B4000E4CF06F0E4CF05F0E4CF04F0E4CF03F0D7
:103B5000E4CF02F0E4CF01F0E4CF00F0E4CFD9FFEE
:103B60001200D9CFE5FFE1CFD9FF00C0E5FF01C0CA
:103B7000E5FF02C0E5FF03C0E5FF04C0E5FF05C0A7
:103B8000E5FF06C0E5FF07C0E5FF08C0E5FF020E40
:103B9000DBCF00F0030EDBCF01F0040EDBCF02F031
:103BA000050EDBCF03F0060EDBCF04F001380F0B60
:103BB000E56EB3EC27F0056EE65205C0E5FF02C0E6
:103BC000E9FF03C0F3FF0450D8EC28F00250010FC6
:103BD000056E000E0320066E000E0420076E0150D5
:103BE000E56EB3EC27F0086EE65208C0E5FF05C0AD
:103BF000E9FF06C0F3FF0750D8EC28F00250020F8F
:103C0000056E000E0320066E000E0420076E0038BD
:103C10000F0B086E0138F00B08260850E56EB3EC68
:103C200027F0086EE65208C0E5FF05C0E9FF06C0B0
:103C3000F3FF0750D8EC28F00250030F056E000E7A
:103C40000320066E000E0420076E0050E56EB3ECF4
:103C500027F0006EE65200C0E5FF05C0E9FF06C090
:103C6000F3FF0750D8EC28F0040E0226000E0322C2
:103C70000422E56A02C0E9FF03C0F3FF0450D8EC58
:103C800028F0E4CF08F0E4CF07F0E4CF06F0E4CF6B
:103C900005F0E4CF04F0E4CF03F0E4CF02F0E4CF8A
:103CA00001F0E4CF00F0E4CFD9FF1200D9CFE5FF57
:103CB000E1CFD9FF00C0E5FF01C0E5FF02C0E5FF8D
:103CC00003C0E5FF04C0E5FF05C0E5FF06C0E5FF52
:103CD00007C0E5FF08C0E5FF09C0E5FF0AC0E5FF32
:103CE000020EDBCF00F0030EDBCF01F0040EDBCFC2
:103CF00002F0050EDBCF03F0060EDBCF04F0070E5B
:103D0000DBCF05F0080EDBCF06F0090EDBCF07F0A6
:103D1000086A045005100610071005E1E968F46808
:103D2000F368E86847D0096A0750800BE8440A6ED8
:103D30000A501BE1045004260536063607360750A4
:103D4000035C08E10650025C05E10550015C02E1FC
:103D50000450005C06E2D890073206320532043285
:103D600004D0092A09C008F0DFD70750035C08E136
:103D70000650025C05E10550015C02E10450005C64
:103D800008E30450005E0550015A0650025A0750DD
:103D9000035AD890073206320532043208C009F0BF
:103DA00008060950E2E103C0E9FF02C0F4FF01C0C8
:103DB000F3FF0050E4CF0AF0E4CF09F0E4CF08F0BD
:103DC000E4CF07F0E4CF06F0E4CF05F0E4CF04F051
:103DD000E4CF03F0E4CF02F0E4CF01F0E4CF00F051
:103DE000E4CFD9FF1200D9CFE5FFE1CFD9FF00C062
:103DF000E5FF01C0E5FF02C0E5FF03C0E5FF04C029
:103E0000E5FF05C0E5FF06C0E5FF07C0E5FF08C008
:103E1000E5FF09C0E5FF0AC0E5FF0BC0E5FF0CC0E8
:103E2000E5FF0DC0E5FF020EDBCF00F0030EDBCF98
:103E300001F0040EDBCF02F0050EDBCF03F0060E1F
:103E4000DBCF04F0070EDBCF05F0080EDBCF06F06A
:103E5000090EDBCF07F0086A096A0A6A0B6A200EAE
:103E60000C6E0350800BE8440D6E005000260136A6
:103E7000023603360850082609360A360B360D502E
:103E8000D8A4088007500B5C08E106500A5C05E1E5
:103E90000550095C02E10450085C09E30450085E27
:103EA0000550095A06500A5A07500B5A00800C0454
:103EB0000D6E0DC00CF00D50D4E103C0E9FF02C03F
:103EC000F4FF01C0F3FF0050E4CF0DF0E4CF0CF09D
:103ED000E4CF0BF0E4CF0AF0E4CF09F0E4CF08F030
:103EE000E4CF07F0E4CF06F0E4CF05F0E4CF04F030
:103EF000E4CF03F0E4CF02F0E4CF01F0E4CF00F030
:103F0000E4CFD9FF1200D9CFE5FFE1CFD9FF00C040
:103F1000E5FF01C0E5FF02C0E5FF03C0E5FF04C007
:103F2000E5FF05C0E5FF06C0E5FF020EDBCF00F0B0
:103F3000030EDBCF01F0040EDBCF02F0050EDBCF6A
:103F400003F0060EDBCF04F0070EDBCF05F0080E02
:103F5000DBCF06F00050010BF46E0F012751FE0B72
:103F6000F410276F0150010BE844F46E2751FD0B4C
:103F7000F410276F0250010BE844E844F46E275117
:103F8000FB0BF410276F0350010BE838E840F46E88
:103F90002751F70BF410276F0450010BE838F46E2B
:103FA0002751EF0BF410276F0550010BE838E84458
:103FB000F46E2751DF0BF410276F0650010BE84019
:103FC000E840F46E2751BF0BF410276FCCEC28F0BB
:103FD000A20EE56E0CEC28F0E6520E0EE56E0CEC2F
:103FE00028F0E6520F012751E56E0CEC28F0E6525E
:103FF000B4EC28F0E4CF06F0E4CF05F0E4CF04F011
:10400000E4CF03F0E4CF02F0E4CF01F0E4CF00F01E
:10401000E4CFD9FF1200D9CFE5FFE1CFD9FF00C02F
:10402000E5FF01C0E5FF02C0E5FF03C0E5FF04C0F6
:10403000E5FF05C0E5FF06C0E5FF020EDBCF00F09F
:10404000030EDBCF01F0040EDBCF02F0050EDBCF59
:1040500003F0060EDBCF04F0070EDBCF05F0CCEC4F
:1040600028F0A20EE56E0CEC28F0E652100EE56E7C
:104070000CEC28F0E652C0EC28F0A30EE56E0CEC38
:1040800028F0E652010EE56EA9EC26F0066EE65227
:1040900006C0E5FF00C0E9FF01C0F3FF0250D8EC05
:1040A00028F0000EE56AA9EC26F0006EE65200C08A
:1040B000E5FF03C0E9FF04C0F3FF0550D8EC28F08A
:1040C000B4EC28F0E4CF06F0E4CF05F0E4CF04F040
:1040D000E4CF03F0E4CF02F0E4CF01F0E4CF00F04E
:1040E000E4CFD9FF1200D9CFE5FFE1CFD9FF00C05F
:1040F000E5FF020EDBCF00F0000EE56A7FEC26F054
:10410000E6520F01256F005002E1259524D00F01E2
:104110002591259325850F01266B0050010BE8386A
:10412000F46E2651EF0BF410266F00407F0B010B4D
:10413000E838E844F46E2651DF0BF410266F004097
:10414000E8403F0B010BE840E840F46E2651BF0BFE
:10415000F410266F268FCCEC28F0A20EE56E0CEC46
:1041600028F0E652000EE56A0CEC28F0E6520F014A
:104170002551E56E0CEC28F0E652B4EC28F0005026
:1041800014E0CCEC28F0A20EE56E0CEC28F0E65220
:10419000080EE56E0CEC28F0E6520F012651E56E94
:1041A0000CEC28F0E652B4EC28F0E4CF00F0E4CFB9
:1041B000D9FF1200D9CFE5FFE1CFD9FF00C0E5FF5D
:1041C00001C0E5FF02C0E5FF03C0E5FF04C0E5FF55
:1041D00005C0E5FF06C0E5FF020EDBCF00F0030ED1
:1041E000DBCF01F0040EDBCF02F0050EDBCF03F0D6
:1041F00000380F0BE56EB3EC27F0046EE65204C0F6
:10420000E5FF01C0E9FF02C0F3FF0350D8EC28F03E
:104210000150010F046E000E0220056E000E0320F7
:10422000066E0050E56EB3EC27F0006EE65200C05B
:10423000E5FF04C0E9FF05C0F3FF0650D8EC28F005
:10424000020E0126000E02220322E56A01C0E9FFE8
:1042500002C0F3FF0350D8EC28F0E4CF06F0E4CF1F
:1042600005F0E4CF04F0E4CF03F0E4CF02F0E4CFB4
:1042700001F0E4CF00F0E4CFD9FF1200D9CFE5FF81
:10428000E1CFD9FF00C0E5FF01C0E5FF02C0E5FFB7
:1042900003C0E5FF04C0E5FF05C0E5FF06C0E5FF7C
:1042A000020EDBCF00F0030EDBCF01F0040EDBCFFC
:1042B00002F0050EDBCF03F0060EDBCF04F0070E95
:1042C000DBCF05F0080EDBCF06F0D88003AED89028
:1042D00015E306500A0A12E104C0E9FF05C0EAFF2F
:1042E0002D0EEF6E044A052A031E021E011E006CED
:1042F00005E1012A03E1022AD8B4032A0650E56E3B
:104300000550E56E0450E56E0350E56E0250E56E13
:104310000150E56E0050E56E01EC1CF0070EE12641
:10432000E4CF06F0E4CF05F0E4CF04F0E4CF03F0EF
:10433000E4CF02F0E4CF01F0E4CF00F0E4CFD9FF06
:104340001200D9CFE5FFE1CFD9FF00C0E5FF01C0E2
:10435000E5FF02C0E5FF03C0E5FF04C0E5FF05C0BF
:10436000E5FF06C0E5FF020EDBCF00F0030EDBCF5A
:1043700001F0040EDBCF02F0050EDBCF03F0046A80
:10438000056A0350800BE844066E065011E10250A6
:10439000022603360350015C02E10250005C04E295
:1043A000D8900332023204D0052A05C004F0E9D7C0
:1043B0000350015C02E10250005C04E30250005E25
:1043C0000350015AD8900332023204C005F00406AB
:1043D0000550EEE101C0F3FF0050E4CF06F0E4CF5A
:1043E00005F0E4CF04F0E4CF03F0E4CF02F0E4CF33
:1043F00001F0E4CF00F0E4CFD9FF1200D9CFE5FF00
:10440000E1CFD9FF00C0E5FF01C0E5FF02C0E5FF35
:1044100003C0E5FF04C0E5FF05C0E5FF06C0E5FFFA
:1044200007C0E5FF020EDBCF00F0030EDBCF01F08B
:10443000040EDBCF02F0050EDBCF03F0046A056A41
:10444000100E066E0150800BE844076E00500026E7
:1044500001360450042605360750D8A404800350C2
:10446000055C02E10250045C05E30250045E035067
:10447000055A00800604076E07C006F00750E2E107
:1044800001C0F3FF0050E4CF07F0E4CF06F0E4CF23
:1044900005F0E4CF04F0E4CF03F0E4CF02F0E4CF82
:1044A00001F0E4CF00F0E4CFD9FF1200D9CFE5FF4F
:1044B000E1CFD9FF00C0E5FF01C0E5FF02C0E5FF85
:1044C00003C0E5FF04C0E5FF020EDBCF00F0030EE2
:1044D000DBCF01F0040EDBCF02F00050E56ED1EC33
:1044E00026F00F012A6FE652ECEC28F0006A01502A
:1044F000005C07E20250E56E82EC01F0E652002A11
:10450000F6D7006A01C002F0036A02501008026E7A
:10451000000E035600C004F0800FF36E0350800FAE
:10452000F35C02E10250045C07E2200EE56E82ECCF
:1045300001F0E652002AE6D7E4CF04F0E4CF03F01E
:10454000E4CF02F0E4CF01F0E4CF00F0E4CFD9FFF4
:104550001200D9CFE5FFE1CFD9FF00C0E5FF01C0D0
:10456000E5FF020EDBCF00F000380F0B016EE56EA9
:10457000E2EC23F0E6520050E56EE2EC23F0E65266
:10458000380ED6EC23F00000000000000000000010
:10459000000000000000000000000000000000001B
:1045A000000000000000000000000000000000000B
:1045B00000000000000000000000000000000000FB
:1045C00000000000000000000000000000000000EB
:1045D00000000000000000000000000000000000DB
:1045E000000000000000E4CF01F0E4CF00F0E4CFD1
:1045F000D9FF120011EEFFF021EEFFF0F86AA68E4F
:10460000A69CE80EF66E510EF76E000EF86E0900CD
:10461000F5CF05F00900F5CF06F034D00900F5CF4D
:1046200000F00900F5CF01F00900F5CF02F0090014
:104630000900F5CFE9FF0900F5CFEAFF09000900FD
:104640000900F5CF03F00900F5CF04F009000900D7
:10465000F6CF07F0F7CF08F0F8CF09F000C0F6FF6B
:1046600001C0F7FF02C0F8FF03D00900F5CFEEFF4D
:104670000306FBE20406F9E207C0F6FF08C0F7FFF5
:1046800009C0F8FF0506CAE20606C8E2ADEC14F060
:10469000FFD7D9CFE5FFE1CFD9FF00C0E5FF01C0CB
:1046A000E5FF02C0E5FF020EDBCF00F0030EDBCF1B
:1046B00001F0040EDBCF02F0CCEC28F0A20EE56E88
:1046C0000CEC28F0E652090EE56E0CEC28F0E652F0
:1046D000000EE56AF7EC25F0E652E56E0CEC28F0EA
:1046E000E6520250E56EF7EC25F0E652E56E0CEC72
:1046F00028F0E6520150E56EF7EC25F0E652E56E43
:104700000CEC28F0E6520050E56EF7EC25F0E6528E
:10471000E56E0CEC28F0E652B4EC28F0E4CF02F0A1
:10472000E4CF01F0E4CF00F0E4CFD9FF1200E806B7
:10473000E56E630ED6EC23F0E4500BE000D0E56E9E
:10474000630ED6EC23F000D000D00000E450E82E39
:10475000F6D71200E806E56E090E97EC23F0630E1B
:10476000D6EC23F0E4500EE000D0E56E090E97EC95
:1047700023F0630ED6EC23F000D000D00000E4500C
:10478000E82EF3D71200E806E56E090ED6EC23F00A
:10479000E4500BE000D0E56E090ED6EC23F000D01B
:1047A000E450000000D0E82EF6D71200E806000022
:1047B000E85007E000D000D000D000D00000E82E84
:1047C000FAD71200D9CFE5FFE1CFD9FF00C0E5FF4E
:1047D000020EDBCF00F000500F01296F006A29B1F3
:1047E000002A0050010BE838F46E8A50EF0BF410E9
:1047F0008A6E006A29B3002A0050010BE838E844A9
:10480000F46E8A50DF0BF4108A6E006A29B5002A14
:104810000050010BE840E840F46E8A50BF0BF410E2
:104820008A6E006A29B7002A0050010BE840F46E36
:104830008A507F0BF4108A6E8D8400000000000007
:10484000000000000000000000008D94E4CF00F0A4
:10485000E4CFD9FF1200D9CFE5FFE1CFD9FF00C0E7
:10486000E5FF01C0E5FF02C0E5FF03C0E5FF04C0AE
:10487000E5FF05C0E5FF06C0E5FF020EDBCF00F057
:10488000030EDBCF01F0040EDBCF02F0050EDBCF11
:1048900003F0060EDBCF04F0E86A01BEFF0E056EE2
:1048A000066E0450E56E0350E56E0250E56E06504C
:1048B000E56E0550E56E0150E56E0050E56E3EEC8C
:1048C00021F0070EE126E4CF06F0E4CF05F0E4CFB7
:1048D00004F0E4CF03F0E4CF02F0E4CF01F0E4CF42
:1048E00000F0E4CFD9FF1200D9CFE5FFE1CFD9FF27
:1048F00000C0E5FF01C0E5FF02C0E5FF03C0E5FF22
:1049000004C0E5FF020EDBCF00F0030EDBCF01F0A9
:10491000026A080E036E800E0014046ED8900036F2
:10492000D89002360450D8A402800150025C03E300
:104930000150025E00800304046E04C003F00450C2
:10494000EAE10050E4CF04F0E4CF03F0E4CF02F05A
:10495000E4CF01F0E4CF00F0E4CFD9FF1200D9CFCB
:10496000E5FFE1CFD9FF00C0E5FF01C0E5FF02C0D0
:10497000E5FF03C0E5FF020EDBCF00F0030EDBCF47
:1049800001F0000000000000000000000000000036
:104990000000000000000000000000000000000017
:1049A00000000050FF0F026EFF0E0120036E02C0D8
:1049B00000F003C001F002500310E3E1E4CF03F084
:1049C000E4CF02F0E4CF01F0E4CF00F0E4CFD9FF70
:1049D0001200D9CFE5FFE1CFD9FF00C0E5FF01C04C
:1049E000E5FF02C0E5FF03C0E5FF04C0E5FF020EDE
:1049F000DBCF00F0030EDBCF01F0040EDBCF02F0C3
:104A0000050EDBCF03F0060EDBCF04F00450E56E9D
:104A10000350E56E0250E56EE56AE56A0150E56E09
:104A20000050E56E01EC1CF0070EE126E4CF04F027
:104A3000E4CF03F0E4CF02F0E4CF01F0E4CF00F0E4
:104A4000E4CFD9FF1200D9CFE5FFE1CFD9FF00C0F5
:104A5000E5FF01C0E5FF02C0E5FF03C0E5FF020E70
:104A6000DBCF00F0030EDBCF01F0026A036A01BE68
:104A70000CD0D89001360150005C03E2D89001328E
:104A800004D0032A03C002F0F2D70150005C02E315
:104A90000150005ED890013202C003F002060350BC
:104AA000F4E10050E4CF03F0E4CF02F0E4CF01F0F2
:104AB000E4CF00F0E4CFD9FF1200D9CFE5FFE1CF7A
:104AC000D9FF00C0E5FF01C0E5FF02C0E5FF03C05C
:104AD000E5FF020EDBCF00F0030EDBCF01F0040E8A
:104AE000DBCF02F000C0E9FF01C0F3FF025077EC1A
:104AF00028F0036E03500AE00350E56E51EC28F0F5
:104B0000E652002AEFE3014A022AECD7E4CF03F091
:104B1000E4CF02F0E4CF01F0E4CF00F0E4CFD9FF1E
:104B20001200D9CFE5FFE1CFD9FF00C0E5FF01C0FA
:104B3000E5FF02C0E5FF03C0E5FF020EDBCF00F09A
:104B4000030EDBCF01F0040EDBCF02F000C0E9FF63
:104B500001C0F3FF025077EC28F0036E03500AE027
:104B60000350E56E51EC28F0E652002AEFE3014ACB
:104B7000022AECD7E4CF03F0E4CF02F0E4CF01F057
:104B8000E4CF00F0E4CFD9FF1200D9CFE5FFE1CFA9
:104B9000D9FF00C0E5FF01C0E5FF02C0E5FF03C08B
:104BA000E5FF020EDBCF00F0030EDBCF01F0040EB9
:104BB000DBCF02F0080E036E025002E00C0E036E13
:104BC000005002E0032A032A015001E0032A0350A7
:104BD000E56E3DEC28F0E652E4CF03F0E4CF02F0BE
:104BE000E4CF01F0E4CF00F0E4CFD9FF1200D9CF39
:104BF000E5FFE1CFD9FF00C0E5FF01C0E5FF02C03E
:104C0000E5FF020EDBCF00F00A0EE56E00C0E5FF07
:104C100074EC24F0016EE450E4500138F00B026EA5
:104C20000A0EE56E00C0E5FF23EC25F0006EE450AF
:104C3000E450005002120250E4CF02F0E4CF01F041
:104C4000E4CF00F0E4CFD9FF1200D9CFE5FFE1CFE8
:104C5000D9FF00C0E5FF01C0E5FF020EDBCF00F089
:104C6000030EDBCF01F0CCEC28F0A20EE56E0CECCD
:104C700028F0E652100EE56E0CEC28F0E6520050DB
:104C8000E56E0CEC28F0E6520150E56E0CEC28F0D5
:104C9000E652B4EC28F0E4CF01F0E4CF00F0E4CF2A
:104CA000D9FF1200D9CFE5FFE1CFD9FF00C0E5FF62
:104CB00001C0E5FF02C0E5FF03C0E5FF020EDBCF48
:104CC00000F0030EDBCF01F0A00EC3EC23F0005088
:104CD000FF0F026EFF0E0120036E02C000F003C042
:104CE00001F002500310F0E1E4CF03F0E4CF02F052
:104CF000E4CF01F0E4CF00F0E4CFD9FF1200D9CF28
:104D0000E5FFE1CFD9FF00C0E5FF020EDBCF00F0E9
:104D1000CCEC28F0A20EE56E0CEC28F0E652005028
:104D2000E56E0CEC28F0E652C0EC28F0A30EE56E20
:104D30000CEC28F0E652000EE56AA9EC26F0006EB5
:104D4000E652B4EC28F00050E4CF00F0E4CFD9FFF5
:104D50001200D9CFE5FFE1CFD9FF00C0E5FF020E79
:104D6000DBCF00F0C586C7A0FED70050D880E8662C
:104D7000D890006A00360050010BE838E844F46E21
:104D8000C550DF0BF410C56EC588006AC5B8002A8F
:104D90000050010AFAE0C950E4CF00F0E4CFD9FF97
:104DA0001200D9CFE5FFE1CFD9FF00C0E5FF020E29
:104DB000DBCF00F0005C13E2005002E1E86A10D0A3
:104DC0000050010A02E1400E0BD00050020A02E13D
:104DD000100E06D00050030A02E1500E01D0E86A1E
:104DE000E4CF00F0E4CFD9FF1200D9CFE5FFE1CF47
:104DF000D9FF00C0E5FF020EDBCF00F00050E56EEA
:104E0000D1EC26F00F012A6FE652ECEC28F0006A94
:104E1000200EE56E82EC01F0E652002A100E005CD6
:104E2000F7E3ECEC28F0E4CF00F0E4CFD9FF120078
:104E3000D9CFE5FFE1CFD9FF00C0E5FF01C0E5FF15
:104E4000020EDBCF00F000500BE0016A0050015C65
:104E500007E2140EE56E3DEC28F0E652012AF6D783
:104E6000E4CF01F0E4CF00F0E4CFD9FF1200D9CFB6
:104E7000E5FFE1CFD9FF00C0E5FF01C0E5FF020E6D
:104E8000DBCF00F000500BE0016A0050015C07E24C
:104E9000100EE56E3DEC28F0E652012AF6D7E4CF7D
:104EA00001F0E4CF00F0E4CFD9FF1200D9CFE5FF45
:104EB000E1CFD9FF00C0E5FF01C0E5FF020EDBCF67
:104EC00000F000500BE0016A0050015C07E21C0E8C
:104ED000E56E3DEC28F0E652012AF6D7E4CF01F06A
:104EE000E4CF00F0E4CFD9FF1200D9CFE5FFE1CF46
:104EF000D9FF00C0E5FF01C0E5FF020EDBCF00F0E7
:104F000000500BE0016A0050015C07E2180EE56EEC
:104F10003DEC28F0E652012AF6D7E4CF01F0E4CFC9
:104F200000F0E4CFD9FF1200D9CFE5FFE1CFD9FFE0
:104F300000C0E5FF01C0E5FF020EDBCF00F0030E6D
:104F4000DBCF01F00050E56ED1EC26F0E6520124F3
:104F50000F012A6FECEC28F0E4CF01F0E4CF00F071
:104F6000E4CFD9FF1200D9CFE5FFE1CFD9FF00C0D0
:104F7000E5FF01C0E5FF020EDBCF00F00F0E0016CB
:104F8000300E00263A0E005C05E30050016E070E5D
:104F90000124006E0050E4CF01F0E4CF00F0E4CF34
:104FA000D9FF1200000EE56A7FEC26F0E6520F01F1
:104FB000286F28912893CCEC28F0A20EE56E0CEC1B
:104FC00028F0E652000EE56A0CEC28F0E6520F01DC
:104FD0002851E56E0CEC28F0E652B4EC28F01200F3
:104FE000D9CFE5FFE1CFD9FF00C0E5FF01C0E5FF64
:104FF000020EDBCF00F000380F0B0A0DF3CF01F0EB
:105000000F0E0016005001260150E4CF01F0E4CF4E
:1050100000F0E4CFD9FF1200D9CFE5FFE1CFD9FFEF
:1050200000C0E5FF020EDBCF00F09E9600C0C9FF76
:105030009EA6FED7C5BC02D0010E03D0C69AC68A72
:10504000E86AE4CF00F0E4CFD9FF1200D9CFE5FF42
:10505000E1CFD9FF00C0E5FF020EDBCF00F0948660
:105060009488280EC66E200EC56E00C0C8FFC76AA1
:10507000E4CF00F0E4CFD9FF1200D9CFE5FFE1CFB4
:10508000D9FF00C0E5FF020EDBCF00F08D9200508B
:10509000E56EA9EC22F0E652E4CF00F0E4CFD9FFB0
:1050A0001200D9CFE5FFE1CFD9FF00C0E5FF020E26
:1050B000DBCF00F08D820050E56EA9EC22F0E652C5
:1050C000E4CF00F0E4CFD9FF1200F2CFEAFFF29E66
:1050D000A69EA69CA684E9CFA9FFF3CFAAFFE4CFA2
:1050E000A8FFE3EC28F0A694EABEF28E1200E8AE28
:1050F00004D0F3CFEAFFEE501200E8BCFBEF28F03B
:10510000E9CFF6FFF3CFF7FFF86E0900F550120074
:10511000020EE56E3DEC28F0E652A00EC3EC23F043
:10512000500EC3EC23F0300EC3EC23F01200010E3E
:10513000E56E3DEC28F0E652A00EC3EC23F0500ED5
:10514000C3EC23F0300EC3EC23F01200F2CFF6FFD5
:10515000F29EA69EA69CE9CFA9FFF3CFAAFFA68048
:10516000A850F6BEF28E120000C0E5FFC584006AAA
:10517000C5B4002A0050010AFAE0E4CF00F01200A2
:1051800000C0E5FFC582006AC5B2002A0050010ACE
:10519000FAE0E4CF00F0120000C0E5FFC580006A2D
:1051A000C5B0002A0050010AFAE0E4CF00F0120076
:1051B000E8AE05D0F3CFEAFFE4CFEEFF1200E8BC83
:1051C000FDEF28F01200550EA76EAA0EA76EA6825C
:1051D000A6B2FED7A94AAA2A800E0F012A11E56EAF
:1051E0003DEC28F0E65212000100FE510000240FB1
:1051F000000001000000A6EF28F065EF28F0000095
:00000001FF
