:020000040000FA
:100300001BEF07F0D9CFE5FFE1CFD9FF00C0E5FF34
:10031000020EDBCF00F00050E56E2DEC0AF0E65245
:10032000E4CF00F0E4CFD9FF1200D9CFE5FFE1CF51
:10033000D9FF00C0E5FF020EDBCF00F09692969445
:100340009398939A939C939E8D920050D8A49AD0A0
:10035000280E3FEC06F0030EE56E6AEC07F0E6525D
:10036000500E2CEC06F0030EE56E6AEC07F0E65238
:10037000A00E6BEC06F0030EE56E6AEC07F0E65299
:10038000380E6BEC06F000000000000000000000DA
:10039000000000000000000000000000000000005D
:1003A000000000000000000000000000000000004D
:1003B000000000000000000000000000000000003D
:1003C000000000000000000000000000000000002D
:1003D000000000000000000000000000000000001D
:1003E000000000000000020EE56E6AEC07F0E65225
:1003F000380E6BEC06F0000000000000000000006A
:1004000000000000000000000000000000000000EC
:1004100000000000000000000000000000000000DC
:1004200000000000000000000000000000000000CC
:1004300000000000000000000000000000000000BC
:1004400000000000000000000000000000000000AC
:10045000000000000000280EE56E19EC0AF0E652DC
:100460001C0EE56E19EC0AF0E6520C0EE56E19EC66
:100470000AF0E652060EE56E19EC0AF0E65261EC5F
:100480000AF0F6D00050010A01E0F2D0030EE56E4A
:100490006AEC07F0E652400E6BEC06F0020EE56ED9
:1004A0006AEC07F0E6520C0EE56E6AEC07F0E652D5
:1004B000400E6BEC06F0020EE56E6AEC07F0E652B9
:1004C0000C0EE56E6AEC07F0E652380E6BEC06F0A7
:1004D000000000000000000000000000000000001C
:1004E000000000000000000000000000000000000C
:1004F00000000000000000000000000000000000FC
:1005000000000000000000000000000000000000EB
:1005100000000000000000000000000000000000DB
:1005200000000000000000000000000000000000CB
:10053000000EE56E6AEC07F0E6520C0EE56E6AEC12
:1005400007F0E652380E6BEC06F0000000000000E9
:10055000000000000000000000000000000000009B
:10056000000000000000000000000000000000008B
:10057000000000000000000000000000000000007B
:10058000000000000000000000000000000000006B
:10059000000000000000000000000000000000005B
:1005A00000000000000000000000000EE56E6AEC94
:1005B00007F0E652010EE56E6AEC07F0E652A00E77
:1005C00058EC06F0500E58EC06F0400E6BEC06F0BE
:1005D000000EE56E6AEC07F0E652060EE56E6AEC78
:1005E00007F0E652380E6BEC06F000000000000049
:1005F00000000000000000000000000000000000FB
:1006000000000000000000000000000000000000EA
:1006100000000000000000000000000000000000DA
:1006200000000000000000000000000000000000CA
:1006300000000000000000000000000000000000BA
:1006400000000000000000000000000EE56E6AECF3
:1006500007F0E652010EE56E6AEC07F0E652A00ED6
:1006600058EC06F0500E58EC06F0400E6BEC06F01D
:10067000E4CF00F0E4CFD9FF1200D9CFE5FFE1CFFE
:10068000D9FF00C0E5FF01C0E5FF02C0E5FF03C0E0
:10069000E5FF04C0E5FF05C0E5FF06C0E5FF07C0B4
:1006A000E5FF08C0E5FF09C0E5FF0AC0E5FF0BC094
:1006B000E5FF0CC0E5FF0DC0E5FF0EC0E5FF0FC074
:1006C000E5FF020EDBCF00F0030EDBCF01F0040EDE
:1006D000DBCF02F0050EDBCF03F0060EDBCF04F01C
:1006E000070EDBCF05F0080EDBCF06F0200E076EFD
:1006F000086A06C009F00A6A0B6A0C6AE56AE56ACC
:10070000E56A0950E56E0350E56E0250E56E015052
:10071000E56E0050E56E19EC04F00D6E080EE12652
:10072000300E0D263A0E0D5C05E30D500E6E270EB1
:100730000E240D6EFF0E07260822000E07240E6EF3
:100740000F0E08200F6E0EC0E9FF0FC0EAFF0DC0AC
:10075000EFFF0C50E56E0B50E56E0A50E56E095048
:10076000E56E0350E56E0250E56E0150E56E0050F7
:10077000E56EB6EC04F0006EF3CF01F0F4CF02F0BA
:10078000E9CF03F0080EE12600500110021003101B
:10079000D8A4AFD707C000F008C001F004C002F031
:1007A00005C003F000C004F001C005F0004A012AB2
:1007B000000E04260F0E052204C0E9FF05C0EAFF63
:1007C000EFCF04F002C0E9FF03C0EAFF04C0EFFF6F
:1007D000024A032A000E015C02E1200E005CE2E303
:1007E00002C0E9FF03C0EAFF000EEF6AE4CF0FF09A
:1007F000E4CF0EF0E4CF0DF0E4CF0CF0E4CF0BF03B
:10080000E4CF0AF0E4CF09F0E4CF08F0E4CF07F03A
:10081000E4CF06F0E4CF05F0E4CF04F0E4CF03F03A
:10082000E4CF02F0E4CF01F0E4CF00F0E4CFD9FF51
:100830001200D9CFE5FFE1CFD9FF00C0E5FF01C02D
:10084000E5FF02C0E5FF03C0E5FF04C0E5FF05C00A
:10085000E5FF06C0E5FF07C0E5FF08C0E5FF09C0EA
:10086000E5FF0AC0E5FF020EDBCF00F0030EDBCF91
:1008700001F0040EDBCF02F0050EDBCF03F0060E15
:10088000DBCF04F0070EDBCF05F0080EDBCF06F060
:10089000090EDBCF07F0086A045005100610071098
:1008A00005E1E968F468F368E86847D0096A075029
:1008B000800BE8440A6E0A501BE1045004260536FA
:1008C000063607360750035C08E10650025C05E176
:1008D0000550015C02E10450005C06E2D89007324A
:1008E00006320532043204D0092A09C008F0DFD7E5
:1008F0000750035C08E10650025C05E10550015C0D
:1009000002E10450005C08E30450005E0550015A07
:100910000650025A0750035AD89007320632053261
:10092000043208C009F008060950E2E103C0E9FFFB
:1009300002C0F4FF01C0F3FF0050E4CF0AF0E4CF9F
:1009400009F0E4CF08F0E4CF07F0E4CF06F0E4CFFD
:1009500005F0E4CF04F0E4CF03F0E4CF02F0E4CFFD
:1009600001F0E4CF00F0E4CFD9FF1200D9CFE5FFCA
:10097000E1CFD9FF00C0E5FF01C0E5FF02C0E5FF00
:1009800003C0E5FF04C0E5FF05C0E5FF06C0E5FFC5
:1009900007C0E5FF08C0E5FF09C0E5FF0AC0E5FFA5
:1009A0000BC0E5FF0CC0E5FF0DC0E5FF020EDBCF7D
:1009B00000F0030EDBCF01F0040EDBCF02F0050EDA
:1009C000DBCF03F0060EDBCF04F0070EDBCF05F024
:1009D000080EDBCF06F0090EDBCF07F0086A096AC4
:1009E0000A6A0B6A200E0C6E0350800BE8440D6EF1
:1009F0000050002601360236033608500826093614
:100A00000A360B360D50D8A4088007500B5C08E15D
:100A100006500A5C05E10550095C02E10450085CDF
:100A200009E30450085E0550095A06500A5A075057
:100A30000B5A00800C040D6E0DC00CF00D50D4E16B
:100A400003C0E9FF02C0F4FF01C0F3FF0050E4CF90
:100A50000DF0E4CF0CF0E4CF0BF0E4CF0AF0E4CFDC
:100A600009F0E4CF08F0E4CF07F0E4CF06F0E4CFDC
:100A700005F0E4CF04F0E4CF03F0E4CF02F0E4CFDC
:100A800001F0E4CF00F0E4CFD9FF12000F01386B82
:100A90000F01396B0F013A6B0F013B6B0F013C6B80
:100AA000C26AC16AC06A796A786A776A94949288DD
:100AB0008B94000EE56A95EC01F0E652000EE56AB3
:100AC000E56AFAEC09F0E652E652800EE56E0F0E8A
:100AD000E56E210EE56EA4EC08F0030EE126000E93
:100AE000E56E0C0EE56E460EE56E70EC08F0030E3A
:100AF000E126006A002AE56A010EE56EFAEC09F0CB
:100B0000E652E65200C001F00A0EE56E0F0EE56EE9
:100B10002F0EE56EE56A0150E56E36EC08F0050E25
:100B2000E1260A0E005C0AE2000EE56E0C0EE56E90
:100B30004C0EE56EA4EC08F0030EE1260A0E005CF4
:100B40000DE3640E005C0AE2000EE56E0C0EE56E2D
:100B5000500EE56EA4EC08F0030EE126800EE56E63
:100B60000F0EE56E2F0EE56EA4EC08F0030EE126E5
:100B7000F00E3FEC06F0F00E3FEC06F0BBD7120093
:100B8000D9CFE5FFE1CFD9FF00C0E5FF01C0E5FF08
:100B900002C0E5FF03C0E5FF04C0E5FF05C0E5FFB7
:100BA00006C0E5FF020EDBCF00F0030EDBCF01F045
:100BB000040EDBCF02F0050EDBCF03F0060EDBCF19
:100BC00004F0070EDBCF05F0080EDBCF06F0D8806F
:100BD00003AED89015E306500A0A12E104C0E9FFFB
:100BE00005C0EAFF2D0EEF6E044A052A031E021E01
:100BF000011E006C05E1012A03E1022AD8B4032A90
:100C00000650E56E0550E56E0450E56E0350E56E46
:100C10000250E56E0150E56E0050E56E3DEC03F0CC
:100C2000070EE126E4CF06F0E4CF05F0E4CF04F0B0
:100C3000E4CF03F0E4CF02F0E4CF01F0E4CF00F022
:100C4000E4CFD9FF120020454E47000020200000CD
:100C5000200020454E470000E806E56E630E6BEC71
:100C600006F0E4500BE000D0E56E630E6BEC06F08E
:100C700000D000D00000E450E82EF6D71200E806BD
:100C8000E56E090E2CEC06F0630E6BEC06F0E450FA
:100C90000EE000D0E56E090E2CEC06F0630E6BEC56
:100CA00006F000D000D00000E450E82EF3D7120088
:100CB000E806E56E090E6BEC06F0E4500BE000D0A0
:100CC000E56E090E6BEC06F000D0E450000000D099
:100CD000E82EF6D71200E8060000E85007E000D042
:100CE00000D000D000D00000E82EFAD71200D9CFF3
:100CF000E5FFE1CFD9FF00C0E5FF01C0E5FF02C07D
:100D0000E5FF03C0E5FF04C0E5FF020EDBCF00F006
:100D1000030EDBCF01F0040EDBCF02F00050E56ED6
:100D200037EC09F00F01346FE65286EC0AF0006AE6
:100D30000150005C07E20250E56E82EC01F0E652E1
:100D4000002AF6D7006A01C002F0036A02501008B8
:100D5000026E000E035600C004F0800FF36E0350C5
:100D6000800FF35C02E10250045C07E2200EE56EA6
:100D700082EC01F0E652002AE6D7E4CF04F0E4CF9B
:100D800003F0E4CF02F0E4CF01F0E4CF00F0E4CFD1
:100D9000D9FF1200D9CFE5FFE1CFD9FF00C0E5FFB1
:100DA00001C0E5FF020EDBCF00F000380F0B016E33
:100DB000E56E6AEC07F0E6520050E56E6AEC07F06B
:100DC000E652380E6BEC06F0000000000000000058
:100DD0000000000000000000000000000000000013
:100DE0000000000000000000000000000000000003
:100DF00000000000000000000000000000000000F3
:100E000000000000000000000000000000000000E2
:100E100000000000000000000000000000000000D2
:100E20000000000000000000E4CF01F0E4CF00F07B
:100E3000E4CFD9FF120011EEFFF021EEFFF0F86AC7
:100E4000A68EA69C1C0EF66E150EF76E000EF86EA2
:100E50000900F5CF05F00900F5CF06F034D0090000
:100E6000F5CF00F00900F5CF01F00900F5CF02F051
:100E700009000900F5CFE9FF0900F5CFEAFF0900F5
:100E800009000900F5CF03F00900F5CF04F00900CF
:100E90000900F6CF07F0F7CF08F0F8CF09F000C04F
:100EA000F6FF01C0F7FF02C0F8FF03D00900F5CF3D
:100EB000EEFF0306FBE20406F9E207C0F6FF08C0F6
:100EC000F7FF09C0F8FF0506CAE20606C8E246ECCD
:100ED00005F0FFD7D9CFE5FFE1CFD9FF00C0E5FF8F
:100EE000020EDBCF00F000500F01336F006A33B108
:100EF000002A0050010BE838F46E8A50EF0BF41012
:100F00008A6E006A33B3002A0050010BE838E844C7
:100F1000F46E8A50DF0BF4108A6E006A33B5002A33
:100F20000050010BE840E840F46E8A50BF0BF4100B
:100F30008A6E006A33B7002A0050010BE840F46E55
:100F40008A507F0BF4108A6E8D8400000000000030
:100F5000000000000000000000008D94E4CF00F0CD
:100F6000E4CFD9FF1200D9CFE5FFE1CFD9FF00C010
:100F7000E5FF01C0E5FF02C0E5FF03C0E5FF04C0D7
:100F8000E5FF05C0E5FF06C0E5FF020EDBCF00F080
:100F9000030EDBCF01F0040EDBCF02F0050EDBCF3A
:100FA00003F0060EDBCF04F0E86A01BEFF0E056E0B
:100FB000066E0450E56E0350E56E0250E56E065075
:100FC000E56E0550E56E0150E56E0050E56EC0EC33
:100FD00005F0070EE126E4CF06F0E4CF05F0E4CFFC
:100FE00004F0E4CF03F0E4CF02F0E4CF01F0E4CF6B
:100FF00000F0E4CFD9FF1200D9CFE5FFE1CFD9FF50
:1010000000C0E5FF01C0E5FF02C0E5FF03C0E5FF4A
:10101000020EDBCF00F0030EDBCF01F0000000007A
:1010200000000000000000000000000000000000C0
:101030000000000000000000000000000050FF0F52
:10104000026EFF0E0120036E02C000F003C001F02B
:1010500002500310E3E1E4CF03F0E4CF02F0E4CF69
:1010600001F0E4CF00F0E4CFD9FF1200D9CFE5FFC3
:10107000E1CFD9FF00C0E5FF01C0E5FF02C0E5FFF9
:1010800003C0E5FF04C0E5FF020EDBCF00F0030E56
:10109000DBCF01F0040EDBCF02F0050EDBCF03F057
:1010A000060EDBCF04F00450E56E0350E56E0250EF
:1010B000E56EE56AE56A0150E56E0050E56E3DECCF
:1010C00003F0070EE126E4CF04F0E4CF03F0E4CF11
:1010D00002F0E4CF01F0E4CF00F0E4CFD9FF12003A
:1010E000D9CFE5FFE1CFD9FF00C0E5FF01C0E5FFA3
:1010F00002C0E5FF03C0E5FF020EDBCF00F0030EE8
:10110000DBCF01F0040EDBCF02F000C0E9FF01C02D
:10111000F3FF025041EC0AF0036E03500AE0035063
:10112000E56E2DEC0AF0E652002AEFE3014A022AAE
:10113000ECD7E4CF03F0E4CF02F0E4CF01F0E4CF4A
:1011400000F0E4CFD9FF1200D9CFE5FFE1CFD9FFFE
:1011500000C0E5FF01C0E5FF02C0E5FF03C0E5FFF9
:10116000020EDBCF00F0030EDBCF01F0040EDBCF6D
:1011700002F000C0E9FF01C0F3FF025041EC0AF0A9
:10118000036E03500AE00350E56E2DEC0AF0E652C0
:10119000002AEFE3014A022AECD7E4CF03F0E4CFC0
:1011A00002F0E4CF01F0E4CF00F0E4CFD9FF120069
:1011B000D9CFE5FFE1CFD9FF00C0E5FF01C0E5FFD2
:1011C00002C0E5FF03C0E5FF020EDBCF00F0030E17
:1011D000DBCF01F0040EDBCF02F0080E036E0250ED
:1011E00002E00C0E036E005002E0032A032A0150B5
:1011F00001E0032A0350E56E19EC0AF0E652E4CF51
:1012000003F0E4CF02F0E4CF01F0E4CF00F0E4CF4C
:10121000D9FF1200D9CFE5FFE1CFD9FF00C0E5FF2C
:1012200001C0E5FF02C0E5FF03C0E5FF020EDBCF12
:1012300000F0030EDBCF01F0A00E58EC06F00050DA
:10124000FF0F026EFF0E0120036E02C000F003C00C
:1012500001F002500310F0E1E4CF03F0E4CF02F01C
:10126000E4CF01F0E4CF00F0E4CFD9FF1200D9CFF2
:10127000E5FFE1CFD9FF00C0E5FF020EDBCF00F0B4
:10128000005C13E2005002E1E86A10D00050010A4D
:1012900002E1400E0BD00050020A02E1100E06D00F
:1012A0000050030A02E1500E01D0E86AE4CF00F0DA
:1012B000E4CFD9FF1200D9CFE5FFE1CFD9FF00C0BD
:1012C000E5FF020EDBCF00F00050E56E37EC09F0D1
:1012D0000F01346FE65286EC0AF0006A200EE56ECC
:1012E00082EC01F0E652002A100E005CF7E386EC77
:1012F0000AF0E4CF00F0E4CFD9FF1200D9CFE5FF28
:10130000E1CFD9FF00C0E5FF01C0E5FF020EDBCF52
:1013100000F000500BE0016A0050015C07E2140E7F
:10132000E56E19EC0AF0E652012AF6D7E4CF01F097
:10133000E4CF00F0E4CFD9FF1200D9CFE5FFE1CF31
:10134000D9FF00C0E5FF01C0E5FF020EDBCF00F0D2
:1013500000500BE0016A0050015C07E2100EE56EE0
:1013600019EC0AF0E652012AF6D7E4CF01F0E4CFF7
:1013700000F0E4CFD9FF1200D9CFE5FFE1CFD9FFCC
:1013800000C0E5FF01C0E5FF020EDBCF00F000501A
:101390000BE0016A0050015C07E21C0EE56E19ECDF
:1013A0000AF0E652012AF6D7E4CF01F0E4CF00F0CC
:1013B000E4CFD9FF1200D9CFE5FFE1CFD9FF00C0BC
:1013C000E5FF01C0E5FF020EDBCF00F000500BE0AF
:1013D000016A0050015C07E2180EE56E19EC0AF094
:1013E000E652012AF6D7E4CF01F0E4CF00F0E4CFD3
:1013F000D9FF1200D9CFE5FFE1CFD9FF00C0E5FF4B
:1014000001C0E5FF020EDBCF00F0030EDBCF01F0E1
:101410000050E56E37EC09F0E65201240F01346FFD
:1014200086EC0AF0E4CF01F0E4CF00F0E4CFD9FF7E
:101430001200D9CFE5FFE1CFD9FF00C0E5FF020ED2
:10144000DBCF00F08D920050E56ECAEC06F0E6525C
:10145000E4CF00F0E4CFD9FF1200D9CFE5FFE1CF10
:10146000D9FF00C0E5FF020EDBCF00F08D820050F7
:10147000E56ECAEC06F0E652E4CF00F0E4CFD9FF07
:101480001200E8AE04D0F3CFEAFFEE501200E8BC41
:1014900095EF0AF0E9CFF6FFF3CFF7FFF86E0900FA
:1014A000F5501200020EE56E19EC0AF0E652A00E9D
:1014B00058EC06F0500E58EC06F0300E58EC06F0E2
:1014C0001200010EE56E19EC0AF0E652A00E58EC7F
:1014D00006F0500E58EC06F0300E58EC06F01200F4
:1014E000F2CFF6FFF29EA69EA69CE9CFA9FFF3CF0E
:1014F000AAFFA680A850F6BEF28E12000048656CC6
:101500006C6F20576F726C6421000000800E0F0119
:101510003411E56E19EC0AF0E65212000100FC14D9
:0E1520000000200F00000F00000070EF0AF026
:00000001FF
