:020000040000FA
:1003000002EF1DF0D9CFE5FFE1CFD9FF00C0E5FF37
:10031000020EDBCF00F00050E56E6BEC20F0E652F1
:10032000E4CF00F0E4CFD9FF1200D9CFE5FFE1CF51
:10033000D9FF00C0E5FF01C0E5FF02C0E5FF03C033
:10034000E5FF04C0E5FF05C0E5FF06C0E5FF07C007
:10035000E5FF08C0E5FF09C0E5FF0AC0E5FF020EA2
:10036000DBCF00F0030EDBCF01F0040EDBCF02F099
:10037000050EDBCF03F0060EDBCF04F0070EDBCF5C
:1003800005F0080EDBCF06F03B0E035C08E19A0E89
:10039000025C05E1CA0E015C02E1000E005CD8A01F
:1003A00018EF04F00450090F076E000E0520086EC8
:1003B000000E0620096EE56AE56AE56A0A0EE56E3A
:1003C0000350E56E0250E56E0150E56E0050E56E9B
:1003D0004EEC19F00A6E080EE126300E0A260AC00D
:1003E000E5FF07C0E9FF08C0F3FF0950CEEC20F09D
:1003F000E56AE56AE56A0A0EE56E0350E56E0250AD
:10040000E56E0150E56E0050E56EEBEC19F0006E04
:10041000F3CF01F0F4CF02F0E9CF03F0080EE126AC
:100420000450080F076E000E0520086E000E06200F
:10043000096EE56AE56AE56A0A0EE56E0350E56E47
:100440000250E56E0150E56E0050E56E4EEC19F07D
:100450000A6E080EE126300E0A260AC0E5FF07C024
:10046000E9FF08C0F3FF0950CEEC20F0E56AE56A29
:10047000E56A0A0EE56E0350E56E0250E56E015026
:10048000E56E0050E56EEBEC19F0006EF3CF01F075
:10049000F4CF02F0E9CF03F0080EE1260450070F75
:1004A000076E000E0520086E000E0620096EE56A34
:1004B000E56AE56A0A0EE56E0350E56E0250E56EE8
:1004C0000150E56E0050E56E4EEC19F00A6E080E14
:1004D000E126300E0A260AC0E5FF07C0E9FF08C082
:1004E000F3FF0950CEEC20F0E56AE56AE56A0A0EF2
:1004F000E56E0350E56E0250E56E0150E56E00506A
:10050000E56EEBEC19F0006EF3CF01F0F4CF02F0E2
:10051000E9CF03F0080EE1260450060F076E000E27
:100520000520086E000E0620096EE56AE56AE56A98
:100530000A0EE56E0350E56E0250E56E0150E56E61
:100540000050E56E4EEC19F00A6E080EE126300EF2
:100550000A260AC0E5FF07C0E9FF08C0F3FF0950FB
:10056000CEEC20F0E56AE56AE56A0A0EE56E035016
:10057000E56E0250E56E0150E56E0050E56EEBEC65
:1005800019F0006EF3CF01F0F4CF02F0E9CF03F0E1
:10059000080EE1260450050F076E000E0520086EB8
:1005A000000E0620096EE56AE56AE56A0A0EE56E48
:1005B0000350E56E0250E56E0150E56E0050E56EA9
:1005C0004EEC19F00A6E080EE126300E0A260AC01B
:1005D000E5FF07C0E9FF08C0F3FF0950CEEC20F0AB
:1005E000E56AE56AE56A0A0EE56E0350E56E0250BB
:1005F000E56E0150E56E0050E56EEBEC19F0006E13
:10060000F3CF01F0F4CF02F0E9CF03F0080EE126BA
:100610000450040F076E000E0520086E000E062021
:10062000096EE56AE56AE56A0A0EE56E0350E56E55
:100630000250E56E0150E56E0050E56E4EEC19F08B
:100640000A6E080EE126300E0A260AC0E5FF07C032
:10065000E9FF08C0F3FF0950CEEC20F0E56AE56A37
:10066000E56A0A0EE56E0350E56E0250E56E015034
:10067000E56E0050E56EEBEC19F0006EF3CF01F083
:10068000F4CF02F0E9CF03F0080EE1260450030F87
:10069000076E000E0520086E000E0620096EE56A42
:1006A000E56AE56A0A0EE56E0350E56E0250E56EF6
:1006B0000150E56E0050E56E4EEC19F00A6E080E22
:1006C000E126300E0A260AC0E5FF07C0E9FF08C090
:1006D000F3FF0950CEEC20F0E56AE56AE56A0A0E00
:1006E000E56E0350E56E0250E56E0150E56E005078
:1006F000E56EEBEC19F0006EF3CF01F0F4CF02F0F1
:10070000E9CF03F0080EE1260450020F076E000E39
:100710000520086E000E0620096EE56AE56AE56AA6
:100720000A0EE56E0350E56E0250E56E0150E56E6F
:100730000050E56E4EEC19F00A6E080EE126300E00
:100740000A260AC0E5FF07C0E9FF08C0F3FF095009
:10075000CEEC20F0E56AE56AE56A0A0EE56E035024
:10076000E56E0250E56E0150E56E0050E56EEBEC73
:1007700019F0006EF3CF01F0F4CF02F0E9CF03F0EF
:10078000080EE1260450010F076E000E0520086ECA
:10079000000E0620096EE56AE56AE56A0A0EE56E56
:1007A0000350E56E0250E56E0150E56E0050E56EB7
:1007B0004EEC19F00A6E080EE126300E0A260AC029
:1007C000E5FF07C0E9FF08C0F3FF0950CEEC20F0B9
:1007D000E56AE56AE56A0A0EE56E0350E56E0250C9
:1007E000E56E0150E56E0050E56EEBEC19F0006E21
:1007F000080EE1260050076E300E072607C0E5FF01
:1008000004C0E9FF05C0F3FF0650CEEC20F0045011
:100810000A0F076E000E0520086E000E0620E56A1E
:1008200007C0E9FF08C0F3FFCEEC20F039EF11F06C
:10083000050E035C08E1F50E025C05E1E10E015CCA
:1008400002E1000E005CD8A040EF06F00450090F52
:10085000076E000E0520086E000E0620096EE56A80
:10086000E56AE56A0A0EE56E0350E56E0250E56E34
:100870000150E56E0050E56E4EEC19F00A6E080E60
:10088000E126300E0A260AC0E5FF07C0E9FF08C0CE
:10089000F3FF0950CEEC20F0E56AE56AE56A0A0E3E
:1008A000E56E0350E56E0250E56E0150E56E0050B6
:1008B000E56EEBEC19F0006EF3CF01F0F4CF02F02F
:1008C000E9CF03F0080EE1260450080F076E000E72
:1008D0000520086E000E0620096EE56AE56AE56AE5
:1008E0000A0EE56E0350E56E0250E56E0150E56EAE
:1008F0000050E56E4EEC19F00A6E080EE126300E3F
:100900000A260AC0E5FF07C0E9FF08C0F3FF095047
:10091000CEEC20F0E56AE56AE56A0A0EE56E035062
:10092000E56E0250E56E0150E56E0050E56EEBECB1
:1009300019F0006EF3CF01F0F4CF02F0E9CF03F02D
:10094000080EE1260450070F076E000E0520086E02
:10095000000E0620096EE56AE56AE56A0A0EE56E94
:100960000350E56E0250E56E0150E56E0050E56EF5
:100970004EEC19F00A6E080EE126300E0A260AC067
:10098000E5FF07C0E9FF08C0F3FF0950CEEC20F0F7
:10099000E56AE56AE56A0A0EE56E0350E56E025007
:1009A000E56E0150E56E0050E56EEBEC19F0006E5F
:1009B000F3CF01F0F4CF02F0E9CF03F0080EE12607
:1009C0000450060F076E000E0520086E000E06206C
:1009D000096EE56AE56AE56A0A0EE56E0350E56EA2
:1009E0000250E56E0150E56E0050E56E4EEC19F0D8
:1009F0000A6E080EE126300E0A260AC0E5FF07C07F
:100A0000E9FF08C0F3FF0950CEEC20F0E56AE56A83
:100A1000E56A0A0EE56E0350E56E0250E56E015080
:100A2000E56E0050E56EEBEC19F0006EF3CF01F0CF
:100A3000F4CF02F0E9CF03F0080EE1260450050FD1
:100A4000076E000E0520086E000E0620096EE56A8E
:100A5000E56AE56A0A0EE56E0350E56E0250E56E42
:100A60000150E56E0050E56E4EEC19F00A6E080E6E
:100A7000E126300E0A260AC0E5FF07C0E9FF08C0DC
:100A8000F3FF0950CEEC20F0E56AE56AE56A0A0E4C
:100A9000E56E0350E56E0250E56E0150E56E0050C4
:100AA000E56EEBEC19F0006EF3CF01F0F4CF02F03D
:100AB000E9CF03F0080EE1260450040F076E000E84
:100AC0000520086E000E0620096EE56AE56AE56AF3
:100AD0000A0EE56E0350E56E0250E56E0150E56EBC
:100AE0000050E56E4EEC19F00A6E080EE126300E4D
:100AF0000A260AC0E5FF07C0E9FF08C0F3FF095056
:100B0000CEEC20F0E56AE56AE56A0A0EE56E035070
:100B1000E56E0250E56E0150E56E0050E56EEBECBF
:100B200019F0006EF3CF01F0F4CF02F0E9CF03F03B
:100B3000080EE1260450030F076E000E0520086E14
:100B4000000E0620096EE56AE56AE56A0A0EE56EA2
:100B50000350E56E0250E56E0150E56E0050E56E03
:100B60004EEC19F00A6E080EE126300E0A260AC075
:100B7000E5FF07C0E9FF08C0F3FF0950CEEC20F005
:100B8000E56AE56AE56A0A0EE56E0350E56E025015
:100B9000E56E0150E56E0050E56EEBEC19F0006E6D
:100BA000F3CF01F0F4CF02F0E9CF03F0080EE12615
:100BB0000450020F076E000E0520086E000E06207E
:100BC000096EE56AE56AE56A0A0EE56E0350E56EB0
:100BD0000250E56E0150E56E0050E56E4EEC19F0E6
:100BE0000A6E080EE126300E0A260AC0E5FF07C08D
:100BF000E9FF08C0F3FF0950CEEC20F0E56AE56A92
:100C0000E56A0A0EE56E0350E56E0250E56E01508E
:100C1000E56E0050E56EEBEC19F0006E080EE12673
:100C20000450010F076E000E0520086E000E06200E
:100C3000096E00500A6E300E0A260AC0E5FF07C092
:100C4000E9FF08C0F3FF0950CEEC20F0200EE56E5E
:100C500004C0E9FF05C0F3FF0650CEEC20F00450BD
:100C60000A0F076E000E0520086E000E0620E56ACA
:100C700007C0E9FF08C0F3FFCEEC20F039EF11F018
:100C8000000E035C08E1980E025C05E1960E015C23
:100C900002E1800E005CD8A0EED10450090F076E6F
:100CA000000E0520086E000E0620096EE56AE56A52
:100CB000E56A0A0EE56E0350E56E0250E56E0150DE
:100CC000E56E0050E56E4EEC19F00A6E080EE12656
:100CD000300E0A260AC0E5FF07C0E9FF08C0F3FF8F
:100CE0000950CEEC20F0E56AE56AE56A0A0EE56E89
:100CF0000350E56E0250E56E0150E56E0050E56E62
:100D0000EBEC19F0006EF3CF01F0F4CF02F0E9CF75
:100D100003F0080EE1260450080F076E000E0520B0
:100D2000086E000E0620096EE56AE56AE56A0A0E9D
:100D3000E56E0350E56E0250E56E0150E56E005021
:100D4000E56E4EEC19F00A6E080EE126300E0A260A
:100D50000AC0E5FF07C0E9FF08C0F3FF0950CEEC69
:100D600020F0E56AE56AE56A0A0EE56E0350E56E75
:100D70000250E56E0150E56E0050E56EEBEC19F0A7
:100D8000006EF3CF01F0F4CF02F0E9CF03F0080ECC
:100D9000E1260450070F076E000E0520086E000EB6
:100DA0000620096EE56AE56AE56A0A0EE56E0350FB
:100DB000E56E0250E56E0150E56E0050E56E4EECBA
:100DC00019F00A6E080EE126300E0A260AC0E5FF69
:100DD00007C0E9FF08C0F3FF0950CEEC20F0E56A38
:100DE000E56AE56A0A0EE56E0350E56E0250E56EAF
:100DF0000150E56E0050E56EEBEC19F0006EF3CF9C
:100E000001F0F4CF02F0E9CF03F0080EE126045020
:100E1000060F076E000E0520086E000E0620096EF4
:100E2000E56AE56AE56A0A0EE56E0350E56E025072
:100E3000E56E0150E56E0050E56E4EEC19F00A6E5D
:100E4000080EE126300E0A260AC0E5FF07C0E9FFBA
:100E500008C0F3FF0950CEEC20F0E56AE56AE56AC8
:100E60000A0EE56E0350E56E0250E56E0150E56E28
:100E70000050E56EEBEC19F0006EF3CF01F0F4CF0B
:100E800002F0E9CF03F0080EE1260450050F076ECB
:100E9000000E0520086E000E0620096EE56AE56A60
:100EA000E56A0A0EE56E0350E56E0250E56E0150EC
:100EB000E56E0050E56E4EEC19F00A6E080EE12664
:100EC000300E0A260AC0E5FF07C0E9FF08C0F3FF9D
:100ED0000950CEEC20F0E56AE56AE56A0A0EE56E97
:100EE0000350E56E0250E56E0150E56E0050E56E70
:100EF000EBEC19F0006EF3CF01F0F4CF02F0E9CF84
:100F000003F0080EE1260450040F076E000E0520C2
:100F1000086E000E0620096EE56AE56AE56A0A0EAB
:100F2000E56E0350E56E0250E56E0150E56E00502F
:100F3000E56E4EEC19F00A6E080EE126300E0A2618
:100F40000AC0E5FF07C0E9FF08C0F3FF0950CEEC77
:100F500020F0E56AE56AE56A0A0EE56E0350E56E83
:100F60000250E56E0150E56E0050E56EEBEC19F0B5
:100F7000006EF3CF01F0F4CF02F0E9CF03F0080EDA
:100F8000E1260450030F076E000E0520086E000EC8
:100F90000620096EE56AE56AE56A0A0EE56E035009
:100FA000E56E0250E56E0150E56E0050E56E4EECC8
:100FB00019F00A6E080EE126300E0A260AC0E5FF77
:100FC00007C0E9FF08C0F3FF0950CEEC20F0E56A46
:100FD000E56AE56A0A0EE56E0350E56E0250E56EBD
:100FE0000150E56E0050E56EEBEC19F0006E080E56
:100FF000E1260450020F076E000E0520086E000E59
:101000000620096E00500A6E300E0A260AC0E5FF5F
:1010100007C0E9FF08C0F3FF0950CEEC20F00450F0
:10102000010F076E000E0520086E000E0620096EE7
:10103000200EE56E07C0E9FF08C0F3FF0950CEECB3
:1010400020F0200EE56E04C0E9FF05C0F3FF065056
:10105000CEEC20F004500A0F076E000E0520086E3B
:10106000000E0620E56A07C0E9FF08C0F3FFCEECDA
:1010700020F039EF11F0000E035C08E10F0E025C66
:1010800005E1420E015C02E1400E005CD8A0C2D135
:101090000450090F076E000E0520086E000E062092
:1010A000096EE56AE56AE56A0A0EE56E0350E56ECB
:1010B0000250E56E0150E56E0050E56E4EEC19F001
:1010C0000A6E080EE126300E0A260AC0E5FF07C0A8
:1010D000E9FF08C0F3FF0950CEEC20F0E56AE56AAD
:1010E000E56A0A0EE56E0350E56E0250E56E0150AA
:1010F000E56E0050E56EEBEC19F0006EF3CF01F0F9
:10110000F4CF02F0E9CF03F0080EE1260450080FF7
:10111000076E000E0520086E000E0620096EE56AB7
:10112000E56AE56A0A0EE56E0350E56E0250E56E6B
:101130000150E56E0050E56E4EEC19F00A6E080E97
:10114000E126300E0A260AC0E5FF07C0E9FF08C005
:10115000F3FF0950CEEC20F0E56AE56AE56A0A0E75
:10116000E56E0350E56E0250E56E0150E56E0050ED
:10117000E56EEBEC19F0006EF3CF01F0F4CF02F066
:10118000E9CF03F0080EE1260450070F076E000EAA
:101190000520086E000E0620096EE56AE56AE56A1C
:1011A0000A0EE56E0350E56E0250E56E0150E56EE5
:1011B0000050E56E4EEC19F00A6E080EE126300E76
:1011C0000A260AC0E5FF07C0E9FF08C0F3FF09507F
:1011D000CEEC20F0E56AE56AE56A0A0EE56E03509A
:1011E000E56E0250E56E0150E56E0050E56EEBECE9
:1011F00019F0006EF3CF01F0F4CF02F0E9CF03F065
:10120000080EE1260450060F076E000E0520086E3A
:10121000000E0620096EE56AE56AE56A0A0EE56ECB
:101220000350E56E0250E56E0150E56E0050E56E2C
:101230004EEC19F00A6E080EE126300E0A260AC09E
:10124000E5FF07C0E9FF08C0F3FF0950CEEC20F02E
:10125000E56AE56AE56A0A0EE56E0350E56E02503E
:10126000E56E0150E56E0050E56EEBEC19F0006E96
:10127000F3CF01F0F4CF02F0E9CF03F0080EE1263E
:101280000450050F076E000E0520086E000E0620A4
:10129000096EE56AE56AE56A0A0EE56E0350E56ED9
:1012A0000250E56E0150E56E0050E56E4EEC19F00F
:1012B0000A6E080EE126300E0A260AC0E5FF07C0B6
:1012C000E9FF08C0F3FF0950CEEC20F0E56AE56ABB
:1012D000E56A0A0EE56E0350E56E0250E56E0150B8
:1012E000E56E0050E56EEBEC19F0006EF3CF01F007
:1012F000F4CF02F0E9CF03F0080EE1260450040F0A
:10130000076E000E0520086E000E0620096EE56AC5
:10131000E56AE56A0A0EE56E0350E56E0250E56E79
:101320000150E56E0050E56E4EEC19F00A6E080EA5
:10133000E126300E0A260AC0E5FF07C0E9FF08C013
:10134000F3FF0950CEEC20F0E56AE56AE56A0A0E83
:10135000E56E0350E56E0250E56E0150E56E0050FB
:10136000E56EEBEC19F0006E080EE1260450030F59
:10137000076E000E0520086E000E0620096E005054
:101380000A6E300E0A260AC0E5FF07C0E9FF08C052
:10139000F3FF0950CEEC20F00450020F076E000E50
:1013A0000520086E000E0620096E200EE56E07C0AF
:1013B000E9FF08C0F3FF0950CEEC20F00450010F04
:1013C000076E000E0520086E000E0620096E200E26
:1013D000E56E07C0E9FF08C0F3FF0950CEEC20F02E
:1013E000200EE56E04C0E9FF05C0F3FF0650CEEC09
:1013F00020F004500A0F076E000E0520086E000E44
:101400000620E56A07C0E9FF08C0F3FFCEEC20F034
:1014100039EF11F0000E035C08E1010E025C05E1FA
:10142000860E015C02E1A00E005CD8A096D10450AB
:10143000090F076E000E0520086E000E0620096ECB
:10144000E56AE56AE56A0A0EE56E0350E56E02504C
:10145000E56E0150E56E0050E56E4EEC19F00A6E37
:10146000080EE126300E0A260AC0E5FF07C0E9FF94
:1014700008C0F3FF0950CEEC20F0E56AE56AE56AA2
:101480000A0EE56E0350E56E0250E56E0150E56E02
:101490000050E56EEBEC19F0006EF3CF01F0F4CFE5
:1014A00002F0E9CF03F0080EE1260450080F076EA2
:1014B000000E0520086E000E0620096EE56AE56A3A
:1014C000E56A0A0EE56E0350E56E0250E56E0150C6
:1014D000E56E0050E56E4EEC19F00A6E080EE1263E
:1014E000300E0A260AC0E5FF07C0E9FF08C0F3FF77
:1014F0000950CEEC20F0E56AE56AE56A0A0EE56E71
:101500000350E56E0250E56E0150E56E0050E56E49
:10151000EBEC19F0006EF3CF01F0F4CF02F0E9CF5D
:1015200003F0080EE1260450070F076E000E052099
:10153000086E000E0620096EE56AE56AE56A0A0E85
:10154000E56E0350E56E0250E56E0150E56E005009
:10155000E56E4EEC19F00A6E080EE126300E0A26F2
:101560000AC0E5FF07C0E9FF08C0F3FF0950CEEC51
:1015700020F0E56AE56AE56A0A0EE56E0350E56E5D
:101580000250E56E0150E56E0050E56EEBEC19F08F
:10159000006EF3CF01F0F4CF02F0E9CF03F0080EB4
:1015A000E1260450060F076E000E0520086E000E9F
:1015B0000620096EE56AE56AE56A0A0EE56E0350E3
:1015C000E56E0250E56E0150E56E0050E56E4EECA2
:1015D00019F00A6E080EE126300E0A260AC0E5FF51
:1015E00007C0E9FF08C0F3FF0950CEEC20F0E56A20
:1015F000E56AE56A0A0EE56E0350E56E0250E56E97
:101600000150E56E0050E56EEBEC19F0006EF3CF83
:1016100001F0F4CF02F0E9CF03F0080EE126045008
:10162000050F076E000E0520086E000E0620096EDD
:10163000E56AE56AE56A0A0EE56E0350E56E02505A
:10164000E56E0150E56E0050E56E4EEC19F00A6E45
:10165000080EE126300E0A260AC0E5FF07C0E9FFA2
:1016600008C0F3FF0950CEEC20F0E56AE56AE56AB0
:101670000A0EE56E0350E56E0250E56E0150E56E10
:101680000050E56EEBEC19F0006E080EE1260450F8
:10169000040F076E000E0520086E000E0620096E6E
:1016A00000500A6E300E0A260AC0E5FF07C0E9FFA7
:1016B00008C0F3FF0950CEEC20F00450030F076E72
:1016C000000E0520086E000E0620096E200EE56E45
:1016D00007C0E9FF08C0F3FF0950CEEC20F004502A
:1016E000020F076E000E0520086E000E0620096E20
:1016F000200EE56E07C0E9FF08C0F3FF0950CEECED
:1017000020F00450010F076E000E0520086E000E39
:101710000620096E200EE56E07C0E9FF08C0F3FF42
:101720000950CEEC20F0200EE56E04C0E9FF05C0A4
:10173000F3FF0650CEEC20F004500A0F076E000EA7
:101740000520086E000E0620E56A07C0E9FF08C004
:10175000F3FFCEEC20F039EF11F0000E035C08E14E
:10176000000E025C05E1270E015C02E1100E005C38
:10177000D8A06AD10450090F076E000E0520086E2C
:10178000000E0620096EE56AE56AE56A0A0EE56E56
:101790000350E56E0250E56E0150E56E0050E56EB7
:1017A0004EEC19F00A6E080EE126300E0A260AC029
:1017B000E5FF07C0E9FF08C0F3FF0950CEEC20F0B9
:1017C000E56AE56AE56A0A0EE56E0350E56E0250C9
:1017D000E56E0150E56E0050E56EEBEC19F0006E21
:1017E000F3CF01F0F4CF02F0E9CF03F0080EE126C9
:1017F0000450080F076E000E0520086E000E06202C
:10180000096EE56AE56AE56A0A0EE56E0350E56E63
:101810000250E56E0150E56E0050E56E4EEC19F099
:101820000A6E080EE126300E0A260AC0E5FF07C040
:10183000E9FF08C0F3FF0950CEEC20F0E56AE56A45
:10184000E56A0A0EE56E0350E56E0250E56E015042
:10185000E56E0050E56EEBEC19F0006EF3CF01F091
:10186000F4CF02F0E9CF03F0080EE1260450070F91
:10187000076E000E0520086E000E0620096EE56A50
:10188000E56AE56A0A0EE56E0350E56E0250E56E04
:101890000150E56E0050E56E4EEC19F00A6E080E30
:1018A000E126300E0A260AC0E5FF07C0E9FF08C09E
:1018B000F3FF0950CEEC20F0E56AE56AE56A0A0E0E
:1018C000E56E0350E56E0250E56E0150E56E005086
:1018D000E56EEBEC19F0006EF3CF01F0F4CF02F0FF
:1018E000E9CF03F0080EE1260450060F076E000E44
:1018F0000520086E000E0620096EE56AE56AE56AB5
:101900000A0EE56E0350E56E0250E56E0150E56E7D
:101910000050E56E4EEC19F00A6E080EE126300E0E
:101920000A260AC0E5FF07C0E9FF08C0F3FF095017
:10193000CEEC20F0E56AE56AE56A0A0EE56E035032
:10194000E56E0250E56E0150E56E0050E56EEBEC81
:1019500019F0006E080EE1260450050F076E000E08
:101960000520086E000E0620096E00500A6E300E2B
:101970000A260AC0E5FF07C0E9FF08C0F3FF0950C7
:10198000CEEC20F00450040F076E000E0520086E08
:10199000000E0620096E200EE56E07C0E9FF08C0A4
:1019A000F3FF0950CEEC20F00450030F076E000E39
:1019B0000520086E000E0620096E200EE56E07C099
:1019C000E9FF08C0F3FF0950CEEC20F00450020FED
:1019D000076E000E0520086E000E0620096E200E10
:1019E000E56E07C0E9FF08C0F3FF0950CEEC20F018
:1019F0000450010F076E000E0520086E000E062031
:101A0000096E200EE56E07C0E9FF08C0F3FF09501C
:101A1000CEEC20F0200EE56E04C0E9FF05C0F3FF18
:101A20000650CEEC20F004500A0F076E000E052081
:101A3000086E000E0620E56A07C0E9FF08C0F3FF44
:101A4000CEEC20F039EF11F0000E035C08E1000E3F
:101A5000025C05E1030E015C02E1E80E005CD8A027
:101A60003ED10450090F076E000E0520086E000ECF
:101A70000620096EE56AE56AE56A0A0EE56E03501E
:101A8000E56E0250E56E0150E56E0050E56E4EECDD
:101A900019F00A6E080EE126300E0A260AC0E5FF8C
:101AA00007C0E9FF08C0F3FF0950CEEC20F0E56A5B
:101AB000E56AE56A0A0EE56E0350E56E0250E56ED2
:101AC0000150E56E0050E56EEBEC19F0006EF3CFBF
:101AD00001F0F4CF02F0E9CF03F0080EE126045044
:101AE000080F076E000E0520086E000E0620096E16
:101AF000E56AE56AE56A0A0EE56E0350E56E025096
:101B0000E56E0150E56E0050E56E4EEC19F00A6E80
:101B1000080EE126300E0A260AC0E5FF07C0E9FFDD
:101B200008C0F3FF0950CEEC20F0E56AE56AE56AEB
:101B30000A0EE56E0350E56E0250E56E0150E56E4B
:101B40000050E56EEBEC19F0006EF3CF01F0F4CF2E
:101B500002F0E9CF03F0080EE1260450070F076EEC
:101B6000000E0520086E000E0620096EE56AE56A83
:101B7000E56A0A0EE56E0350E56E0250E56E01500F
:101B8000E56E0050E56E4EEC19F00A6E080EE12687
:101B9000300E0A260AC0E5FF07C0E9FF08C0F3FFC0
:101BA0000950CEEC20F0E56AE56AE56A0A0EE56EBA
:101BB0000350E56E0250E56E0150E56E0050E56E93
:101BC000EBEC19F0006E080EE1260450060F076ECC
:101BD000000E0520086E000E0620096E00500A6EE9
:101BE000300E0A260AC0E5FF07C0E9FF08C0F3FF70
:101BF0000950CEEC20F00450050F076E000E0520B2
:101C0000086E000E0620096E200EE56E07C0E9FF83
:101C100008C0F3FF0950CEEC20F00450040F076E0B
:101C2000000E0520086E000E0620096E200EE56EDF
:101C300007C0E9FF08C0F3FF0950CEEC20F00450C4
:101C4000030F076E000E0520086E000E0620096EB9
:101C5000200EE56E07C0E9FF08C0F3FF0950CEEC87
:101C600020F00450020F076E000E0520086E000ED3
:101C70000620096E200EE56E07C0E9FF08C0F3FFDD
:101C80000950CEEC20F00450010F076E000E052025
:101C9000086E000E0620096E200EE56E07C0E9FFF3
:101CA00008C0F3FF0950CEEC20F0200EE56E04C012
:101CB000E9FF05C0F3FF0650CEEC20F004500A0FF8
:101CC000076E000E0520086E000E0620E56A07C0AC
:101CD000E9FF08C0F3FFCEEC20F039EF11F0000E61
:101CE000035C08E1000E025C05E1000E015C02E10C
:101CF000640E005CD8A011D10450090F076E000ECD
:101D00000520086E000E0620096EE56AE56AE56AA0
:101D10000A0EE56E0350E56E0250E56E0150E56E69
:101D20000050E56E4EEC19F00A6E080EE126300EFA
:101D30000A260AC0E5FF07C0E9FF08C0F3FF095003
:101D4000CEEC20F0E56AE56AE56A0A0EE56E03501E
:101D5000E56E0250E56E0150E56E0050E56EEBEC6D
:101D600019F0006EF3CF01F0F4CF02F0E9CF03F0E9
:101D7000080EE1260450080F076E000E0520086EBD
:101D8000000E0620096EE56AE56AE56A0A0EE56E50
:101D90000350E56E0250E56E0150E56E0050E56EB1
:101DA0004EEC19F00A6E080EE126300E0A260AC023
:101DB000E5FF07C0E9FF08C0F3FF0950CEEC20F0B3
:101DC000E56AE56AE56A0A0EE56E0350E56E0250C3
:101DD000E56E0150E56E0050E56EEBEC19F0006E1B
:101DE000080EE1260450070F076E000E0520086E4E
:101DF000000E0620096E00500A6E300E0A260AC038
:101E0000E5FF07C0E9FF08C0F3FF0950CEEC20F062
:101E10000450060F076E000E0520086E000E062007
:101E2000096E200EE56E07C0E9FF08C0F3FF0950F8
:101E3000CEEC20F00450050F076E000E0520086E52
:101E4000000E0620096E200EE56E07C0E9FF08C0EF
:101E5000F3FF0950CEEC20F00450040F076E000E83
:101E60000520086E000E0620096E200EE56E07C0E4
:101E7000E9FF08C0F3FF0950CEEC20F00450030F37
:101E8000076E000E0520086E000E0620096E200E5B
:101E9000E56E07C0E9FF08C0F3FF0950CEEC20F063
:101EA0000450020F076E000E0520086E000E06207B
:101EB000096E200EE56E07C0E9FF08C0F3FF095068
:101EC000CEEC20F00450010F076E000E0520086EC6
:101ED000000E0620096E200EE56E07C0E9FF08C05F
:101EE000F3FF0950CEEC20F0200EE56E04C0E9FFB0
:101EF00005C0F3FF0650CEEC20F004500A0F076E29
:101F0000000E0520086E000E0620E56A07C0E9FFF6
:101F100008C0F3FFCEEC20F0ACD1000E035C08E16A
:101F2000000E025C05E1000E015C02E10A0E005C9D
:101F3000D8A0E5D00450090F076E000E0520086EEA
:101F4000000E0620096EE56AE56AE56A0A0EE56E8E
:101F50000350E56E0250E56E0150E56E0050E56EEF
:101F60004EEC19F00A6E080EE126300E0A260AC061
:101F7000E5FF07C0E9FF08C0F3FF0950CEEC20F0F1
:101F8000E56AE56AE56A0A0EE56E0350E56E025001
:101F9000E56E0150E56E0050E56EEBEC19F0006E59
:101FA000080EE1260450080F076E000E0520086E8B
:101FB000000E0620096E00500A6E300E0A260AC076
:101FC000E5FF07C0E9FF08C0F3FF0950CEEC20F0A1
:101FD0000450070F076E000E0520086E000E062045
:101FE000096E200EE56E07C0E9FF08C0F3FF095037
:101FF000CEEC20F00450060F076E000E0520086E90
:10200000000E0620096E200EE56E07C0E9FF08C02D
:10201000F3FF0950CEEC20F00450050F076E000EC0
:102020000520086E000E0620096E200EE56E07C022
:10203000E9FF08C0F3FF0950CEEC20F00450040F74
:10204000076E000E0520086E000E0620096E200E99
:10205000E56E07C0E9FF08C0F3FF0950CEEC20F0A1
:102060000450030F076E000E0520086E000E0620B8
:10207000096E200EE56E07C0E9FF08C0F3FF0950A6
:10208000CEEC20F00450020F076E000E0520086E03
:10209000000E0620096E200EE56E07C0E9FF08C09D
:1020A000F3FF0950CEEC20F00450010F076E000E34
:1020B0000520086E000E0620096E200EE56E07C092
:1020C000E9FF08C0F3FF0950CEEC20F0200EE56ECA
:1020D00004C0E9FF05C0F3FF0650CEEC20F0045029
:1020E0000A0F076E000E0520086E000E0620E56A36
:1020F00007C0E9FF08C0F3FFCEEC20F0BAD00450CF
:10210000090F076E000E0520086E000E0620096EEE
:10211000300E002600C0E5FF07C0E9FF08C0F3FF4E
:102120000950CEEC20F00450080F006E000E052080
:10213000016E000E0620026E200EE56E00C0E9FF63
:1021400001C0F3FF0250CEEC20F00450070F006EE8
:10215000000E0520016E000E0620026E200EE56EB8
:1021600000C0E9FF01C0F3FF0250CEEC20F00450A4
:10217000060F006E000E0520016E000E0620026E96
:10218000200EE56E00C0E9FF01C0F3FF0250CEEC67
:1021900020F00450050F006E000E0520016E000EA9
:1021A0000620026E200EE56E00C0E9FF01C0F3FFBD
:1021B0000250CEEC20F00450040F006E000E0520FB
:1021C000016E000E0620026E200EE56E00C0E9FFD3
:1021D00001C0F3FF0250CEEC20F00450030F006E5C
:1021E000000E0520016E000E0620026E200EE56E28
:1021F00000C0E9FF01C0F3FF0250CEEC20F0045014
:10220000020F006E000E0520016E000E0620026E09
:10221000200EE56E00C0E9FF01C0F3FF0250CEECD6
:1022200020F00450010F006E000E0520016E000E1C
:102230000620026E200EE56E00C0E9FF01C0F3FF2C
:102240000250CEEC20F0200EE56E04C0E9FF05C080
:10225000F3FF0650CEEC20F00A0E0426000E0522F5
:102260000622E56A04C0E9FF05C0F3FF0650CEEC84
:1022700020F0E4CF0AF0E4CF09F0E4CF08F0E4CF97
:1022800007F0E4CF06F0E4CF05F0E4CF04F0E4CFAC
:1022900003F0E4CF02F0E4CF01F0E4CF00F0E4CFAC
:1022A000D9FF1200D9CFE5FFE1CFD9FF00C0E5FF8C
:1022B00001C0E5FF02C0E5FF03C0E5FF04C0E5FF84
:1022C00005C0E5FF06C0E5FF07C0E5FF08C0E5FF64
:1022D000020EDBCF00F0030EDBCF01F0040EDBCFEC
:1022E00002F0050EDBCF03F0060EDBCF04F0270E65
:1022F000015C02E1100E005CD8A0D4D00250040FA3
:10230000056E000E0320066E000E0420076EE56ABF
:102310000A0EE56E0150E56E0050E56E58EC1BF0BC
:10232000086E040EE126300E082608C0E5FF05C041
:10233000E9FF06C0F3FF0750CEEC20F0E56A0A0E75
:10234000E56E0150E56E0050E56EB5EC1BF0006ED9
:10235000F3CF01F0040EE1260250030F056E000ECC
:102360000320066E000E0420076EE56A0A0EE56E75
:102370000150E56E0050E56E58EC1BF0086E040E3F
:10238000E126300E082608C0E5FF05C0E9FF06C0BB
:10239000F3FF0750CEEC20F0E56A0A0EE56E01501F
:1023A000E56E0050E56EB5EC1BF0006EF3CF01F06A
:1023B000040EE1260250020F056E000E0320066E89
:1023C000000E0420076EE56A0A0EE56E0150E56E08
:1023D0000050E56E58EC1BF0086E040EE126300E3E
:1023E000082608C0E5FF05C0E9FF06C0F3FF075057
:1023F000CEEC20F0E56A0A0EE56E0150E56E005065
:10240000E56EB5EC1BF0006EF3CF01F0040EE12693
:102410000250010F056E000E0320066E000E042010
:10242000076EE56A0A0EE56E0150E56E0050E56E36
:1024300058EC1BF0086E040EE126300E082608C08A
:10244000E5FF05C0E9FF06C0F3FF0750CEEC20F022
:10245000E56A0A0EE56E0150E56E0050E56EB5ECDA
:102460001BF0006E040EE1260050056E300E0526AE
:1024700005C0E5FF02C0E9FF03C0F3FF0450CEEC46
:1024800020F00250050F056E000E0320066E000EB0
:102490000420E56A05C0E9FF06C0F3FFCEEC20F09A
:1024A00098EF14F0030E015C02E1E80E005CD8A086
:1024B000B7D00250040F056E000E0320066E000E0A
:1024C0000420076EE56A0A0EE56E0150E56E0050C5
:1024D000E56E58EC1BF0086E040EE126300E08265F
:1024E00008C0E5FF05C0E9FF06C0F3FF0750CEECCA
:1024F00020F0E56A0A0EE56E0150E56E0050E56ECB
:10250000B5EC1BF0006EF3CF01F0040EE126025093
:10251000030F056E000E0320066E000E0420076EEA
:10252000E56A0A0EE56E0150E56E0050E56E58EC66
:102530001BF0086E040EE126300E082608C0E5FFE9
:1025400005C0E9FF06C0F3FF0750CEEC20F0E56AB6
:102550000A0EE56E0150E56E0050E56EB5EC1BF01D
:10256000006EF3CF01F0040EE1260250020F056E5B
:10257000000E0320066E000E0420076EE56A0A0EA8
:10258000E56E0150E56E0050E56E58EC1BF0086EEC
:10259000040EE126300E082608C0E5FF05C0E9FF5D
:1025A00006C0F3FF0750CEEC20F0E56A0A0EE56E98
:1025B0000150E56E0050E56EB5EC1BF0006E040EA8
:1025C000E1260250010F056E000E0320066E000E7C
:1025D0000420076E0050086E300E082608C0E5FF84
:1025E00005C0E9FF06C0F3FF0750CEEC20F0200E37
:1025F000E56E02C0E9FF03C0F3FF0450CEEC20F00B
:102600000250050F056E000E0320066E000E04201A
:10261000E56A05C0E9FF06C0F3FFCEEC20F088D1E3
:10262000000E015C02E1640E005CD8A09BD0025059
:10263000040F056E000E0320066E000E0420076EC8
:10264000E56A0A0EE56E0150E56E0050E56E58EC45
:102650001BF0086E040EE126300E082608C0E5FFC8
:1026600005C0E9FF06C0F3FF0750CEEC20F0E56A95
:102670000A0EE56E0150E56E0050E56EB5EC1BF0FC
:10268000006EF3CF01F0040EE1260250030F056E39
:10269000000E0320066E000E0420076EE56A0A0E87
:1026A000E56E0150E56E0050E56E58EC1BF0086ECB
:1026B000040EE126300E082608C0E5FF05C0E9FF3C
:1026C00006C0F3FF0750CEEC20F0E56A0A0EE56E77
:1026D0000150E56E0050E56EB5EC1BF0006E040E87
:1026E000E1260250020F056E000E0320066E000E5A
:1026F0000420076E0050086E300E082608C0E5FF63
:1027000005C0E9FF06C0F3FF0750CEEC20F00250F1
:10271000010F056E000E0320066E000E0420076EEA
:10272000200EE56E05C0E9FF06C0F3FF0750CEECB2
:1027300020F0200EE56E02C0E9FF03C0F3FF045055
:10274000CEEC20F00250050F056E000E0320066E41
:10275000000E0420E56A05C0E9FF06C0F3FFCEECD9
:1027600020F0E6D0000E015C02E10A0E005CD8A069
:102770007FD00250040F056E000E0320066E000E7F
:102780000420076EE56A0A0EE56E0150E56E005002
:10279000E56E58EC1BF0086E040EE126300E08269C
:1027A00008C0E5FF05C0E9FF06C0F3FF0750CEEC07
:1027B00020F0E56A0A0EE56E0150E56E0050E56E08
:1027C000B5EC1BF0006E040EE1260250030F056EFF
:1027D000000E0320066E000E0420076E0050086EE7
:1027E000300E082608C0E5FF05C0E9FF06C0F3FF6C
:1027F0000750CEEC20F00250020F056E000E0320B1
:10280000066E000E0420076E200EE56E05C0E9FF7F
:1028100006C0F3FF0750CEEC20F00250010F056E0A
:10282000000E0320066E000E0420076E200EE56EDB
:1028300005C0E9FF06C0F3FF0750CEEC20F0200EE4
:10284000E56E02C0E9FF03C0F3FF0450CEEC20F0B8
:102850000250050F056E000E0320066E000E0420C8
:10286000E56A05C0E9FF06C0F3FFCEEC20F060D0BA
:102870000250040F056E000E0320066E000E0420A9
:10288000076E300E002600C0E5FF05C0E9FF06C058
:10289000F3FF0750CEEC20F00250030F006E000E45
:1028A0000320016E000E0420056E200EE56E00C0B0
:1028B000E9FF01C0F3FF0550CEEC20F00250020FFB
:1028C000006E000E0320016E000E0420056E200E27
:1028D000E56E00C0E9FF01C0F3FF0550CEEC20F02B
:1028E0000250010F006E000E0320016E000E042046
:1028F000056E200EE56E00C0E9FF01C0F3FF055034
:10290000CEEC20F0200EE56E02C0E9FF03C0F3FF1D
:102910000450CEEC20F0050E0226000E0322042205
:10292000E56A02C0E9FF03C0F3FF0450CEEC20F0DB
:10293000E4CF08F0E4CF07F0E4CF06F0E4CF05F0F1
:10294000E4CF04F0E4CF03F0E4CF02F0E4CF01F0F1
:10295000E4CF00F0E4CFD9FF1200D9CFE5FFE1CFFB
:10296000D9FF00C0E5FF020EDBCF00F096929694EF
:102970009398939A939C939E8D920050D8A49AD04A
:10298000280ECAEC1CF0030EE56E51EC1DF0E65269
:10299000500EB7EC1CF0030EE56E51EC1DF0E65244
:1029A000A00EF6EC1CF0030EE56E51EC1DF0E652A5
:1029B000380EF6EC1CF000000000000000000000E3
:1029C0000000000000000000000000000000000007
:1029D00000000000000000000000000000000000F7
:1029E00000000000000000000000000000000000E7
:1029F00000000000000000000000000000000000D7
:102A000000000000000000000000000000000000C6
:102A1000000000000000020EE56E51EC1DF0E652D1
:102A2000380EF6EC1CF00000000000000000000072
:102A30000000000000000000000000000000000096
:102A40000000000000000000000000000000000086
:102A50000000000000000000000000000000000076
:102A60000000000000000000000000000000000066
:102A70000000000000000000000000000000000056
:102A8000000000000000280EE56E57EC20F0E65232
:102A90001C0EE56E57EC20F0E6520C0EE56E57EC7E
:102AA00020F0E652060EE56E57EC20F0E652B1EC4F
:102AB00020F0F6D00050010A01E0F2D0030EE56EDE
:102AC00051EC1DF0E652400EF6EC1CF0020EE56EE5
:102AD00051EC1DF0E6520C0EE56E51EC1DF0E65285
:102AE000400EF6EC1CF0020EE56E51EC1DF0E652C5
:102AF0000C0EE56E51EC1DF0E652380EF6EC1CF0B3
:102B000000000000000000000000000000000000C5
:102B100000000000000000000000000000000000B5
:102B200000000000000000000000000000000000A5
:102B30000000000000000000000000000000000095
:102B40000000000000000000000000000000000085
:102B50000000000000000000000000000000000075
:102B6000000EE56E51EC1DF0E6520C0EE56E51ECD8
:102B70001DF0E652380EF6EC1CF0000000000000DC
:102B80000000000000000000000000000000000045
:102B90000000000000000000000000000000000035
:102BA0000000000000000000000000000000000025
:102BB0000000000000000000000000000000000015
:102BC0000000000000000000000000000000000005
:102BD00000000000000000000000000EE56E51EC57
:102BE0001DF0E652010EE56E51EC1DF0E652A00E0E
:102BF000E3EC1CF0500EE3EC1CF0400EF6EC1CF085
:102C0000000EE56E51EC1DF0E652060EE56E51EC3D
:102C10001DF0E652380EF6EC1CF00000000000003B
:102C200000000000000000000000000000000000A4
:102C30000000000000000000000000000000000094
:102C40000000000000000000000000000000000084
:102C50000000000000000000000000000000000074
:102C60000000000000000000000000000000000064
:102C700000000000000000000000000EE56E51ECB6
:102C80001DF0E652010EE56E51EC1DF0E652A00E6D
:102C9000E3EC1CF0500EE3EC1CF0400EF6EC1CF0E4
:102CA000E4CF00F0E4CFD9FF1200D9CFE5FFE1CFA8
:102CB000D9FF00C0E5FF01C0E5FF02C0E5FF03C08A
:102CC000E5FF04C0E5FF05C0E5FF06C0E5FF07C05E
:102CD000E5FF020EDBCF00F0030EDBCF01F0040EA8
:102CE000DBCF02F0050EDBCF03F0640E005CD8A052
:102CF00069D00150020F046E000E0220056E000E16
:102D00000320066E0A0EE56E00C0E5FFD5EC1DF04F
:102D1000076EE450E450300E072607C0E5FF04C0FC
:102D2000E9FF05C0F3FF0650CEEC20F00A0EE56E79
:102D300000C0E5FF9AEC1DF0006EE450E450015035
:102D4000010F046E000E0220056E000E0320066EB9
:102D50000A0EE56E00C0E5FFD5EC1DF0076EE450ED
:102D6000E450300E072607C0E5FF04C0E9FF05C0A8
:102D7000F3FF0650CEEC20F00A0EE56E00C0E5FF32
:102D80009AEC1DF0006EE450E4500050046E300EDA
:102D9000042604C0E5FF01C0E9FF02C0F3FF0350B1
:102DA000CEEC20F00150030F046E000E0220056EE1
:102DB000000E0320E56A04C0E9FF05C0F3FFCEEC76
:102DC00020F095D00A0E005CD8A055D00150020F1B
:102DD000046E000E0220056E000E0320066E0A0E21
:102DE000E56E00C0E5FFD5EC1DF0076EE450E45041
:102DF000300E072607C0E5FF04C0E9FF05C0F3FF5A
:102E00000650CEEC20F00A0EE56E00C0E5FF9AEC0D
:102E10001DF0006EE450E4500150010F046E000EEE
:102E20000220056E000E0320066E0050076E300E65
:102E3000072607C0E5FF04C0E9FF05C0F3FF065001
:102E4000CEEC20F0200EE56E01C0E9FF02C0F3FFDA
:102E50000350CEEC20F00150030F046E000E022050
:102E6000056E000E0320E56A04C0E9FF05C0F3FF0C
:102E7000CEEC20F03CD00150020F046E000E022078
:102E8000056E000E0320066E300E002600C0E5FF22
:102E900004C0E9FF05C0F3FF0650CEEC20F001505E
:102EA000010F006E000E0220046E000E0320056E5E
:102EB000200EE56E00C0E9FF04C0F3FF0550CEEC24
:102EC00020F0200EE56E01C0E9FF02C0F3FF0350C1
:102ED000CEEC20F0030E0126000E02220322E56A4A
:102EE00001C0E9FF02C0F3FF0350CEEC20F0E4CFB5
:102EF00007F0E4CF06F0E4CF05F0E4CF04F0E4CF30
:102F000003F0E4CF02F0E4CF01F0E4CF00F0E4CF2F
:102F1000D9FF1200D9CFE5FFE1CFD9FF00C0E5FF0F
:102F200001C0E5FF02C0E5FF03C0E5FF04C0E5FF07
:102F300005C0E5FF06C0E5FF07C0E5FF08C0E5FFE7
:102F400009C0E5FF0AC0E5FF020EDBCF00F0030E6B
:102F5000DBCF01F0040EDBCF02F0050EDBCF03F078
:102F6000060EDBCF04F0070EDBCF05F0080EDBCF3B
:102F700006F003380F0BE56E81EC1FF0076EE6528A
:102F800007C0E5FF04C0E9FF05C0F3FF0650CEEC23
:102F900020F00450010F076E000E0520086E000E91
:102FA0000620096E0350E56E81EC1FF00A6EE652B2
:102FB0000AC0E5FF07C0E9FF08C0F3FF0950CEECE7
:102FC00020F00450020F076E000E0520086E000E60
:102FD0000620096E02380F0B0A6E0338F00B0A2622
:102FE0000A50E56E81EC1FF00A6EE6520AC0E5FF5A
:102FF00007C0E9FF08C0F3FF0950CEEC20F00450F1
:10300000030F076E000E0520086E000E0620096EE5
:103010000250E56E81EC1FF00A6EE6520AC0E5FF31
:1030200007C0E9FF08C0F3FF0950CEEC20F00450C0
:10303000040F076E000E0520086E000E0620096EB4
:1030400001380F0B0A6E0238F00B0A260A50E56EA3
:1030500081EC1FF00A6EE6520AC0E5FF07C0E9FFE7
:1030600008C0F3FF0950CEEC20F00450050F076EA6
:10307000000E0520086E000E0620096E0150E56E58
:1030800081EC1FF00A6EE6520AC0E5FF07C0E9FFB7
:1030900008C0F3FF0950CEEC20F00450060F076E75
:1030A000000E0520086E000E0620096E00380F0B7A
:1030B0000A6E0138F00B0A260A50E56E81EC1FF00B
:1030C0000A6EE6520AC0E5FF07C0E9FF08C0F3FF39
:1030D0000950CEEC20F00450070F076E000E0520BB
:1030E000086E000E0620096E0050E56E81EC1FF0A0
:1030F000006EE65200C0E5FF07C0E9FF08C0F3FF1D
:103100000950CEEC20F0080E0426000E05220622FF
:10311000E56A04C0E9FF05C0F3FF0650CEEC20F0DD
:10312000E4CF0AF0E4CF09F0E4CF08F0E4CF07F0F1
:10313000E4CF06F0E4CF05F0E4CF04F0E4CF03F0F1
:10314000E4CF02F0E4CF01F0E4CF00F0E4CFD9FF08
:103150001200D9CFE5FFE1CFD9FF00C0E5FF01C0E4
:10316000E5FF02C0E5FF03C0E5FF04C0E5FF05C0C1
:10317000E5FF06C0E5FF07C0E5FF08C0E5FF020E5A
:10318000DBCF00F0030EDBCF01F0040EDBCF02F04B
:10319000050EDBCF03F0060EDBCF04F001380F0B7A
:1031A000E56E81EC1FF0056EE65205C0E5FF02C03A
:1031B000E9FF03C0F3FF0450CEEC20F00250010FF2
:1031C000056E000E0320066E000E0420076E0150EF
:1031D000E56E81EC1FF0086EE65208C0E5FF05C001
:1031E000E9FF06C0F3FF0750CEEC20F00250020FBB
:1031F000056E000E0320066E000E0420076E0038D8
:103200000F0B086E0138F00B08260850E56E81ECB4
:103210001FF0086EE65208C0E5FF05C0E9FF06C0D2
:10322000F3FF0750CEEC20F00250030F056E000EA6
:103230000320066E000E0420076E0050E56E81EC40
:103240001FF0006EE65200C0E5FF05C0E9FF06C0B2
:10325000F3FF0750CEEC20F0040E0226000E0322EE
:103260000422E56A02C0E9FF03C0F3FF0450CEEC7C
:1032700020F0E4CF08F0E4CF07F0E4CF06F0E4CF8D
:1032800005F0E4CF04F0E4CF03F0E4CF02F0E4CFA4
:1032900001F0E4CF00F0E4CFD9FF1200D9CFE5FF71
:1032A000E1CFD9FF00C0E5FF01C0E5FF02C0E5FFA7
:1032B00003C0E5FF04C0E5FF05C0E5FF06C0E5FF6C
:1032C00007C0E5FF08C0E5FF09C0E5FF0AC0E5FF4C
:1032D000020EDBCF00F0030EDBCF01F0040EDBCFDC
:1032E00002F0050EDBCF03F0060EDBCF04F0070E75
:1032F000DBCF05F0080EDBCF06F0090EDBCF07F0C1
:10330000086A045005100610071005E1E968F46822
:10331000F368E86847D0096A0750800BE8440A6EF2
:103320000A501BE1045004260536063607360750BE
:10333000035C08E10650025C05E10550015C02E116
:103340000450005C06E2D89007320632053204329F
:1033500004D0092A09C008F0DFD70750035C08E150
:103360000650025C05E10550015C02E10450005C7E
:1033700008E30450005E0550015A0650025A0750F7
:10338000035AD890073206320532043208C009F0D9
:1033900008060950E2E103C0E9FF02C0F4FF01C0E2
:1033A000F3FF0050E4CF0AF0E4CF09F0E4CF08F0D7
:1033B000E4CF07F0E4CF06F0E4CF05F0E4CF04F06B
:1033C000E4CF03F0E4CF02F0E4CF01F0E4CF00F06B
:1033D000E4CFD9FF1200D9CFE5FFE1CFD9FF00C07C
:1033E000E5FF01C0E5FF02C0E5FF03C0E5FF04C043
:1033F000E5FF05C0E5FF06C0E5FF07C0E5FF08C023
:10340000E5FF09C0E5FF0AC0E5FF0BC0E5FF0CC002
:10341000E5FF0DC0E5FF020EDBCF00F0030EDBCFB2
:1034200001F0040EDBCF02F0050EDBCF03F0060E39
:10343000DBCF04F0070EDBCF05F0080EDBCF06F084
:10344000090EDBCF07F0086A096A0A6A0B6A200EC8
:103450000C6E0350800BE8440D6E005000260136C0
:10346000023603360850082609360A360B360D5048
:10347000D8A4088007500B5C08E106500A5C05E1FF
:103480000550095C02E10450085C09E30450085E41
:103490000550095A06500A5A07500B5A00800C046E
:1034A0000D6E0DC00CF00D50D4E103C0E9FF02C059
:1034B000F4FF01C0F3FF0050E4CF0DF0E4CF0CF0B7
:1034C000E4CF0BF0E4CF0AF0E4CF09F0E4CF08F04A
:1034D000E4CF07F0E4CF06F0E4CF05F0E4CF04F04A
:1034E000E4CF03F0E4CF02F0E4CF01F0E4CF00F04A
:1034F000E4CFD9FF12000F01386B0F01396B0F01B8
:103500003A6B0F013B6B0F013C6BC26AC16AC06A28
:10351000796A786A776A949492888B94000EE56A47
:10352000ADEC14F0E652006A8B84A00ECAEC1CF0DD
:10353000A00ECAEC1CF08B94A00ECAEC1CF0A00EDE
:10354000CAEC1CF0002A040E005CEEE3000EE56AF3
:10355000E56A1CEC20F0E652E652800EE56E0F0E96
:10356000E56E010EE56E7BEC1EF0030EE126000E0B
:10357000E56E390EE56E620EE56E47EC1EF0030E49
:10358000E126006A002AE56A010EE56E1CEC20F0D7
:10359000E652E652800EE56E0F0EE56E0F0EE56EFA
:1035A0000050E56E55EC16F0040EE126016A0F0E90
:1035B0000124026E036A0F0E032202C0E9FF03C05A
:1035C000EAFFEFCF02F00250E56E6BEC20F0E6521E
:1035D000012A030E015CEBE3F00ECAEC1CF0F00EC6
:1035E000CAEC1CF0CFD71200D9CFE5FFE1CFD9FF4D
:1035F00000C0E5FF01C0E5FF02C0E5FF03C0E5FF35
:1036000004C0E5FF05C0E5FF06C0E5FF020EDBCF05
:1036100000F0030EDBCF01F0040EDBCF02F0050E4D
:10362000DBCF03F000380F0BE56E81EC1FF0046E6A
:10363000E65204C0E5FF01C0E9FF02C0F3FF0350FA
:10364000CEEC20F00150010F046E000E0220056E3A
:10365000000E0320066E0050E56E81EC1FF0006E38
:10366000E65200C0E5FF04C0E9FF05C0F3FF0650C5
:10367000CEEC20F0020E0126000E02220322E56AA3
:1036800001C0E9FF02C0F3FF0350CEEC20F0E4CF0D
:1036900006F0E4CF05F0E4CF04F0E4CF03F0E4CF8C
:1036A00002F0E4CF01F0E4CF00F0E4CFD9FF120044
:1036B000D9CFE5FFE1CFD9FF00C0E5FF01C0E5FFAD
:1036C00002C0E5FF03C0E5FF04C0E5FF05C0E5FF5C
:1036D00006C0E5FF020EDBCF00F0030EDBCF01F0EA
:1036E000040EDBCF02F0050EDBCF03F0046A056A9F
:1036F0000350800BE844066E065011E1025002268A
:1037000003360350015C02E10250005C04E2D890F1
:103710000332023204D0052A05C004F0E9D7035071
:10372000015C02E10250005C04E30250005E0350C1
:10373000015AD8900332023204C005F00406055045
:10374000EEE101C0F3FF0050E4CF06F0E4CF05F056
:10375000E4CF04F0E4CF03F0E4CF02F0E4CF01F0D3
:10376000E4CF00F0E4CFD9FF1200D9CFE5FFE1CFDD
:10377000D9FF00C0E5FF01C0E5FF02C0E5FF03C0BF
:10378000E5FF04C0E5FF05C0E5FF06C0E5FF07C093
:10379000E5FF020EDBCF00F0030EDBCF01F0040EDD
:1037A000DBCF02F0050EDBCF03F0046A056A100ED2
:1037B000066E0150800BE844076E0050002601366B
:1037C0000450042605360750D8A404800350055C35
:1037D00002E10250045C05E30250045E0350055A06
:1037E00000800604076E07C006F00750E2E101C042
:1037F000F3FF0050E4CF07F0E4CF06F0E4CF05F08C
:10380000E4CF04F0E4CF03F0E4CF02F0E4CF01F022
:10381000E4CF00F0E4CFD9FF1200D9CFE5FFE1CF2C
:10382000D9FF00C0E5FF01C0E5FF02C0E5FF03C00E
:10383000E5FF04C0E5FF020EDBCF00F0030EDBCF97
:1038400001F0040EDBCF02F00050E56E3AEC1FF001
:103850000F01146FE652EAEC20F0006A0150005CA0
:1038600007E20250E56E82EC01F0E652002AF6D73C
:10387000006A01C002F0036A02501008026E000ED6
:10388000035600C004F0800FF36E0350800FF35C0A
:1038900002E10250045C07E2200EE56E82EC01F0CA
:1038A000E652002AE6D7E4CF04F0E4CF03F0E4CFF9
:1038B00002F0E4CF01F0E4CF00F0E4CFD9FF120032
:1038C000D9CFE5FFE1CFD9FF00C0E5FF01C0E5FF9B
:1038D000020EDBCF00F000380F0B016EE56E51ECED
:1038E0001DF0E6520050E56E51EC1DF0E652380E28
:1038F000F6EC1CF0000000000000000000000000DA
:1039000000000000000000000000000000000000B7
:1039100000000000000000000000000000000000A7
:103920000000000000000000000000000000000097
:103930000000000000000000000000000000000087
:103940000000000000000000000000000000000077
:1039500000000000E4CF01F0E4CF00F0E4CFD9FF95
:10396000120020454E47000020454E470000E80663
:10397000E56E630EF6EC1CF0E4500BE000D0E56E53
:10398000630EF6EC1CF000D000D00000E450E82EEE
:10399000F6D71200E806E56E090EB7EC1CF0630ED0
:1039A000F6EC1CF0E4500EE000D0E56E090EB7EC2A
:1039B0001CF0630EF6EC1CF000D000D00000E450C8
:1039C000E82EF3D71200E806E56E090EF6EC1CF0BF
:1039D000E4500BE000D0E56E090EF6EC1CF000D0D0
:1039E000E450000000D0E82EF6D71200E8060000F0
:1039F000E85007E000D000D000D000D00000E82E52
:103A0000FAD7120011EEFFF021EEFFF0F86AA68E51
:103A1000A69CE40EF66E410EF76E000EF86E0900DD
:103A2000F5CF05F00900F5CF06F034D00900F5CF49
:103A300000F00900F5CF01F00900F5CF02F0090010
:103A40000900F5CFE9FF0900F5CFEAFF09000900F9
:103A50000900F5CF03F00900F5CF04F009000900D3
:103A6000F6CF07F0F7CF08F0F8CF09F000C0F6FF67
:103A700001C0F7FF02C0F8FF03D00900F5CFEEFF49
:103A80000306FBE20406F9E207C0F6FF08C0F7FFF1
:103A900009C0F8FF0506CAE20606C8E27BEC1AF088
:103AA000FFD7D9CFE5FFE1CFD9FF00C0E5FF020E78
:103AB000DBCF00F000500F01136F006A13B1002A32
:103AC0000050010BE838F46E8A50EF0BF4108A6E48
:103AD000006A13B3002A0050010BE838E844F46E82
:103AE0008A50DF0BF4108A6E006A13B5002A00506A
:103AF000010BE840E840F46E8A50BF0BF4108A6E68
:103B0000006A13B7002A0050010BE840F46E8A5097
:103B10007F0BF4108A6E8D8400000000000000000E
:103B200000000000000000008D94E4CF00F0E4CF1E
:103B3000D9FF1200D9CFE5FFE1CFD9FF00C0E5FFE3
:103B400001C0E5FF02C0E5FF03C0E5FF04C0E5FFDB
:103B5000020EDBCF00F0030EDBCF01F0026A080E8D
:103B6000036E800E0014046ED8900036D890023692
:103B70000450D8A402800150025C03E30150025EAD
:103B800000800304046E04C003F00450EAE1005016
:103B9000E4CF04F0E4CF03F0E4CF02F0E4CF01F08F
:103BA000E4CF00F0E4CFD9FF1200D9CFE5FFE1CF99
:103BB000D9FF00C0E5FF01C0E5FF02C0E5FF03C07B
:103BC000E5FF020EDBCF00F0030EDBCF01F0026A4F
:103BD000036A01BE0CD0D89001360150005C03E2AC
:103BE000D890013204D0032A03C002F0F2D701506A
:103BF000005C02E30150005ED890013202C003F085
:103C000002060350F4E10050E4CF03F0E4CF02F0E9
:103C1000E4CF01F0E4CF00F0E4CFD9FF1200D9CF18
:103C2000E5FFE1CFD9FF00C0E5FF01C0E5FF02C01D
:103C3000E5FF03C0E5FF020EDBCF00F0030EDBCF94
:103C400001F0026A036A0150035C02E10050025C69
:103C500013E200000000000000000000000000006F
:103C60000000000000000000000000000000000054
:103C70000000024A032AE7D7E4CF03F0E4CF02F0C2
:103C8000E4CF01F0E4CF00F0E4CFD9FF1200D9CFA8
:103C9000E5FFE1CFD9FF00C0E5FF01C0E5FF02C0AD
:103CA000E5FF03C0E5FF020EDBCF00F0030EDBCF24
:103CB00001F0040EDBCF02F000C0E9FF01C0F3FF0A
:103CC000025091EC20F0036E03500AE00350E56EC1
:103CD0006BEC20F0E652002AEFE3014A022AECD70F
:103CE000E4CF03F0E4CF02F0E4CF01F0E4CF00F042
:103CF000E4CFD9FF1200D9CFE5FFE1CFD9FF00C053
:103D0000E5FF01C0E5FF02C0E5FF03C0E5FF020ECD
:103D1000DBCF00F0030EDBCF01F0040EDBCF02F0AF
:103D200000C0E9FF01C0F3FF025091EC20F0036EE8
:103D300003500AE00350E56E6BEC20F0E652002AD7
:103D4000EFE3014A022AECD7E4CF03F0E4CF02F01C
:103D5000E4CF01F0E4CF00F0E4CFD9FF1200D9CFD7
:103D6000E5FFE1CFD9FF00C0E5FF01C0E5FF02C0DC
:103D7000E5FF03C0E5FF020EDBCF00F0030EDBCF53
:103D800001F0040EDBCF02F0080E036E025002E0D9
:103D90000C0E036E005002E0032A032A015001E0DA
:103DA000032A0350E56E57EC20F0E652E4CF03F00F
:103DB000E4CF02F0E4CF01F0E4CF00F0E4CFD9FF8C
:103DC0001200D9CFE5FFE1CFD9FF00C0E5FF01C068
:103DD000E5FF02C0E5FF020EDBCF00F00A0EE56E44
:103DE00000C0E5FF9AEC1DF0016EE450E45001388C
:103DF000F00B026E0A0EE56E00C0E5FFD5EC1DF07B
:103E0000006EE450E450005002120250E4CF02F081
:103E1000E4CF01F0E4CF00F0E4CFD9FF1200D9CF16
:103E2000E5FFE1CFD9FF00C0E5FF01C0E5FF02C01B
:103E3000E5FF03C0E5FF020EDBCF00F0030EDBCF92
:103E400001F0026A036A0150035C02E10050025C67
:103E500006E2A00EE3EC1CF0024A032AF4D7E4CFFA
:103E600003F0E4CF02F0E4CF01F0E4CF00F0E4CFC0
:103E7000D9FF1200D9CFE5FFE1CFD9FF00C0E5FFA0
:103E8000020EDBCF00F0005C13E2005002E1E86AB2
:103E900010D00050010A02E1400E0BD00050020A7F
:103EA00002E1100E06D00050030A02E1500E01D0CC
:103EB000E86AE4CF00F0E4CFD9FF1200D9CFE5FFE4
:103EC000E1CFD9FF00C0E5FF020EDBCF00F00050CC
:103ED000E56E3AEC1FF00F01146FE652EAEC20F0A9
:103EE000006A200EE56E82EC01F0E652002A100E08
:103EF000005CF7E3EAEC20F0E4CF00F0E4CFD9FF78
:103F00001200D9CFE5FFE1CFD9FF00C0E5FF01C026
:103F1000E5FF020EDBCF00F00F0E0016300E00267C
:103F20003A0E005C05E30050016E070E0124006E9E
:103F30000050E4CF01F0E4CF00F0E4CFD9FF12004D
:103F4000D9CFE5FFE1CFD9FF00C0E5FF01C0E5FF14
:103F5000020EDBCF00F000500BE0016A0050015C64
:103F600007E2140EE56E57EC20F0E652012AF6D770
:103F7000E4CF01F0E4CF00F0E4CFD9FF1200D9CFB5
:103F8000E5FFE1CFD9FF00C0E5FF01C0E5FF020E6C
:103F9000DBCF00F000500BE0016A0050015C07E24B
:103FA000100EE56E57EC20F0E652012AF6D7E4CF6A
:103FB00001F0E4CF00F0E4CFD9FF1200D9CFE5FF44
:103FC000E1CFD9FF00C0E5FF01C0E5FF020EDBCF66
:103FD00000F000500BE0016A0050015C07E21C0E8B
:103FE000E56E57EC20F0E652012AF6D7E4CF01F057
:103FF000E4CF00F0E4CFD9FF1200D9CFE5FFE1CF45
:10400000D9FF00C0E5FF01C0E5FF020EDBCF00F0E5
:1040100000500BE0016A0050015C07E2180EE56EEB
:1040200057EC20F0E652012AF6D7E4CF01F0E4CFB6
:1040300000F0E4CFD9FF1200D9CFE5FFE1CFD9FFDF
:1040400000C0E5FF01C0E5FF020EDBCF00F0030E6C
:10405000DBCF01F00050E56E3AEC1FF0E652012490
:104060000F01146FEAEC20F0E4CF01F0E4CF00F090
:10407000E4CFD9FF1200D9CFE5FFE1CFD9FF00C0CF
:10408000E5FF01C0E5FF020EDBCF00F000380F0BAB
:104090000A0DF3CF01F00F0E00160050012601505B
:1040A000E4CF01F0E4CF00F0E4CFD9FF1200D9CF84
:1040B000E5FFE1CFD9FF00C0E5FF020EDBCF00F046
:1040C0008D920050E56E60EC1CF0E652E4CF00F0FB
:1040D000E4CFD9FF1200D9CFE5FFE1CFD9FF00C06F
:1040E000E5FF020EDBCF00F08D820050E56E60EC44
:1040F0001CF0E652E4CF00F0E4CFD9FF1200F2CF7B
:10410000EAFFF29EA69EA69CA684E9CFA9FFF3CF64
:10411000AAFFE4CFA8FFD9EC20F0A694EABEF28E65
:104120001200E8AE04D0F3CFEAFFEE501200E8BC74
:10413000F9EF20F0E9CFF6FFF3CFF7FFF86E0900B3
:10414000F5501200020EE56E57EC20F0E652A00E7C
:10415000E3EC1CF0500EE3EC1CF0300EE3EC1CF032
:104160001200010EE56E57EC20F0E652A00EE3ECD3
:104170001CF0500EE3EC1CF0300EE3EC1CF01200CF
:10418000F2CFF6FFF29EA69EA69CE9CFA9FFF3CF41
:10419000AAFFA680A850F6BEF28E1200E8AE05D0A7
:1041A000F3CFEAFFE4CFEEFF1200E8BCFBEF20F014
:1041B0001200550EA76EAA0EA76EA682A6B2FED753
:1041C000A94AAA2A0048656C6C6F20576F726C640C
:1041D00021000000800E0F011411E56E57EC20F055
:1041E000E65212000100C4410000000F00000F0061
:0A41F0000000C0EF20F07FEF20F088
:00000001FF
